:020000040800F2
:10100000D80C0020D1100008C51F00085117000897
:1010100000000000000000000000000000000000D0
:10102000000000000000000000000000B1200008E7
:101030000000000000000000C71F0008B3200008E7
:10104000E3100008E3100008E3100008E3100008B4
:10105000E3100008E3100008E31000083D17000843
:10106000E3100008491600087116000891160008E0
:10107000B51400081D220008E3100008E310000862
:10108000452200086D22000800000000DD21000854
:10109000F121000819220008E3100008E3100008FD
:1010A000E3100008E3100008E3100008892200089C
:1010B000E310000800000000E31000080348854624
:1010C00000F0B4F900480047F9380008D80C0020B7
:1010D0000448804704480047FEE7FEE7FEE7FEE7D6
:1010E000FEE7FEE7D9210008BD10000803460B43C8
:1010F0009B0703D009E008C9121F08C0042AFAD2CE
:1011000003E00B780370401C491C521EF9D2704753
:10111000D2B201E00270401C491EFBD2704700228F
:10112000F6E710B513460A4604461946FFF7F0FFE6
:10113000204610BDF8B502464A40D40F42004B008D
:1011400052085B089A4202D20246084611464A00FB
:1011500023D0C30D4A00DDB2120EAD1A202D35DAB0
:1011600049020126490AF6058A19002C00D052428C
:1011700020214F1B1146B9402A411018C20D9A4236
:1011800021D0002C17D0012D08DCDA05801AD20FEF
:101190008019D207DBB200F00FF9F8BDDA05801A2A
:1011A000012340001B06C01880185A428018CA0F3D
:1011B0001043490007E04908C2071143DA05801AC5
:1011C00080194008801800F0EFF8F8BD6100012296
:1011D000511A001BF7E70122D2075140AAE701226A
:1011E000D2075040A6E770B502464A40D50F4000EE
:1011F0004A00ED0740085208002814D0002A12D0F7
:10120000C40DD30D41020120C0055202490A520A01
:10121000E41A091812187D34914201D3641C00E0CD
:101220004900002C01DA002070BD0023914201D357
:10123000891A0343400849000028F7D100290AD041
:10124000914202D10121C90705E0914201D2012159
:1012500001E00121C943E005C018401900F0A4F8DD
:1012600070BD0122D207002800DB101A002900DB24
:10127000511A814201D80120704700207047012295
:10128000D207002800DB101A002900DB511A814226
:1012900001D201207047002070470122D2070028A8
:1012A00000DB101A002900DB511A814201D3012012
:1012B0007047002070470122D207002800DB101A77
:1012C000002900DB511A814201D90120704700201A
:1012D0007047C217C10F504010B54018CA07962377
:1012E000002100F069F810BDC20F41004002012347
:1012F000400ADB05D207090EC0187F2901DA002059
:101300007047962903DC9623591AC84001E09639A4
:101310008840002AF4D04042704770B50446002946
:1013200003D000202022012310E0002801D000205B
:10133000C043C046C0460DE02546D5408D4205D38A
:101340000D469540641B1D46954040191546521E9A
:10135000002DF1DC214670BD70B5002504462E46F7
:10136000002911D0002C01DA01254442002901DABC
:10137000012649422046FFF7D0FFB54200D0404247
:10138000002D00D0494270BD002C02DA0121C907AE
:1013900002E0002C00DD03490846C046C046214655
:1013A00070BD0000FFFFFF7F002904DA401C4900E8
:1013B00001D140084000704770B40024050C05D1ED
:1013C0001024000402D1002921D01124050E01D1DE
:1013D00000020834050F01D10001241D850F01D141
:1013E0008000A41C002801DB4000641C002908D0F8
:1013F00020252E1B0D46F540A14000D00121294398
:10140000084301061B1B000ADB1D02D5002070BC2F
:101410007047DB05181880180029F8DA401C4900CD
:10142000F5D170BC40084000704700001CB5094869
:1014300000900948019005460126009C05E0E368FC
:1014400007CC33430C3C98471034AC42F7D3FFF73A
:1014500039FE0000146500083465000870B58C186A
:101460000578401C6B075B0F01D10378401C2A11E3
:1014700006D10278401C03E006780E70401C491C1F
:101480005B1EF9D12B0705D40023521E0DD40B701F
:10149000491CFAE70378401CCB1A921C03E01D7824
:1014A0000D70491C5B1C521EF9D5A142D8D30020F7
:1014B00070BD000080B5A5480168890204D50121EE
:1014C0004905016002F058F880BDC0460548818892
:1014D000054A11800188054A118040880449088026
:1014E0007047C046B00500206E0500207205002040
:1014F0005A050020F0B593B00027119710970F9769
:101500000E970D970C970B970A97099708970797CF
:101510000697059704970397012148020B4601910E
:1015200044494A6802434A604A680240129212984B
:1015300058040A6802430A6009680140129112982F
:101540000797032604964020009003900920C406C4
:1015500003AD2046294600F02DF907970496082090
:10156000029003902046294600F024F93248016891
:10157000324A0A400260310302688A43026001680D
:1015800020220A4302600168009CA14301600168B7
:1015900080220A430260310202688A43019B1902D9
:1015A00051180160B10202688A4399021E4651181F
:1015B0000160234D28680299084328602868204369
:1015C00028601804296801432960072080051D4907
:1015D0000A688243D80510180860D8070E90119742
:1015E00010970F972C46283C0EA9204600F0B2F821
:1015F0000D970C960B970A97099709A9204600F0BA
:10160000C3F80420C04329461C390A6802400A6016
:10161000294614390A6806231343B3430B60243D5B
:10162000296801402960286802998843286013B01E
:10163000F0BDC0461410024008000240EFBFFFFF9B
:10164000282401400827014010B5104C206880076D
:1016500003D42068000707D410BD01206060FFF7A5
:1016600035FF20680007F7D50820606010BDC04630
:1016700006480168890602D40168090605D51021CB
:101680004160C16901229143C1617047000002407D
:10169000F0B581B00125EC032148017821480029EB
:1016A00011D01E49097800290DD0290302680A4388
:1016B0000260002101641F480078002824D003F054
:1016C00045FD022522E0011F0A6852040CD5164A86
:1016D0001278002A08D0AA03144B1E680227374349
:1016E0000826B7431F6002600A68920404D40968A0
:1016F000214211D029030EE029030160016CA943A6
:10170000016404F09FFD03E003F088FE0A480570C1
:10171000074801682143016001B0F0BD25050020A4
:101720002C050020040002402F050020200400406A
:1017300010040140EC0400200D05002080B50120BC
:10174000C0030249086003F08DFC80BD1404014011
:10175000FEE700008268D20712D1C268094B13402D
:101760004A681A438B681343CA681A43C26003224B
:101770009207036993430968194301610020704788
:1017800001207047C73FFFFF70B58268D2070CD1B8
:10179000C268074B134074C909681A4322432A439D
:1017A00032430A43C260002070BD012070BDC046B4
:1017B0003CC2FEFFF0B584B00B68002B49D0002579
:1017C0000191009010E07F437F433B460F21594336
:1017D0008E435D433543009805510199039D6D1C6F
:1017E0000B681C46EC4035D00122AA401A40F6D0C6
:1017F0000395144654434B6826465E4303276743CC
:101800000568BD4335430560FE4302935D1E2346D4
:10181000012D05D88D685D43876837402F43876069
:101820000D695D43C76837402F43C760029D022D95
:10183000039DD4D1170A05D024244D690659002FE1
:10184000C1D104E020244D690659002FBBD15B4370
:10185000BCE700234A68521E012A05D8C9685943CB
:1018600042689A430A434260002004B0F0BD000081
:1018700080B57D21C900FFF750FD401E0349486037
:10188000002088600520086080BDC04610E000E0B0
:10189000B0B504463E4D28680C2101403D4808295A
:1018A0000FD12968C90300D43B48A96A0F220A4016
:1018B000511CFFF732FD014628688002000F801C92
:1018C0004843206029680906090F354A515CC84021
:1018D000606029684905490F304A515CC840A060E2
:1018E000B0BDC04610B5002801D0002010BD284C66
:1018F000E16A03200840C0467844007940008744EC
:101900000130242920680C210140224808290FD1E8
:101910002168C90300D42048A16A0F220A40511C43
:10192000FFF7FBFC014620688002000F801C484343
:10193000216822685205520F184B9A5C0906090F5C
:10194000174B595CC840D04010BDE06902210140EE
:10195000880310BD201F00688007C1170D4808408C
:1019600010BD20680C2101400A480829ECD12168EB
:10197000C90300D40848A16A0F220A40511CFFF78E
:10198000CCFC014620688002000F801C484310BD3B
:101990000410024000127A0000093D00FA640008B9
:1019A000EA640008014908607047C046A8010020A9
:1019B000B0B51F22D30234C99C433F239B029D43F1
:1019C0000B782B4323430F242403A2431A430323FE
:1019D0009B034C688D689C4314434988034A0A4022
:1019E00022432A4342640020B0BDC046FF1F0000CE
:1019F000B0B5056801229407A04205D0234B984258
:101A000002D0234B984217D170239D434B682B4340
:101A1000204DA84214DD204CA04206DC1B4CA04205
:101A200016D0204CA04213D02EE01C4CA0420FD068
:101A30001B4CA0420CD027E02B46164DA842EADCF6
:101A4000A04205D0124CA04202D0174CA0421BD19C
:101A500003242402A343CC681C4304608B68C36244
:101A60000B888362974BC3180A24E341072B06D8DF
:101A700014469C40E1231C4201D0097C016341696A
:101A8000114341610020B0BD1C46E6E7002C014037
:101A900000040040FF2B0140FF430140004801408B
:101AA000004401400040014000200040F0B584B0F7
:101AB0000123FF2944DC01297FD0102900D0FBE05D
:101AC000016A102399430162016A30239943136923
:101AD0005B085C010C431768516809012143794C8C
:101AE00006190A24E64145688469072E1ED8039723
:101AF0000127B740E126374217D00326B602B54387
:101B0000536902939769D369BF002646704C3C40E5
:101B10002C43DD0025433446C0239943029B5B08D8
:101B2000DB010B43916889011943039F45607323CF
:101B30001B029C433B0223438361D268826376E0AD
:101B400001273D02A94274D03D03A94200D0B3E071
:101B5000016AA94301625B4945180A21CD41016A26
:101B60004368146802945468019414690394C66924
:101B7000072D00D9A3E03C46AC40E1252C4200D122
:101B80009DE0BC03A3439469A4011C43019D4460F0
:101B900073231B029E43029B1B023343C361D26823
:101BA0000264032212039143474A1032039B1B0332
:101BB00013400B432903194339E00127F943036A12
:101BC0000B40036213690B40046A032102918C43AA
:101BD0001C431668516821433A4BC3180A24E34159
:101BE00045688469072B1BD803963E469E40E12337
:101BF0001E4214D0029B1B029D437B025669029633
:101C00009769D6699F432F4375003D430C23994341
:101C1000029B5B08DB000B43916889001943039E1C
:101C2000456073239C4334438461D26842630162FC
:101C300041E0016AA94301622449491C13691B025E
:101C40000B40032102910902056A8D431D4311686F
:101C5000039151680B022B431A4941180A25E941A7
:101C60004668C56907291DD88F40E1210F4219D068
:101C7000029C21038E43516901919169D7690097B4
:101C80000901114F0F40374300994E013E43A10215
:101C90008B430F49091D019CA4020C401C43916811
:101CA0008B022343466073218D4303990D43C56125
:101CB000D168C16303620023184604B0F0BD1C461E
:101CC00064E7C04600D4FEBFF0DFFFFFFFFDFFFF6B
:101CD000FCF7FFFF70B584B0024603680120DB0704
:101CE00028D11368294C1C404B682343CC681C4303
:101CF0000B6923438C691C43146003231C03556840
:101D0000A5438C682C4354601B0294689C434B6928
:101D1000234393601E4B9A420ED01E4B9A4209D128
:101D20000E46054614460020FFF7DCFD0246002A59
:101D300028460BD104B070BD0E460546144601A8D6
:101D4000FFF7A6FD039A002A2846F3D03168002940
:101D5000F0D00120C003B36983420DD150004A087E
:101D60001018FFF7DAFA0C4901400007400F40183D
:101D7000E060002004B070BD48088018FFF7CDFA7D
:101D800080B2E060002004B070BDC046F369FFFF80
:101D90000044004000380140F0FF000006480749B9
:101DA000016007490160022141607D214901816094
:101DB000044901607047C04600300040CCCC0000B0
:101DC00055550000AAAA0000F0B59FB000251D954A
:101DD0001C951B951A951995189517951695159597
:101DE000149513951295119510950F950E950D95C7
:101DF0000C950B950A9509950895079506950595F7
:101E00000124E20203926A49486810434860486826
:101E100010401E901E9819A90D740D801C95104637
:101E200031381B901A95634E3046FFF7E1FD30685C
:101E30008021049108433060B0685F490140B1607F
:101E4000B069082101910843B0611295139514956A
:101E500015951695179518956020119011AF30467D
:101E600021463A46FFF722FE0420C1430091B069A3
:101E70000840B061B06903990843B06113951295A9
:101E8000102130463A46FFF711FEB0694B49084031
:101E9000B061F06901990843F06113951295210230
:101EA000019130463A46FFF701FEF069009908407B
:101EB000F061F06903990843F061139512952103CD
:101EC00030463A46FFF7F2FDF0693C490840F061C0
:101ED00070687021884370600BA9CD812D20087334
:101EE000B068049A9043B060109560030F900D9510
:101EF0000C950B953046FFF75BFD274660042C4B95
:101F0000196801431960196801401E911E98A004C8
:101F10000294196801431960196801401E91022456
:101F20000A94099508950795069405941E982448E7
:101F300005AE3146FFF73EFC0A94099508950795D2
:101F4000069405971E483146FFF734FC0A9409951C
:101F5000089507950694049805900920C706384609
:101F60003146FFF727FC0A940995089507950694D2
:101F700002988002059038463146FFF71BFC0A9410
:101F800009950895079506940298400205903846F1
:101F90003146FFF70FFC0A940995089507950694BA
:101FA0000198059038463146FFF704FC1FB0F0BD9C
:101FB00014100240002C0140F8BFFFFFFFFBFFFFA1
:101FC0000004004870477047F0B581B0324801689E
:101FD0000125A9430160314C607F617E01290AD14E
:101FE000401C6077C1B2072903D32D48457565773A
:101FF0002846284009E0411E6177080603D1284899
:10200000457506216177284688432076EFF31080D6
:1020100072B6234F387E002802D1607F00F034FA78
:1020200062B600F0F7F91F4EB0681F49884200D32E
:1020300065750020B884607F40008019E16D4183A0
:102040005020385A03224A4310188108E165BA7AB1
:10205000002A04D02622BA5C4A43910902E0E279C0
:10206000410951434022B952C008401A4A217852CE
:10207000607D002805D030690C49884207D901B03D
:10208000F0BD00F069FF306908498842F7D8401C6C
:10209000306101B0F0BDC0460C200040C0000020FF
:1020A0000C05002088050020A50600000F27000071
:1020B00070477047B0B545490A68012002430A607D
:1020C0000968434D2968014329602968890708D4B4
:1020D0002968890705D42968890702D429688907EE
:1020E000F3D52B6880210B43782293432B606B6BD5
:1020F00003436B636B6B9B0708D46B6B9B0705D427
:102100006B6B9B0702D46B6B9B07F3D56B6B0B431D
:1021100093436B63696A01436962696A890708D4FA
:10212000696A890705D4696A890702D4696A8907D7
:10213000F3D53D2109046A688A430521C904511871
:102140006960E96A0F229143E96201062A680A433D
:102150002A6041062A680A4208D12A680A4205D143
:102160002A680A4202D12A680A42F3D06968F0223A
:1021700091436960072109026A688A436A60696855
:1021800002220A4382436A6069680C2001400829E0
:102190000BD069680140082907D069680140082907
:1021A00003D0696801400829EED10A4C2046FFF7A8
:1021B0005FFB2046FFF7F6FB686B042188436863EA
:1021C000286B032188432863B0BDC046002002402D
:1021D00000100240006CDC027047000080B5012056
:1021E000C04302490860FFF7EFFE80BD10200040A9
:1021F0000220C04307490A68920703D40A68D2073D
:1022000004D1704708600A68D207FAD0401C086001
:102210007047C04610400140704700000220C04394
:1022200007490A68920703D40A68D20704D17047A5
:1022300008600A68D207FAD0401C08607047C046A0
:10224000102C01400220C04307490A68920703D4BA
:102250000A68D20704D1704708600A68D207FAD02A
:10226000401C08607047C0461004004080B5054817
:102270000168C90704D00121C943016003F0B0FD22
:1022800080BDC046101000407047000081B00020A3
:1022900000902248026822490A405218183202600F
:1022A0000268002A08D50268002A05D50268002ABB
:1022B00002D50268002AF3D401220092009B002B71
:1022C00017D0009B5B1E0093009B002B11D0009B3E
:1022D0005B1E0093009B002B0BD0009B5B1E0093AA
:1022E000009B002B05D0009B5B1E0093009B002BE6
:1022F000E7D103680B4013430360014608390A68BD
:10230000D20708D10A68D20705D10A68D20702D1DC
:102310000968C907F1D001B07047C04608240140E0
:10232000E8FFFF7F70B5F14B1868042101430820D6
:102330008143196002249C6203210A050920C0061A
:102340000568954301221605AD1905609502856261
:102350001D681543A5431D609A628B0404689C4365
:102360009304E3180360530283628B0304689C4365
:102370009303E318036080238362090403688B439B
:102380001104591801601102816270BD70B5D849FD
:102390000A78D64C20680C239843002A03D00822E0
:1023A0001043206004E00422104320600220A06259
:1023B000032213050920C00605689D4301235E051D
:1023C000AD1905600E7825689543002E03D00226CE
:1023D0003543256002E01D432560A362940405682F
:1023E000A543DC042C1904600C7895030168A9430B
:1023F000002C03D0DC032143016004E09C03214353
:10240000016080218162110402688A4359045118D5
:10241000016070BD10B5184A11781848042901D020
:10242000012902D1512101601178052901D0022929
:1024300002D1612101601178062901D0032901D15F
:10244000412101600E4802780E48011D002A0B460A
:1024500007D100241C60002A08D101214905016030
:1024600010BD034600241C60002AF6D00846012156
:102470004905016010BDC046DD0000201C00014080
:10248000D800002008040140F0B5411E052900D9FC
:102490002BE10920C006C0467944097949008F44E0
:1024A00002AA5C7C2FD70323990302688A43012187
:1024B0008C0312190260802282621A040468944319
:1024C0000A04A21802600A028262884A15680D4353
:1024D0000224A543156091619B0405689D438B040C
:1024E000EB1803604B028362814B1D7813680C2646
:1024F000B343002D00D1E9E0082423431360E9E051
:102500007A490A6804231343082293430B60022389
:102510008B62032422050568954301221605AD1937
:10252000056095028562A5030668AE43950375199B
:1025300005608025856125040668AE43150475197C
:102540000560150285626A4D2E780D68A543002E40
:1025500000D1B1E01D430D60B1E0644A1168012370
:1025600019430224A1431160936203218D0406687C
:10257000AE439D04751905605D02856215680426E9
:102580002E430825AE43166094610A0504689443FF
:102590001A05A21802609A024CE003218A0304681B
:1025A000944301239A03A2180260802282620A04E3
:1025B000046894431A04A21802601A0282624B4C07
:1025C0002268042515430822954325600225A5614C
:1025D0000A05066896431A05B21802609A028262DA
:1025E000434A177826688E43D904434A002F69D09E
:1025F0002E43266075E03D4A116804230B430821F1
:102600008B4313600224946203210B0505689D43EC
:1026100001231E05AD1905609D02856215681D43E5
:10262000A543156093618A04046894439A04A21830
:1026300002605A0282622E4A1578890304688C432C
:1026400059042E4A002D31D0DB031C43046048E0BE
:10265000264B1A6801210A430224A2431A60996298
:10266000032295040668AE438D04751905604D027A
:10267000856295030668AE438D0375190560802554
:1026800085611204056895430A04AA1802600A02CB
:102690008262174A16781D680C2295434905154A2F
:1026A000002E1AD0082425431D601AE09B031C430A
:1026B00004608023836214E015430D608A62D104B4
:1026C0000D4A0EE01E432660A3620AE004252B4358
:1026D000136094624905074A03E0042635431D60F0
:1026E0009C62036813400B430360F0BD0004004884
:1026F000C1000020FFFFCFFFFFFFF3FFFFFFFCFF44
:10270000F0B589B0E9480268C16F891AE84D69815E
:102710008BB259092981E84C2488A34200D820E1D2
:10272000E44C2488A34200D31BE1E44B00271F8024
:1027300043689A1A92B201268A42324600D83A4633
:10274000EA618268C3689A1A92B28A42324600D815
:102750003A462A62026943699A1A92B28A4232461A
:1027600000D83A466A628269C3699A1A92B28A426A
:10277000324600D83A460792AA62026A436A9A1A17
:1027800092B28A42324600D83A460692EA62826A99
:10279000C36A9A1A92B28A42324600D83A460592E1
:1027A0002A63026B436B9A1A92B28A42324600D86D
:1027B0003A4604926A63826BC36B9A1A92B28A4257
:1027C000324600D83A460892AA63026C436C9A1AC1
:1027D00092B28A42324600D83A460292EA63826C4A
:1027E000C36C9A1A92B28A42324600D83A46019293
:1027F0002A64026D436D9A1A92B28A42324600D818
:102800003A4600926A64826DC36D9A1A92B28A4205
:10281000324600D83A460392AA64026E436E9A1A70
:1028200092B28A42334600D83B46EB64826EC46E55
:10283000A21A92B28A42344600D83C462C65026FF6
:10284000456FAA1A92B28A42324600D83A46984D4B
:102850006A65856FC06F401B80B2884200D83E46D3
:1028600093488665C169056A406A069F7940029F60
:102870007940C900059F7D40019F7D40AD000D431B
:1028800004994840009948404700089807994840F3
:102890000890D800A1000818510044188848007812
:1028A000884B1978C9B201430DD100F0A7FC854BC4
:1028B000002808D07E490879401C0871C0B26528FC
:1028C00001D301201870A0193D43089A03994A408A
:1028D0001978002901D00F214840FE210D40A91888
:1028E00088423AD1724CE269236A27462437E1CF05
:1028F000616B0791A16B089192025B021343020284
:102900001A43EB011343B2011A437B0113430798A7
:10291000010119430898C000084326463C364ECEB4
:102920008D0005435100294319430020D14A1080EE
:10293000A289521CA281012E02D1634A0123137085
:10294000302910DB6278002A0DD060480022027026
:10295000D0480180A27009B0F0BD5549C889401C1B
:10296000C88109B0F0BD4A1E2E2A06D8574801700A
:10297000C84800220280C8B20EE0002902D05348A5
:10298000007809E02178012901D1002161704F49C7
:102990000870C0490880A0700028E2D04C4909782E
:1029A0000029DED1464909780029DAD0E178884249
:1029B00002D00021A170E070052805D3A178491C40
:1029C000A170C9B20629CCD30025A570411E1429D7
:1029D00000D964E07944097949008F440A433F3BB8
:1029E00020602C474E5C605214336060606060244D
:1029F0000E003A490120087051E036480078364907
:102A0000087015204BE00121294B59710720400225
:102A1000D8801A780D20012A41D159703FE02F4902
:102A2000052008703BE02B4800780121081A2A494C
:102A30000870142033E028480121017025480570F2
:102A400007202CE01A494D7107204002FF30C88052
:102A50000E2024E021490420087020E01F490320B3
:102A600008701CE01D490220087018E01A48057023
:102A7000184801210170082011E0844805700920E0
:102A80000DE002F0ADFB13480078401C13490870BC
:102A90000E48007803E07D48012101700A200B49AF
:102AA0000D700F49087009B0F0BDC046C405002084
:102AB0009004002024010020FC0400205805002080
:102AC0002C0500202505002023050020C406002039
:102AD000280500200E050020D90000202005002038
:102AE0000C080020F0B581B05E4E03CE081A5E4996
:102AF00041185F4A083E91420ED85E4D00242C805A
:102B00005D4B5978002909D0D978002966D1997888
:102B100000292DD018892CE0544D8BE01E465B49CE
:102B2000097800290DD05A490A887D21CB009042AE
:102B300015D9524C248809010091511C5B1C224676
:102B400011E04E490A88504909887D231B012F3323
:102B500000932F2302F0D0F8312806DA06E04A4924
:102B600009880093002302F0C7F80446346161E04D
:102B70001881491C9970414F398880B200F022FBBE
:102B8000332803D3E24B5C70394620E038880721B4
:102B9000414305CE101A4018C0083880DC4B9978A4
:102BA000083E3329394612D3193881B2344A89187C
:102BB000CA0F8918490821221F46324B9954012116
:102BC000F9702E49088002F081F92C493B460888AB
:102BD0001881D87800282DD003CE081A19797D22C3
:102BE000D200FA3290420DD2491C1F461971264A72
:102BF000138807265E433018C0081080C8B24C28DE
:102C000004D217E01F46C8B24C2813D31E480188CF
:102C100019318AB2144B9A183332D30FD218520892
:102C20002023184EF2547C70018002F0D9FA3C71D6
:102C300002F028F90020288016480288B449096962
:102C40008C1A154B1B689C4201DDD11806E0541A02
:102C50009C4203DDD11A018001B0F0BD018001B0BA
:102C6000F0BDC046C4050020DFFCFFFF4E0500207C
:102C70007605000058050020F0040020E800002040
:102C80002AF9FFFFC5060020E60000200F050020FE
:102C9000EA00002052050020B4010020184900225B
:102CA0000A600A68824208D20A68824205D20A682B
:102CB000824202D20A688242F3D3704710B51049AB
:102CC00000220A604B2292014A600A46103A1468B8
:102CD00001231C4314600A2444430868A04208D21C
:102CE0000868A04205D20868A04202D20868A04243
:102CF000F3D33020486010681843106010BDC04600
:102D000024480140F0B57F4BC9337F4843807F4959
:102D10000F6800252A4603E052182835782D77D011
:102D20007A494E197168CF1B1BD1B768791A21D126
:102D3000F168CF1B27D13769791A2DD17169CF1B63
:102D400033D1B769791A39D1F169CF1B3FD1376ACD
:102D5000791A45D1716ACF1B4BD1B76A791ADCD089
:102D600050E09CB2A74201D247803B46D219B768D7
:102D7000791ADDD09CB2A14201D241800B46521893
:102D8000F168CF1BD7D09CB2A74201D247803B4607
:102D9000D2193769791AD1D09CB2A14201D24180AF
:102DA0000B4652187169CF1BCBD09CB2A74201D2FF
:102DB00047803B46D219B769791AC5D09CB2A14267
:102DC00001D241800B465218F169CF1BBFD09CB293
:102DD000A74201D247803B46D219376A791AB9D047
:102DE0009CB2A14201D241800B465218716ACF1B9E
:102DF000B3D09CB2A74201D247803B46D219B76AF2
:102E0000791A8AD09CB2A14286D241800B4683E7D0
:102E100051093F4DA9613F4C2178012925D1591E07
:102E200089B202290AD80F21C9018A4206D200219B
:102E3000A971394E31700E2636490EE0191F89B23C
:102E4000042912D81921C9018A420ED23249012619
:102E50000E7030490E70A91D0726304F3E700126B6
:102E60000E70202101702E490E701F46C93F2D495A
:102E7000097801290DD1BDB2224EB54209D2264DA5
:102E80002F262E700125274E357002260670244EFF
:102E9000357025780D4300D0F0BD591E89B2022946
:102EA0000AD80F21C9018A4206D20021184A91711D
:102EB000194A11700E210EE0191F89B20429144B12
:102EC00013D81921C9018A420FD2134901220A706D
:102ED00022709C1D0721114A1170012121702021AF
:102EE0000F4A012313700170F0BDB9B2054A914237
:102EF000D2D209492F220A7001210A4A11700221F7
:102F0000EEE7C046574D000020010020C405002018
:102F1000F00400202E050020B0010020ED04002068
:102F20002D0500202F050020074808498160084929
:102F3000C1604168074A0A40D11C41600168012212
:102F40000A4302607047C046080002404024014026
:102F5000B00500200000FFFF0120400579490A6804
:102F600002430A607047C046F0B58DB06B480168F7
:102F7000012631430160016810220A4302603302D6
:102F8000016819430160016804220A430260016874
:102F900040220A430260B10202680A430260310320
:102FA00002680A43026064210162014620390A680E
:102FB00032430A60F203416A0292114341620C38C3
:102FC0000168314301605648016A3143016201687A
:102FD0003143016000270B970A97099708970797D5
:102FE0000697B0044F490A6802430A600968014025
:102FF0000C910C984C4C019323602020059020608C
:10300000082004902060079606932546283D06A9CF
:1030100003912846FEF7CEFB0A9709970897079673
:103020000598069028460399FEF7C4FB0A9709976E
:10303000089707960498069028460399FEF7BAFB6E
:1030400001982060103C0598206004982060374863
:1030500001460C390A6832430A6081683143816055
:103060000168314301600168B14301603048016883
:1030700031430160416931434161B0070168314327
:1030800001604169314341612A480168314301606F
:10309000416931434161C1683143C160FEF72AFA99
:1030A000FFF742FFFFF7F2F80697534801683143F4
:1030B0000160A44800682049FEF72FF9062141432A
:1030C00006910698002817D00698401E069006988C
:1030D000002811D00698401E0690069800280BD0B4
:1030E0000698401E06900698002805D00698401EB7
:1030F000069006980028E7D1FF2000060F490A68CD
:103100008243F007101808600D48802101600D48C7
:103110000168029A114301600DB0F0BD202C0140FE
:103120000004004014100240280400480C20004015
:103130000048014000100040400D030004E400E09E
:1031400000E100E00004014070B5194B186804214B
:10315000014308208143196002249C6103210A0570
:103160000920C0060568954301221605AD190560C2
:10317000950285621D681543A5431D609A618B0405
:1031800004689C439304E3180360530283628B0337
:1031900004689C439303E31803608023836109045C
:1031A00003688B431104591801601102816270BDDC
:1031B000000400480248016801220A430260704787
:1031C000142C0140401AC1174840401A70470000B3
:1031D00007480068C0000749401801218903814061
:1031E000054A12680A400E30C240D0B27047C0464D
:1031F000AC01002020FFF7FF1C00014002480168DD
:10320000102008407047C0461004004810B582B036
:1032100047490B680120420713604B6853608B6875
:103220009360CB68D3600B6913614B6953618B6901
:103230009361CB69D3610B6A13624B6A53628B6AE9
:103240009362CB6AD3620B6B13634B6B53638B6BD1
:103250009363CB6BD3630B6C13644B6C53648B6CB9
:103260009364CB6CD3640B6D13654B6D53658B6DA1
:103270009365CB6DD3650B6E13664B6E53668B6E89
:103280009366CB6ED3660B6F13674B6F53678B6F71
:103290009367C96FD16727490B68274A13604B684A
:1032A00053608B689360CB68D3600B6913614B6983
:1032B00053618B699361CB69D3610B6A13624B6A6B
:1032C00053628B6A9362CB6AD3620B6B13634B6B53
:1032D00053638B6B9363C96BD16318490A680243CC
:1032E0000A600968014001910198154801680324AA
:1032F000A14301600168214301607D20C1001148A4
:103300000068FEF70AF8401E010E00D0FEE7934960
:103310000D4A50600D4803680B40A1075918016021
:10332000002090600720106062B602B010BDC04659
:1033300000100008801000088000002018100240D3
:1033400000000140A801002010E000E020ED00E0B6
:10335000F0B593B0FEF7AEFE7C4B5868012601969F
:1033600030435860586830400C900C98300799688A
:1033700001439960996801400C910C987448016868
:1033800010220792114301607504186828431860E1
:10339000186828400C900C98B104089118680843EC
:1033A0001860186808400C900C980920C106049118
:1033B000F003886218683043186018681F46304070
:1033C0000C900C98FF200B900004624A1168814316
:1033D000B00508181060B0025F49086010685F4BC4
:1033E0001840B40700191060F0020A900860FEF758
:1033F000EBFCB8683043B860B86830400C900C986B
:10340000172003900994A0625548E06200241194AB
:1034100010940F940E940D940C94386805952843DD
:10342000386038682840129003270D9702970220D1
:1034300006900C9012980CAE049D28463146FEF77B
:10344000B9F910940D9720200C9028463146FEF7CC
:10345000B1F9404948680B9A904348600D467D2079
:103460004001014660313C4B1960019E3102374FEB
:10347000BA680A43BA60BA680A400C920C99394992
:10348000039A8A62C862A868344A1040A860F004AF
:1034900018600A68802002430A60B968079D2943C2
:1034A000B960B96829400C910C990B990902294B14
:1034B0009A688A4302998903511899602649059AA6
:1034C0000A6029492F220A6032234B607968089BE1
:1034D00019437960796819400C910C9923498A62E3
:1034E0001F4ACA620A6882430A60119410940F94BA
:1034F0000E940D940C94B86806990843B860B868A7
:10350000084012901298386818433860386818409C
:1035100012901298119610940F940E940D910C9590
:1035200013480CA9FEF746F90A4A10680B490840EF
:103530000999401810600A98074908600D4804600E
:103540003F21416002F096FB13B0F0BD1410024021
:103550000020024008E400E000E100E0FFFFFF007F
:10356000FFFF0000002000402810004000480140FC
:103570000004004828040040B0B5224CA0687E2812
:1035800019D321480168D0487C2909D84821415ADB
:10359000C9084A2904D8216989087D2900D2B0BD0B
:1035A000817F491C8177C8B2652804D301F0C6FB2E
:1035B00000202061B0BDC24CE07D002809D000256C
:1035C000FFF706FE217E8842E9D06D1CE07D854232
:1035D000F6D3EFF3108072B601F0B0FB0A48016831
:1035E0005022B94B995200210160084881614A225A
:1035F0009A5A521C02624160016801220A43026029
:1036000062B6B0BD88050020240000400C200040B8
:10361000F0B583B0AA4EB16DAA4CB022204601F09D
:103620006BFD607C401E41424141A74FB970A07CB8
:10363000401E41424141F970E07C012801D1012046
:10364000B871E07D042800D30220B071207D401EB7
:10365000414241417170607D401E41424141B17023
:10366000A07D401E41424141F170207E0146083953
:10367000964A984D28291BD818281DD394490091A3
:10368000182130222B4601F037FBF087207E0146BF
:103690000C390B2914D9FC21014008291CD18E4971
:1036A0000091072110228E4B01F026FBF08714E0D9
:1036B0001046F930B08711E001460C390B29EAD8E1
:1036C00000950C211822854B01F016FBF087207E17
:1036D000FC2101400829E2D0F08F85B281481838DA
:1036E0000560657E28463238642807D803212846BD
:1036F000FDF713FE01460A31718701E0552096253A
:103700003087B586E07E3072A07E2825684314306D
:10371000F083207F401E414241413971607F401E4D
:10372000414241417971022002F09AFA6078002802
:1037300000D1A9E0A07F0B2800D9052002F090FA63
:103740000020029038722321615CB1732220019025
:10375000225C654BD21872852522A25CFA32B285B2
:103760002022A25C5200614BD218F2842122A25C7A
:103770005200564812183285E27F521E534253417E
:10378000FB712422A25C521E53425341FB7226223B
:10379000A25C521E534253413B73625D531F142B74
:1037A00000D872732922A25C531E092B00D8B27272
:1037B0002A22A25C531EDBB2082B17D84623F55AE7
:1037C0000921C94351433D39C8B22D18F552F2724F
:1037D0003173617E4A08121832870918B186F18E5A
:1037E0000918F1863F4A1168014311602B20225CC1
:1037F000104646384628029D00D872712C20225C63
:10380000501E622804D80120F8735006000E308440
:103810002D20225C501E092800D872722E20235CB5
:10382000092B0AD8042B0CD83A4623327B441B7947
:103830005B009F44023904063D007D842C4A012030
:1038400010702F20205C401E41424141B972F48B20
:10385000A0084A2800D83574317A2020FDF75DFD94
:1038600005460C212046FDF758FD2946FDF755FD7C
:103870004421705264212046FDF74FFD2946FDF793
:103880004CFD4221705200E0F48B4B208100084631
:10389000C83000901048C21C0D48431C204601F05F
:1038A0002BFA308603B0F0BD012001997854C5E7AA
:1038B0000F4805700F48012101703A462232BEE7D9
:1038C000C0000020C50600200C050020D606000020
:1038D000E7030000CF070000B50B00009E0F0000BB
:1038E0006D170000442C01405E050000EE02000050
:1038F000910400209004002000B591B0FFF786FCF1
:103900007F2046013068E449884211D17068E3495C
:1039100088420DD1307B1F2807D02B2803D03528B3
:1039200006D1DF4802E0DF4800E0DF48DF49886574
:10393000FFF70EFDFFF718FBFFF76AFEDC4CE1789E
:103940000220059041402079C2B2102042400A4333
:1039500030D020710220E070601DD6A10C22FDF74E
:10396000C5FBD248017861708179E175D4498A78C4
:10397000521E534253416374CA78521E53425341FC
:10398000A3748979491E4A424A41E2744178491E2A
:103990004A424A4122758178491E4A424A4162752B
:1039A000C178491E4A424A41A275826DB021204623
:1039B00001F048FCBD4AD08F9087C1488078401EF6
:1039C000411E884150765078002802D10020BC4921
:1039D0008871BB48007BBB49002814D00846BE3024
:1039E000462150520020B64B98710121D9701174B4
:1039F00050805070108F32301087508F3230508787
:103A0000908E3230908601F0E7FA42200024049034
:103A1000AB4D2C52FEF7C2F9AB48AC49016001F046
:103A200095FB2878002802D00120A54988731F360D
:103A3000A748016831400160A14A51670068010F41
:103A400001D11921CC4301210E9127215454000C9E
:103A5000906702F0E7F8FF20099068300F907D2012
:103A600081000891C1000C910001109008E0994874
:103A7000076047608760FEF755FC602090490F5251
:103A80008A4E914891490160934AD08B918B0818D6
:103A9000118C4018518C4018918C4018D18C4018D2
:103AA000001D40085061B078002808D0F06DF18FFB
:103AB00000914B086021C82201F01EF9B0874C220A
:103AC0007F48805A854988420BD320217C4B595C22
:103AD000002901D000F0D6FC8149884201D300F0D2
:103AE000F5FC0D927648808E7E4988427E4F3DD30C
:103AF000362073490C5E2046FDF7EBFB7B49FDF752
:103B000072FB0146744E3068FDF714FB3060784854
:103B10000078032814D0022809D0012823D12820B6
:103B20006749085C0F9908189930022117E0A0B284
:103B3000C0B229214143C80A03214A0280180EE07D
:103B40005A205F49085A6B494143090C401A400802
:103B500040180009C0B25B490818D6300121644AF8
:103B60001170654908800020554988865A480569C2
:103B700001210023642D0A4600D81A465048808F40
:103B800080B2C82800D31946434243410C9EB54237
:103B90000E9E00D81E46002E01D10A4002D0002100
:103BA000474AD176464989790029404E04D09F285A
:103BB00002D80021424AD1764149497C3C4600293D
:103BC00007D00F992931884209D200203C49C87694
:103BD00005E0952801D8642000E00A2070743E4F6B
:103BE000786903210B91FDF7B7FBB8600B2D2746D1
:103BF00037D301463248407D002832D0364CA06988
:103C0000FFF7E0FAA168109A914225D24A08904243
:103C100022D90020304A1061294B1A7C521C1A7498
:103C2000F26D0C9B9A4200D901204422244B9A5AEF
:103C300092B22F2A0E9A00D8B7E2DB78002B00D080
:103C4000B8E2012A02D100201D4A107701207075C8
:103C5000B08E40081A4A10871F4881610020184919
:103C60004875F26D1648437E384608380168234C83
:103C70002140002B46D0472A44D3016038681F49B1
:103C800008401F49081824383860381F0168402050
:103C90000843BF2141E0C046DAE32559D963B84E55
:103CA00000F8000800F80108007C0008C0000020AF
:103CB000C506002043425445434820463035310074
:103CC0000C0500202A03000000300040AAAA0000D2
:103CD00000580140342C01408805002011270000C5
:103CE000419C0000214E000010E400E00000B443BD
:103CF00095040020AF47000096040020FFFFFF005E
:103D000024000040D84A5118243901603868D74946
:103D100008403860381F006809998843391F0860D7
:103D2000D348C07D002813D0D2480068FDF7DCFAE4
:103D300003465A20CE4D295A2820285C6022AC5ACE
:103D4000EA8E009400F0FEFB01F0B0FB0020E87565
:103D5000C749887D401C8875C0B2C9287ED3FDF74D
:103D6000B5FBC54908884989091A6222C04DAA5A7B
:103D7000121A50205043FDF7EFFA1E306427E85323
:103D8000BE4A1168BE4B1940091D116028216854B4
:103D90005A26A85B072444436620285AB949484359
:103DA000B949FDF7BAFAB949498E48433946FDF792
:103DB000B4FA0019C0080A90A853AA7E5300B44C64
:103DC000E05A4E21695AE152521CD3B20026632BAD
:103DD000334600D81346A64DAB76A64CE268101ABF
:103DE0004018E0603946FDF798FAE88780B26060D5
:103DF000A4494843A749FDF790FA010400D530468D
:103E00009B49C886C87A0028A04E24D09848807C58
:103E1000B18D41430A9880B2814219D99449488EA4
:103E2000401C4886497F9C4A51439C4A891880B26D
:103E3000814210DA442000248D4D2C52FEF772FA94
:103E400000F07CFF04982C5220202C542C7702E0A8
:103E500000208749488600208549887500278448C6
:103E60008777407F002846D044248148005B312872
:103E700000D2DFE220217E4A515C002900D1D9E244
:103E800088280B9400D919E17948407A00280FD08E
:103E9000834A106801218843106000F04FFF00241E
:103EA0008048046044608460FEF770FA7048447291
:103EB00056216F480F46415A5425445B5222835A7B
:103EC0001046727E002A00D1EEE14A1E11B200298E
:103ED0000F9900D411460A91621E14B2002C0F995A
:103EE00000D411462C465B1E1AB2002A0F9A00D548
:103EF000F6E11A46F4E15F4841696B48FDF72CFA98
:103F00005B4A117F41436020115288B267494843A0
:103F1000C00C68215052317C002910990BD04621E9
:103F2000735A4421725A0499715A4824345B00949C
:103F300000F0E2FE01464024315328204C49085C41
:103F4000727990420AD94821715A012300934B0893
:103F500011460A390A3200F0CFFE30534548006955
:103F6000632808D8F16D0898814204D90C203229C1
:103F700005990DD20DE03F4880680C210091642125
:103F80000323089A00F0B8FEF16D3229059900D399
:103F90000146F1754820364D285A172100916421B9
:103FA0000D23109A00F0A8FE262168542E480068C0
:103FB0003F49884200D264E52D48007F012800D0A7
:103FC0005FE50A942A4DE87E401CE87600F0B6FED4
:103FD0000120079070754420285A2F2804D83548AE
:103FE000F0650020224908770024224F3C611E4BD7
:103FF000186850211E4D68520D941C60F16D0B9A8B
:104000004A4380B2101801092B4A11400A9AA9525A
:10401000C208511A4A22A9528008F06588B239694B
:10402000052914D219681E490862707F717E012922
:1040300000D0C4E0401C7077C1B207290D9D079CD9
:1040400003D30B484475747720462040C3E01968B9
:104050008142E8D219688142E5D219688142E2D2F0
:1040600019688142F3D3DEE724000040FFFFFF0020
:104070000C05002088050020B8F7FF1F0824014028
:10408000E8FFFF7FE40C0000FF0F0000C0000020ED
:104090000E080020010400007CFCFFFF204E000001
:1040A0000C200040342C0140C0270900CDCC00007A
:1040B000C9AF000088130000FEFF00000125F04991
:1040C0004D7256200A90085A542207928A5A522357
:1040D0000693C95A737E002B0395029700D169E1BC
:1040E000431E18B200280F9800D41846531E1AB267
:1040F000002A0F9A00D41A464B1E19B200290F99B4
:1041000000D41946EF4D0A9BE85207982A520698A8
:1041100029520D9FF05B09B24900EB4A515E4118EC
:10412000F08F4843109C2146FDF716F9717A4843F9
:104130000A210191FDF710F980B201F07FFDF05BDB
:104140000799695E4900E04A515E4118F08F484383
:104150002146FDF701F9717A4843019C2146FDF79C
:10416000FBF880B201F070FDF05B0A99695E4900CE
:10417000F14A515E4118F08F48431099FDF7ECF871
:10418000717A48432146FDF7E7F880B201F062FDFD
:104190000B98285AC82858D94A2150207052DC4917
:1041A000069D029F4F53039C54E00246DB78002B90
:1041B00000D146E50246012A00D144E546E5411E0C
:1041C000717708060D9D079C03D1D14844750621DF
:1041D0007177204688433076EFF3108072B6CC4872
:1041E000007E002802D1707FFEF74EF962B6FEF71E
:1041F00011F9CF488068C849884200D97475C44C09
:10420000A584E577CA4A1069411C1161707F40009E
:104210008218F06D5083227B531E9A416379002BE4
:104220000E9B00D11346012B07D1142900D228E49C
:104230001099491C884204D323E4C149884200D91B
:104240001FE47575FEF788FE1BE44A20305A039C74
:10425000069D029FFEF722FDAD48405B002800D07E
:104260000FE4AB4B9C83AD48F0657475B04A906128
:104270009060AC4908601F761420106158790028BE
:1042800002D0708FA2490887B07D717E012900D0CD
:10429000A6E0401C7077C1B2072903D39C4844753F
:1042A000747720462040A5E0029303904E1C30B264
:1042B00000220F998842104600DC30460A90661CA6
:1042C00034B20F9B9C42114600DC31462C460298CA
:1042D000431C1EB20F98864200DC1A468B4E039890
:1042E0008B4D0A9B0797EB53069429532A520D9C3A
:1042F000305B11B24900904A515E4118F08F48433B
:104300001099FDF729F8717A48430A252946FDF7E7
:1043100023F880B201F092FC305B27467C4A069974
:10432000515E4900844A515E4118F08F4843109C09
:104330002146FDF711F8717A48432946FDF70CF83C
:1043400080B201F081FCF05B0799714A515E49002F
:10435000794A515E4118F08F48432146FCF7FCFF33
:10436000717A48432946FCF7F7FF80B201F072FCEE
:10437000347A68482146FCF7D0FF07466F4821464B
:10438000FCF7CBFF03460B986149085A0097302190
:10439000782200F0B1FC4A24305380B2FEF77EFC54
:1043A000315B0F98F130FCF7B8FF6021584A50524A
:1043B000FFF767FB431C18B20F9CA042384600DC95
:1043C0001846531C1AB20F9CA2423A4600DC1A4609
:1043D0004B1C19B20F9CA142394600DC91E691E6D4
:1043E000411E7177080603D149484475062171774B
:1043F000204688433076EFF3108072B64448007E42
:10440000002802D1707FFEF73FF862B6FEF702F88F
:10441000474880684049884200D974753C48878481
:10442000707F400042494018F16D4183FEF7C2FEA3
:10443000FFF727FB0126364846720079002801D194
:10444000FFF715FB314AD48F907A400020181338BB
:1044500048212F4D685281B2908F48432146FCF786
:104460005CFF201A401C5E24285300F013FE285BDA
:104470002D490860486088602E76FFF7FEFAC04636
:104480000C050020FDF74EFF44200021204A115268
:10449000049811521184244801604160816000F049
:1044A00097FE012001022348FCF739FEBFF34F8F2E
:1044B0001B481E490860BFF34F8F00BF00BF00BFFD
:1044C00000BFFAE70C050020BA010020FDF72AFF23
:1044D000442000210E4A11520498115211841248AE
:1044E00001604160816000F073FE0120010211480B
:1044F000FCF715FEBFF34F8F09480C490860BFF366
:104500004F8F00BF00BF00BF00BFFAE7C000002010
:104510000C0500202A030000A40600002823000048
:104520000400FA0524000040342C01400CED00E0AA
:1045300088050020C4050020BA010020581B000097
:1045400013050000F0B583B0EF4C089D2572A371F0
:104550002271A170207002952D0A0195E5710093DA
:104560001B0A6371170AE7700E0A6670440007257C
:1045700040B2002800D571E1600064B2002C00D583
:1045800072E1440040B2002800D573E1600064B2DB
:10459000002C00D574E1440040B2002800D575E13C
:1045A000600064B2002C00D576E1440040B20028DF
:1045B00000D577E1600064B2002C00D568407040FF
:1045C000440040B2002800D573E1600064B2002CC2
:1045D00000D574E1440040B2002800D575E16000C8
:1045E00064B2002C00D576E1440040B2002800D52A
:1045F00077E1600064B2002C00D578E1440040B25D
:10460000002800D579E1600064B2002C00D5684034
:104610004840410040B2002800D577E1480049B247
:10462000002900D578E1410040B2002800D579E1A9
:10463000480049B2002900D57AE1410040B2002883
:1046400000D57BE1480049B2002900D57CE141005A
:1046500040B2002800D57DE1480049B2002900D5CC
:1046600068404740780079B2002900D579E14100DF
:1046700040B2002800D57AE1480049B2002900D5AF
:104680007BE1410040B2002800D57CE1480049B2FE
:10469000002900D57DE1410040B2002800D57EE12F
:1046A000480049B2002900D57FE1410040B200280E
:1046B00000D569404A40500051B2002900D57BE145
:1046C000410040B2002800D57CE1480049B20029F1
:1046D00000D57DE1410040B2002800D57EE14800D0
:1046E00049B2002900D57FE1410040B2002800D541
:1046F00080E1480049B2002900D581E1410040B283
:10470000002800D569404B40580059B2002900D517
:104710007DE1410040B2002800D57EE1480049B269
:10472000002900D57FE1410040B2002800D580E19A
:10473000480049B2002900D581E1410040B200287B
:1047400000D582E1480049B2002900D583E141004B
:1047500040B2002800D56940009A4A40500051B24A
:10476000002900D57EE1410040B2002800D57FE15C
:10477000480049B2002900D580E1410040B200283C
:1047800000D581E1480049B2002900D582E141000D
:1047900040B2002800D583E1480049B2002900D585
:1047A00084E1410040B2002800D56940019A4A40A6
:1047B000500051B2002900D57FE1410040B20028ED
:1047C00000D580E1480049B2002900D581E14100CF
:1047D00040B2002800D582E1480049B2002900D546
:1047E00083E1410040B2002800D584E1480049B28D
:1047F000002900D585E1410040B2002800D569407C
:10480000029A4A40500051B2002900D580E141008F
:1048100040B2002800D581E1480049B2002900D506
:1048200082E1410040B2002800D583E1480049B24E
:10483000002900D584E1410040B2002800D585E17F
:10484000480049B2002900D586E1410040B2002865
:1048500000D587E1C648417203B0F0BD6C406000EE
:1048600064B2002C00D48CE66840440040B20028BA
:1048700000D48BE66C40600064B2002C00D48AE661
:104880006840440040B2002800D489E66C406000D3
:1048900064B2002C00D488E66840440040B200288E
:1048A00000D487E66C40600064B2002C00D585E639
:1048B00085E66C40600064B2002C00D48AE6684053
:1048C000440040B2002800D489E66C40600064B225
:1048D000002C00D488E66840440040B2002800D490
:1048E00087E66C40600064B2002C00D486E6684025
:1048F000440040B2002800D485E66C40600064B2F9
:10490000002C00D583E683E6B60500206940480008
:1049100049B2002900D486E66840410040B2002830
:1049200000D485E66940480049B2002900D484E6F5
:104930006840410040B2002800D483E66940480046
:1049400049B2002900D482E66840410040B2002804
:1049500000D481E66940480049B2002900D57FE6CD
:104960007FE66840410040B2002800D484E66940F8
:10497000480049B2002900D483E66840410040B2B3
:10498000002800D482E66940480049B2002900D4DA
:1049900081E66840410040B2002800D480E66940CA
:1049A000480049B2002900D47FE66840410040B287
:1049B000002800D57DE67DE66840410040B2002831
:1049C00000D482E66940480049B2002900D481E65B
:1049D0006840410040B2002800D480E669404800A9
:1049E00049B2002900D47FE66840410040B2002867
:1049F00000D47EE66940480049B2002900D47DE633
:104A00006840410040B2002800D57BE67BE6684064
:104A1000410040B2002800D480E66940480049B215
:104A2000002900D47FE66840410040B2002800D44D
:104A30007EE66940480049B2002900D47DE668401E
:104A4000410040B2002800D47CE66940480049B2E9
:104A5000002900D47BE66840410040B2002800D520
:104A600079E679E66840410040B2002800D47FE64C
:104A70006940480049B2002900D47EE66840410000
:104A800040B2002800D47DE66940480049B20029C0
:104A900000D47CE66840410040B2002800D47BE6A8
:104AA0006940480049B2002900D47AE668404100D4
:104AB00040B2002800D578E678E66840410040B270
:104AC000002800D47EE66940480049B2002900D49D
:104AD0007DE66840410040B2002800D47CE6694091
:104AE000480049B2002900D47BE66840410040B24A
:104AF000002800D47AE66940480049B2002900D471
:104B000079E66840410040B2002800D577E677E6B4
:104B10006840410040B2002800D47DE6694048006A
:104B200049B2002900D47CE66840410040B2002828
:104B300000D47BE66940480049B2002900D47AE6F7
:104B40006840410040B2002800D479E6694048003E
:104B500049B2002900D478E66840410040B20028FC
:104B600000D477E669400248417203B0F0BDC04608
:104B7000B6050020F0B583B05949CE88002E02D08A
:104B80000020C88024E057490978002900D1564800
:104B9000C10B0DD1810B0DD1410B0DD1010B0DD1ED
:104BA000C10A0DD1810A0DD1410A4A1E91410AE084
:104BB000072108E0062106E0052104E0042102E0C7
:104BC000032100E00221464A1161C8404E0206431B
:104BD000464800788000019045490B1840275F60E7
:104BE000310A4448405C009084003846A0439860F5
:104BF0003509694071400F2402948C433101091931
:104C0000374A51610099CA003A404240DA60C8030D
:104C100002990D4037494D5DA90201433548005DB9
:104C20000090029C2640334CA45D0294660106432A
:104C300034460C432A488461C80A38405040186101
:104C40008A0A3A4042405A61480A384050409861C6
:104C5000A90039404140D961E80038404840186215
:104C6000A109394041405962600938404840986282
:104C7000210939404140D962029A900038404840A9
:104C80001863D1003940414059633F20C04301407F
:104C900072083A404A409A6371003E405640DE63D3
:104CA0003940714019640022114C019D6251009CF1
:104CB000A2003A404A405A64E100394051409964A8
:104CC00022013A404A40DA640240600138405040D4
:104CD0001865E107490E4140596503B0F0BDC04673
:104CE0009004002028050020FFFF0000ED040020B4
:104CF000780700200265000870B5049D884214DD25
:104D00002C462546904214DAAB4215D01646EA18D6
:104D100054107218521091420CD09042F1DD511C87
:104D2000884223463246EBDC01E016461C46B04280
:104D300000DB2C46204670BD184670BD01204005A2
:104D400002490A6882430A604861704700040140D2
:104D5000F0B581B0BE4DBF486860EFF3108072B609
:104D6000BD480078E860286168617924984E994FC1
:104D70003760A41E14212046FCF7CFFAC0B2FDF71D
:104D800083FB60080A3028600A20FDF797FF022C99
:104D9000EED8FDF7C7FA00202860B0490880B04877
:104DA0000088686062B601B0F0BDC046F0B581B061
:104DB0000320FDF769FB00263225009603E0761CF0
:104DC000AD1CAE2D47D2834881490860A3480099A5
:104DD0000180284840198778FF2FF0D0C07800283C
:104DE0002CD00A219A4A1160F72141437D204001CD
:104DF00009182148FCF791FA044620482146FCF79F
:104E00008CFA934948609449097848439149FCF7E2
:104E100084FA8F49C86008614861F0B2FE214143BD
:104E2000CE1917482146FCF778FA70436421FCF745
:104E300074FA80B2FDF742FF0026C1E700248448DF
:104E4000C46004614461F0B2FE214143C819FDF71A
:104E500035FF2646B4E7FDF765FA00207C4A10606E
:104E60007F49098851607D4908805A48584908603F
:104E700001B0F0BDC506002080969800003E4900B4
:104E8000A0860100B0B5724D724868602820286085
:104E900071480078E860286168610220FDF7F4FA43
:104EA00096242046FDF70AFF49484A4901605020F0
:104EB00028602046FDF702FFFDF734FA0020286045
:104EC00066490880664800886860B0BDB0B5604D2E
:104ED00060486860322028605F480078E860286198
:104EE00068610220FDF7D0FA96242046FDF7E6FE21
:104EF0003748384901601E2028602046FDF7DEFE55
:104F0000FDF710FA002028605449088054480088B2
:104F10006860B0BDB0B5EFF3108072B64C4D4D482F
:104F200068602B482B490160502028604A4800786F
:104F3000E860286168610320FDF7A6FA6424204632
:104F4000FDF7BCFE462028602046FDF7B7FE28206E
:104F500028602046FDF7B2FEFDF7E4F90020286046
:104F60003E4908803E480088686062B6B0BDC046D1
:104F7000F0B581B0364D37486860EFF3108072B6F7
:104F8000134E144F37603C20286033480078E860A7
:104F9000286168610120FDF777FA4B242046FDF770
:104FA0008DFE502028602046FDF788FE5A2028609C
:104FB00037602046FDF782FEFDF7B4F90020286037
:104FC0002649088026480088686062B601B0F0BDB6
:104FD00000300040AAAA0000B0B5EFF3108072B60E
:104FE0001A4800683021405C194DFF2802D0FFF7B5
:104FF000DDFE25E01748686017480078E860286102
:1050000068610320FDF740FA37202860C824204655
:10501000FDF754FE0520FDF737FA282028602046CA
:10502000FDF74CFE0620FDF72FFA192028602046D8
:10503000FDF744FEFDF776F908480021018029605C
:1050400007480088686062B6B0BDC04618010020FD
:10505000282C0140CF070000C00500205805002083
:10506000FE00002010B5764C6078022808D0012898
:1050700003D1FDF745FB0020607000F03DFA10BD44
:105080000348808AFFF776FD0020607010BDC0469F
:1050900088050020B0B503210A050920C006036871
:1050A0009343012214051B190360930283628B044E
:1050B00004689C439304E3180360530283620B0467
:1050C00004689C431304E318036013028362094BD2
:1050D0001C68082525430424A5431D601C6802257F
:1050E000254395431D60890303688B43D1035918F9
:1050F0000160B0BD00040048F0B5012A23DB0323A2
:105100001340042A01D200240FE00F4C2240002457
:105110000D5D055505190E1977786F70B778AF706A
:10512000F678EE70241DA242F2D1002B0BD0625C07
:105130000255012B07D0621C555C8554022B02D00E
:10514000A21C515C8154F0BDFCFFFF7FB0B5D0487C
:105150000168022211430160016891430160CD485A
:105160000146083941220A600A2101601349097881
:1051700081601349C16002460C3A136801210B4358
:10518000136000224260C54B0E4CDC6004461434B0
:105190009C600D4C24785C600C4C1C604B020446F7
:1051A000143C25681D43256003680B430360BD4B19
:1051B0001A70203802680A430260B0BDB0010020B6
:1051C000FFFF0000C4050020200100208B09000023
:1051D00002480021416001607047C046240400403D
:1051E00010B515490A78154842708A79C275144A73
:1051F00093785B1E5C425C414474D3785B1E5C42D6
:105200005C4184749279521E53425341C3744A786C
:10521000521E5342534103758A78521E53425341E2
:105220004375CA78521E5342534183758A6DB0212B
:1052300000F008F810BDC046C0000020C5060020E0
:105240000C050020F0B503AF8BB06E46F41D193489
:1052500015467161B061C80F0B1801221946F26042
:105260009143C91D072291436A46501A5910854639
:10527000F0613161FBF753FF706902285ADBB269B4
:1052800035607460032031690840B060481E03280F
:1052900001D2002123E048005D49014071610023F3
:1052A0001946D25CB069C01844782402A218F56986
:1052B000EA528278C4782402A218EC18628002793B
:1052C00045792D02AA18A2808279C079000280183F
:1052D000E080B2690833091D70699842E1D1B36872
:1052E000002B7468356825D04900B069405CB2690C
:1052F0005218527812021018F26971615052012B43
:1053000018D07069801CB1690A5CB1690B185B78B0
:105310001B029A18F3691A52B169B068022809D0C1
:105320000A467069001D095C121852781202511861
:10533000F26911523069A06036480168C90708D087
:105340000168C90705D00168C90702D00168C9070B
:10535000F3D14168090606D52F490A680346083B80
:105360001A6049681960A905F3681DD142680221D5
:105370000A434260856042684023134343600268E9
:10538000D20708D00268D20705D00268D20702D03F
:105390000268D207F3D10268920601D5202202608A
:1053A00042688A434260F3680021616007E0416817
:1053B000994341606168891C61602168491C2160D2
:1053C0002168A26891421AD241681943416021685C
:1053D0004900F269515A626851530168C90708D0FF
:1053E0000168C90705D00168C90702D00168C9076B
:1053F000F3D101688906DAD520210160D7E7416839
:1054000080220A434260FE1F053EB546F0BDC046FD
:10541000F8FFFF7F0C20024028010020B0B51C4897
:10542000016802221143016001689143016019483B
:105430000146083960220A60032101601649097893
:1054400081603D21C16002460C3A136801210B4383
:105450001360124B124ADA60024614329A60114A03
:10546000547817345C60104C1C604B020446143CAA
:1054700025681D43256003680B430360CB03446A22
:105480001C4344621170203802680A430260B0BDB8
:105490001010024020040040F604002044000240A6
:1054A00078070020EC0400209B090000B0B50E48EE
:1054B000036808210B430422934303600B4B5C6891
:1054C0000B4D25400B4C24782C195C60846880259A
:1054D000254385601C68012525431D60036813432F
:1054E0008B430360B0BDC046003801401C00024041
:1054F0000000FFFFB8010020F0B585B0F94EF0784C
:10550000002806D02225705D002805D04620305A9C
:105510002DE14620305A9AE146200390305A7D22F0
:10552000D400F149897B4B0004941919377B01247D
:10553000002F18D0814200D38AE0EB4A527EB77820
:10554000BA4274D102940124019434760027B787BB
:10555000747B002C00D1AEE03776019B9A1AE24BA7
:105560005A76029C66E081422ED2DF4B5F7EB37892
:105570009F4200D09AE00195707F431E98414823D6
:10558000F35A9BB2C82B0294234600D30346D64D50
:105590002C8EED6DA54200D80346012B039D00D053
:1055A000A8E0D248002404610120CF493A460F46C2
:1055B0004875801A4876FFF7C1FBF474705BB97BBD
:1055C0004900049A891897E0049FFA1A824200D889
:1055D000A5E00294B7780123D91BC34C647EA14295
:1055E00066D10195707F411E88414821715A89B268
:1055F000C829029900D30146BB4D2C8EED6DA54202
:1056000000D801460129039D00D08FE0B6483946F5
:10561000074641764375B54800240461FFF78EFBC9
:10562000F474705BB97B4900049F7A1A81E0327E82
:10563000002A0DD100227273AD4A00922F3A2F2317
:10564000FFF75AFBB0870398305AA749897B4B0074
:105650000499CA1A824237D902940195B178012778
:105660007C1AA14D6D7EAC420BD137760027B787EF
:10567000747B002C25D037769B4B5976019D029C7C
:1056800004E0317E0029019D029C1CD10021717330
:105690002F230093964BFFF72FFBB0870398305AC8
:1056A0009149897B4B000499CA1A0DE0039F26E0BB
:1056B000029C049F3FE0029C0499CA1A8242CBD804
:1056C00002E0019D029C04995918814203D30021F4
:1056D000824203D903E00121824200D80C46002C0B
:1056E00042D10021B187327E002A3DD0012272735F
:1056F000317639E0D00070532F46019D029C7C4AE0
:1057000000922F3A2F23FFF7F7FAB087F05B764924
:10571000897B4B00049FFA1A824200D959E7D919B4
:10572000814218D30021824218D918E0049F775390
:105730003846019D029C2F21009100216C4BFFF700
:10574000DBFAB0870398305A6749897B4B00FA1A15
:10575000D9198142E6D20121824200D80C46002CA0
:1057600002D10021F174B187715D002970D07D21D3
:10577000CC0021462F31884230D95B4D697EB2780A
:10578000914225D1288EEF6D0122002387421046D9
:1057900000D818464827F75BBFB2C82F00D31A4677
:1057A0001040727FD2B2531E9A410243012A0CD19B
:1057B0004E480027076101206875401A6876FFF798
:1057C000BDFAF7744620305A02E04621002070529C
:1057D000A97C4200511AA44A8918B1870146303980
:1057E00089B2A1422FD2B1780122531A3E4C657E74
:1057F000AB4223D1208EE56D00238542104600D8B0
:1058000018464825755BADB2C82D00D31A46104026
:10581000727FD2B2531E9A410243012A0BD16176A4
:1058200001206075F34800250561FFF787FAF574DC
:105830004620305A02E0462100207052A17C4200EE
:10584000511A3139B1872F2802D80020F074B0875F
:10585000E64F787CF17E814214D9F878002811D087
:10586000FCF760FDFFF76AFA442000213152662000
:10587000F07601200002E449086120200860082039
:1058800008606AE0B079002806D0B08F1D2824D8BF
:1058900044210022725252E0B07B00285AD0307866
:1058A000002827D0396D7B6DB08F00912F21D04A11
:1058B000FFF722FA0146D048FBF74EFD397A490836
:1058C000FBF74AFD3086B08F2E2813D844200021E4
:1058D0003152CC480160F1663FE01E2821D11E20E4
:1058E0002DE0C0460C050020C000002088050020E7
:1058F000FF070000F46EC14D20462946FBF7BFFCB0
:105900000028204600D12846FBF7EEFC44257053C2
:10591000BB492046FBF7C1FC00281ED13020705344
:105920001BE0797B14224A43824208D9A0210091CE
:105930001E212F23FFF7E0F944217052B08F7A7BAC
:1059400014215143814208D8A94A0092A023FFF7AD
:10595000D3F900E0B08F44217052707F002800D04E
:10596000D3E04425705BB179502422464A432F325C
:10597000824268D82020305C002864D0307F002824
:105980004AD1FCF7CFFC787D002840D1307F002839
:105990003BD1787F797E01290AD1401C7877C1B24A
:1059A000072902D30120707578770121014009E0B1
:1059B000401E7877010603D10120707506207877A4
:1059C000012181433976EFF3108072B6307E0028D2
:1059D00002D1787FFCF758FD62B6FCF71BFD8548C5
:1059E00081688A4A914201D3012179750021B184ED
:1059F000F96D874AFA657A7F864B874818605000B0
:105A00007C4A8018418301203077FDF7A5FA0120F8
:105A10003077B88E3087B179705B3B8F744A00293C
:105A200005D011462F3900912833892103E0114612
:105A30002F3900912F21FFF75FF97087307B002805
:105A400001D100203076705BB1794C432F34844211
:105A500058D9307D052814D878440079400087440F
:105A600012050E080B05C046FFF7FFFFFFF72EFAE1
:105A700007E0FFF76DF904E0FFF77AFA01E0FFF7BE
:105A800001FA002030757878002822D0307F002875
:105A900073D0787F3C214143B88C421810463C3883
:105AA00003B2FF2168318B4201DD5D48101852229C
:105AB000B0520246EF3213B28B4201DD0246793A10
:105AC0005623F2520246773213B28B4210DC104654
:105AD0000FE000207087317F00296CD145490861B3
:105AE000012078753079002860D0FDF72DFB62E049
:105AF000F13854217052B079012801D1012070771A
:105B000000207087307E002801D005B0F0BD705BAA
:105B10002E2812D971791E22CA40758F354909691C
:105B200091420BD2B98E8D4201D271870D46F98E0A
:105B30008D4203D971870D4600E0758F4021795A57
:105B40008D4201D971870D46F17B002905D02E21A8
:105B5000795E8D4201DD8DB275873028D5D3346FE3
:105B600000212046FBF77DFB0028CED12046FBF725
:105B7000BBFB2818708705B0F0BD1E4800210161ED
:105B800001247C75F177307900280CD0B079002899
:105B900000D07EE7B87A4000204940187085FFF7B2
:105BA00079FA347675E7FCF7BDFB72E7307E0028A2
:105BB00001D1FCF7B7FB307E317B0029A3D0002850
:105BC000A1D04620315A7D20C4002046FDF7FAFAC4
:105BD0000019708580B2F98F491E814202DDFFF7FE
:105BE00059FA8FE7FDF7B0FA8CE7C046C0000020F5
:105BF000FF070000880500200087930300E0FF44B2
:105C0000000040423001002018040048A5060000B2
:105C1000102700002400004088130000BC0700008B
:105C20005CFEFFFF0320000203490A688243012053
:105C300000021018086070470C0400480149086011
:105C40007047C046342C0140014908607047C04687
:105C5000382C0140014908607047C0463C2C014087
:105C60000B2800D30B204000014908707047C04644
:105C7000C0050020F0B593B00024119410940F9447
:105C80000E940D940C940B940A9409940894079420
:105C9000069405940120820303920346029046482D
:105CA0004168114341604168114012911299990471
:105CB00002680A43026000680840129012980A9431
:105CC0000993089402200490069040260596032527
:105CD00007953A4805A9FBF76DFD394F38683949F2
:105CE00001401031396028033968814339603868D0
:105CF0002021884338603868B04338603868802194
:105D0000014339602802396881433960A802396843
:105D100081433960FF2000062B490A688243A807A7
:105D200010180860029EF00628490860119410942B
:105D30000E940D940C94E12040020B9008200190E9
:105D40000F90234C2546083D0BA92846FBF7C2FFC0
:105D5000B0022168814321600920C002211F0A6826
:105D600082430A6020682A218843206028683043E3
:105D70002860019D03981030396801400C201029DB
:105D8000024600D02A46134BD3511029294600D091
:105D900001462034CC5178680F4901400F48007803
:105DA00008187860386804990843386038682843D0
:105DB000386013B0F0BDC046141002400004004823
:105DC0001C000240EFBFFFFF18E400E000E100E02C
:105DD00008380140B60500200000FFFFB801002090
:105DE000F0B585B0F34F788F48243853B88E401CF7
:105DF000B886B88D401CB885F88D401CF8852025E4
:105E0000785D00284FD1B87C00284CD12120395C26
:105E1000002948D0B98F002903D0582000213952D9
:105E200041E058217A5A521C7A5292B2FA4B9A4265
:105E300039D34222BA5A1F2A27D304940120785515
:105E4000F648082101617D218900F439016003953C
:105E50000560F87A00281CD05A203D5AB92041002C
:105E60002846FBF75AFAB8746808B92813D30024F7
:105E7000EB4DEC4EFFF74EF86420FCF71FFF2E6051
:105E8000641CB87C8442F5D305E000227A523A546F
:105E900009E0FFF73FF82320385C0028049C039DAD
:105EA00001D100203873F87900280ED05C20395ACF
:105EB000491C3952DC4A12791423534389B28B426C
:105EC00003D2002139520120F875787F002800D0D4
:105ED0009BE10494D44E707D002843D0387F002885
:105EE00040D0FEF72BFFFDF773F9317E00290FD06C
:105EF00000280FD0F87F401CF877B27EC0B29042E5
:105F000013D82420385C00282CD12520385C15E0DB
:105F1000002803D02520385C401C07E0F87F401C97
:105F2000F877B27EC0B290420DD900202522B85435
:105F30002422BA5C002A15D100290AD0F17EC0B211
:105F400088420AD80EE02420385C00280AD1252097
:105F5000385C317FC0B2884204D9242001213954F1
:105F600000F02AFAF88D1528039500D2DDE0002014
:105F70000190F885397FF87B0028029140D00029F4
:105F80003ED03620385E6321C943328C4A43101814
:105F9000A64988620A6C831A0C6B4A6B8D6B5A4354
:105FA000CA630864444363198C6CA34200DB234634
:105FB0006442A34200DC23468B63D218CB6A584369
:105FC0001018CA6C9042039D00DB1046524290426A
:105FD00000DC10464864FBF77CF99549FBF703F9B0
:105FE000FBF782F9F18D091A0AB2308F824200DB89
:105FF000084602B2B18F8A4200DC0146F18502995F
:106000007879002843D0002941D08749488CC96D50
:10601000081A864908658A6E831A8C6DCA6D0D6EE2
:106020005A434A668866444363190C6FA34200DBF7
:1060300023466442A34200DC23460B66D2184B6D14
:10604000584310184A6F904200DB1046524290426B
:1060500000DC1046C866FBF73CF97549FBF7C3F84E
:106060000146386FFBF766F80646724D2946FBF786
:1060700022F9002800D135463D67002628463146E2
:10608000FBF719F90028039D029900D13E67B87B00
:106090000028654E49D0002947D0388E66494969A5
:1060A000081A624C2060A169421AA368E168256958
:1060B00051436161A06143435A19236A9A4200DB4C
:1060C0001A465B429A4200DC1A46226189186268CD
:1060D00050430818616A884200DB084649428842FA
:1060E00000DC0846E061FBF7F4F85149FBF77BF868
:1060F0000146F86EFBF71EF80646504D2946FBF7A1
:10610000DAF8002800D135462846019E3146FBF7D3
:10611000B6F8002800D12E46FE66E74800696328DD
:10612000039DE34E01D800202061F07B00282CD095
:106130007D208000E04B9968814201D8102400E066
:106140000424398F01229629154600D325461B6960
:10615000962B00D32A46D64EF274049D7B5B5C1AC4
:10616000944207DD89187953F16D8142039D23D94B
:10617000012007E0C81A9042039D02DD881A0499A5
:10618000785200203075B079F071785D002818D011
:10619000387F002815D04420385A302811D304986D
:1061A0003D5AB48F284660437D210901FBF7B5F8BD
:1061B000401C21E00C05002000203075785D00288F
:1061C000E6D1387E00280ED0788DB48F60437D21D3
:1061D0000901FBF7A2F8F18F081A401C5E217852E2
:1061E00004997D5A0AE004983D5AB48F28466043CA
:1061F0007D210901FBF791F85E21785210490C606E
:1062000080B28860C8603D8708614C20395A491CBB
:10621000395205B0F0BDC046214E000018040048B8
:1062200000300040AAAA0000C00000203001002079
:1062300000401C46000016438805002000E0FF4493
:106240002C2C014070B54E4800784E4C2178002926
:106250000BD0002809D04D480078002810D0FEF758
:1062600075FF54480221017070BD47490978012922
:106270000CD0002924D1FCF745FDFEF767FF70BD67
:10628000FFF7CCF84B480121017070BD00280CD0FD
:106290003E480078002814D03D480088FEF76AFC8C
:1062A000FCF72EFAFEF752FF70BD3A4D2878012810
:1062B0000AD03948007801280ED0207800281DD057
:1062C00070BDFFF7ABF870BDFCF71AFAFEF73EFFA2
:1062D000314800780128F0D1FCF790FF002803D066
:1062E0002E480321017004E02C4802210170FCF7C4
:1062F000F9FBFEF72BFF20780028E1D128490A8816
:10630000284C2878002816D06079072813D8062A48
:1063100011D3431C637124480568C06F401B656935
:1063200040196061082B06D1C309C008C51AA581B0
:10633000C0181A4B98801D4D2888002805D1637815
:10634000002B02D1501C088070BD00260E80184919
:106350008842B5D36189FCF735FF322801D820780F
:10636000461C2670F0B2332807D3E078002804D109
:10637000FEF7EEFC0120000220802888608170BDBD
:10638000250500202C0500202D050020EC04002010
:106390009C0500202E0500202F0500202001002054
:1063A0004E050020F0040020C40500204805002010
:1063B000DD0500000D050020F0B581B03A48016808
:1063C00050223A4EB15200240460394DEA6D032345
:1063D000534389B259180A09364B13404022B3522D
:1063E000CA08D21A4A23F2528908E96591B2324F9B
:1063F0003A69052A11D2006830480160687F697ED9
:10640000012917D1401C6877C1B2072902D30120A6
:10641000707568770121014016E002688A42EBD26C
:1064200002688A42E8D202688A42E5D202688A4259
:10643000F3D3E1E7401E6877010603D101207075B0
:1064400006206877012181432976EFF3108072B628
:10645000307E002802D1687FFCF716F862B6FBF7A1
:10646000D9FFB8681649884201D301206875B48401
:10647000F4773869411C3961687F4000C219E86DC2
:1064800050837279337BDBB2134305D0142909D3CF
:106490000D49884203D305E00A49884202D86C7549
:1064A000FCF75AFD01B0F0BD240000400C050020AF
:1064B000C0000020FEFF0000880500202C200040C6
:1064C000A506000013050000D107000002E008C87F
:1064D000121F08C1002AFAD170477047002001E05E
:1064E00001C1121F002AFBD170470000000000000C
:1064F0000000010203040607080900000000010271
:106500000304191B12131D1516171A090A0B1E0D69
:106510000E0F000038650008C0000020D003000006
:106520005C1400083068000890040020480800004F
:10653000DC640008000000001814020101011EFFC5
:1065400002010E050A0A2D056401010A0113100C4F
:106550000505010102020201D007CA146419B4182A
:10656000084C046C07DC054A1014DC056E12781226
:10657000C81A2D021008CF07CF07D0071412461AE9
:10658000901A1A64122123102733E803127C24087E
:10659000D430122025204E50C3400923016745AB5B
:1065A00089EFCD720A0213642940293041639001BA
:1065B0003950F123204E4BA086215927110A1A3257
:1065C0005013127A121C340140083AFA8412B412A1
:1065D000B712BA12BD12C112C412C712CA12CD121A
:1065E000D012D312D612D912DC12E012E312E61244
:1065F000E912EC12EF12F212F51AF7341AFD6918CB
:10660000660301060109010B010E011101130116B8
:106610000119011B011E0120012301250128012A66
:10662000012C012F0131013301350138013A013CC0
:10663000013E014001420144014601470149014B2D
:10664000014D014E015001510153015401560157B2
:106650000158015A015B015C015D015E015F01604F
:10666000016101620163021C640165021A66023A5B
:106670006702FA680249182922292A3A64361A62FE
:10668000401A60481A5E501A5C581A5A601A5768C5
:106690001A54701A51781A4E801A4B881A47901A59
:1066A00044981A40A01A3CA81A38B01A33B81A2FC6
:1066B000C01A2AC81A25D01A20D81A1BE01A16E8C0
:1066C0001A11F01A0BF815060103011301FD12FA55
:1066D00012F712F512F212EF12EC12E912E612E3BF
:1066E00012E012DC12D912D612D312D012CD12CA75
:1066F00012C712C412C112BD12BA12B712B412B12B
:1067000012AE12AB12A712A412A1129E129B1298E3
:1067100012951292128F128C128812851282127F99
:10672000127C1279127612731271126E126B126849
:1067300012651262125F125D125A125712551252EE
:10674000124F124D124A1248124512431240123E85
:10675000123C12391237123512331230122E122C0B
:10676000122A12281226122412221221121F121D7E
:10677000121B121A121812171215121412121211D9
:106780001210120E120D120C120B120A120912081C
:10679000120712061A050212041A03021A0202193B
:1067A000D91902011249182922292A3A04361A064F
:1067B000401A08481A0A501A0C581A0E601A116822
:1067C0001A14701A17781A1A801A1D881A21901A2A
:1067D00024981A28A01A2CA81A30B01A35B81A39D9
:1067E000C01A3EC81A43D01A48D81A4DE01A52E8C7
:1067F0001A57F01A5DF8126212651268126B126E67
:106800001271127312761279127C127F1282128523
:106810001288128C128F129212951298129B129E4D
:1068200012A112A412A712AB12AE72B100000000A6
:020000040800F2
:107BE0004342544543484E4F4C4F47595F4630350A
:107BF0003100000000000000000000000000000054
:04000005080010BD22
:00000001FF
