:020000040800F2
:10100000A00C0020D11000086D1D0008F914000884
:1010100000000000000000000000000000000000D0
:10102000000000000000000000000000691E000831
:1010300000000000000000006F1D00086B1E00088B
:10104000E3100008E3100008E3100008E3100008B4
:10105000E3100008E3100008E3100008E51400089E
:10106000E31000080D140008E3100008391400080C
:101070004D120008D51F0008E3100008E310000817
:10108000FD1F00082520000800000000951F000833
:10109000A91F0008D11F0008E3100008E310000892
:1010A000E3100008E3100008E310000841200008E6
:1010B000E310000800000000E31000080348854624
:1010C00000F080F8004800475D3A0008A00C0020BE
:1010D0000448804704480047FEE7FEE7FEE7FEE7D6
:1010E000FEE7FEE7911F0008BD10000803460B4312
:1010F0009B0703D009E008C9121F08C0042AFAD2CE
:1011000003E00B780370401C491C521EF9D2704753
:10111000D2B201E00270401C491EFBD2704700228F
:10112000F6E710B513460A4604461946FFF7F0FFE6
:10113000204610BD70B50446002903D000202022AF
:10114000012310E0002801D00020C043C046C04663
:101150000DE02546D5408D4205D30D469540641BD4
:101160001D46954040191546521E002DF1DC2146C2
:1011700070BD000070B5002504462E46002911D030
:10118000002C01DA01254442002901DA01264942F6
:101190002046FFF7CFFFB54200D04042002D00D0DF
:1011A000494270BD002C02DA0121C90702E0002C7F
:1011B00000DD03490846C046C046214670BD000018
:1011C000FFFFFF7F1CB509480090094801900546C4
:1011D0000126009C05E0E36807CC33430C3C9847AC
:1011E0001034AC42F7D3FFF76DFF00000860000831
:1011F0002860000870B58C180578401C6B075B0FE1
:1012000001D10378401C2A1106D10278401C03E06A
:1012100006780E70401C491C5B1EF9D12B0705D4C3
:101220000023521E0DD40B70491CFAE70378401CB2
:10123000CB1A921C03E01D780D70491C5B1C521EDA
:10124000F9D5A142D8D3002070BD0000B0B5A94C9B
:101250002068800200D4B0BD01204505094800681F
:10126000094909684908884203D9256002F036FA1D
:10127000B0BD01F05FFF054909788842EBD12560D8
:10128000B0BDC0462400004080050020CD000020F5
:1012900005488188054A11804188054A11800088E7
:1012A000044908807047C046A00500205E05002064
:1012B0006205002048050020F0B593B00027119783
:1012C00010970F970E970D970C970B970A97099702
:1012D00008970797069705970497039701214802F7
:1012E0000B46019144494A6802434A604A680240F9
:1012F0001292129858040A6802430A600968014071
:1013000012911298079703260496082002900390E2
:101310000920C40603AD2046294600F01FF90797AF
:1013200004964020009003902046294600F016F9CC
:1013300032480168324A0A400260310302688A4337
:101340000260016820220A4302600168009CA143F8
:101350000160016880220A430260310202688A4308
:10136000019B190251180160B10202688A43990277
:101370001E4651180160234D2868204328602868C4
:10138000029908432860180429680143296007204E
:1013900080051D490A688243D80510180860D807DF
:1013A0000E90119710970F972C46283C0EA92046B7
:1013B00000F0A4F80D970C960B970A97099709A9C6
:1013C000204600F0B5F80420C04329461C390A68BD
:1013D00002400A60294614390A6806231343B343BE
:1013E0000B60243D296801402960286802998843E0
:1013F000286013B0F0BDC04614100240080002403F
:10140000EFBFFFFF282401400827014010B5094C19
:101410002068800703D42068000707D410BD01208E
:101420006060FFF735FF20680007F7D5082060608F
:1014300010BDC04600000240F0B581B00125EC03AC
:10144000214801782148002911D01E490978002936
:101450000DD0290302680A430260002101641F487D
:101460000078002824D003F01FFC022522E0011F91
:101470000A6852040CD5164A1278002A08D0AA032A
:10148000144B1E68022737430826B7431F600260CB
:101490000A68920404D40968214211D029030EE09D
:1014A00029030160016CA943016404F03FFC03E0DF
:1014B00003F03CFD0A4805700748016821430160BC
:1014C00001B0F0BD10050020170500200400024007
:1014D0001A0500202004004010040140E004002010
:1014E0000105002080B50120C0030249086003F017
:1014F00065FB80BD14040140FEE700008268D2074E
:1015000012D1C268094B13404A681A438B681343CF
:10151000CA681A43C26003229207036993430968A9
:10152000194301610020704701207047C73FFFFF4A
:1015300070B58268D2070CD1C268074B134074C9DA
:1015400009681A4322432A4332430A43C2600020F7
:1015500070BD012070BDC0463CC2FEFFF0B584B036
:101560000B68002B49D000250191009010E07F43CB
:101570007F433B460F2159438E435D4335430098DB
:1015800005510199039D6D1C0B681C46EC4035D03C
:101590000122AA401A40F6D00395144654434B68E2
:1015A00026465E43032767430568BD433543056010
:1015B000FE4302935D1E2346012D05D88D685D43D1
:1015C000876837402F4387600D695D43C7683740A0
:1015D0002F43C760029D022D039DD4D1170A05D069
:1015E00024244D690659002FC1D104E020244D69FF
:1015F0000659002FBBD15B43BCE700234A68521E4B
:10160000012A05D8C968594342689A430A4342608F
:10161000002004B0F0BD000080B57D21C900FFF7B7
:1016200089FD401E0349486000208860052008604D
:1016300080BDC04610E000E0B0B504463E4D2868CD
:101640000C2101403D4808290FD12968C90300D465
:101650003B48A96A0F220A40511CFFF76BFD014667
:1016600028688002000F801C484320602968090612
:10167000090F354A515CC840606029684905490F27
:10168000304A515CC840A060B0BDC04610B50028CB
:1016900001D0002010BD284CE16A03200840C0465C
:1016A00078440079400087440130242920680C21C7
:1016B0000140224808290FD12168C90300D42048DD
:1016C000A16A0F220A40511CFFF734FD0146206831
:1016D0008002000F801C4843216822685205520F87
:1016E000184B9A5C0906090F174B595CC840D0404B
:1016F00010BDE06902210140880310BD201F006871
:101700008007C1170D48084010BD20680C2101401A
:101710000A480829ECD12168C90300D40848A16A05
:101720000F220A40511CFFF705FD01462068800288
:10173000000F801C484310BD0410024000127A00C4
:1017400000093D00EE5F0008DE5F00080149086007
:101750007047C0469C010020B0B51F22D30234C997
:101760009C433F239B029D430B782B4323430F2431
:101770002403A2431A4303239B034C688D689C43B4
:1017800014434988034A0A4022432A434264002002
:10179000B0BDC046FF1F0000B0B505680122940728
:1017A000A04205D0234B984202D0234B984217D138
:1017B00070239D434B682B43204DA84214DD204CE1
:1017C000A04206DC1B4CA04216D0204CA04213D0F5
:1017D0002EE01C4CA0420FD01B4CA0420CD027E0A6
:1017E0002B46164DA842EADCA04205D0124CA0427E
:1017F00002D0174CA0421BD103242402A343CC687F
:101800001C4304608B68C3620B888362974BC318C8
:101810000A24E341072B06D814469C40E1231C42CE
:1018200001D0097C01634169114341610020B0BDD1
:101830001C46E6E7002C014000040040FF2B01405D
:10184000FF43014000480140004401400040014086
:1018500000200040F0B584B00123FF2944DC0129B9
:101860007FD0102900D0FBE0016A10239943016268
:10187000016A3023994313695B085C010C431768C4
:10188000516809012143794C06190A24E64145684B
:101890008469072E1ED803970127B740E1263742F7
:1018A00017D00326B602B543536902939769D369EB
:1018B000BF002646704C3C402C43DD002543344697
:1018C000C0239943029B5B08DB010B4391688901AC
:1018D0001943039F456073231B029C433B02234330
:1018E0008361D268826376E001273D02A94274D009
:1018F0003D03A94200D0B3E0016AA94301625B49FC
:1019000045180A21CD41016A43681468029454685D
:10191000019414690394C669072D00D9A3E03C46DD
:10192000AC40E1252C4200D19DE0BC03A343946967
:10193000A4011C43019D446073231B029E43029B30
:101940001B023343C361D268026403221203914332
:10195000474A1032039B1B0313400B4329031943CF
:1019600039E00127F943036A0B40036213690B4016
:10197000046A032102918C431C4316685168214379
:101980003A4BC3180A24E34145688469072B1BD8E6
:1019900003963E469E40E1231E4214D0029B1B024A
:1019A0009D437B02566902969769D6699F432F43F0
:1019B00075003D430C239943029B5B08DB000B43FE
:1019C000916889001943039E456073239C43344307
:1019D0008461D2684263016241E0016AA943016205
:1019E0002449491C13691B020B400321029109027F
:1019F000056A8D431D431168039151680B022B4307
:101A00001A4941180A25E9414668C56907291DD8C0
:101A10008F40E1210F4219D0029C21038E4351696E
:101A200001919169D76900970901114F0F40374320
:101A300000994E013E43A1028B430F49091D019CB1
:101A4000A4020C401C4391688B022343466073211F
:101A50008D4303990D43C561D168C16303620023BF
:101A6000184604B0F0BD1C4664E7C04600D4FEBF73
:101A7000F0DFFFFFFFFDFFFFFCF7FFFF70B584B055
:101A8000024603680120DB0728D11368294C1C405B
:101A90004B682343CC681C430B6923438C691C436C
:101AA000146003231C035568A5438C682C435460C1
:101AB0001B0294689C434B69234393601E4B9A42DC
:101AC0000ED01E4B9A4209D10E4605461446002000
:101AD000FFF7DCFD0246002A28460BD104B070BD9A
:101AE0000E460546144601A8FFF7A6FD039A002AF4
:101AF0002846F3D031680029F0D00120C003B36933
:101B000083420DD150004A081018FFF713FB0C490F
:101B100001400007400F4018E060002004B070BD95
:101B200048088018FFF706FB80B2E060002004B090
:101B300070BDC046F369FFFF00440040003801401B
:101B4000F0FF0000064807490160074901600221D3
:101B500041607D2149018160044901607047C046B0
:101B600000300040CCCC000055550000AAAA00006F
:101B7000F0B59FB000251D951C951B951A951995DC
:101B80001895179516951595149513951295119509
:101B900010950F950E950D950C950B950A95099539
:101BA00008950795069505950124E20203926A4976
:101BB000486810434860486810401E901E9819A954
:101BC0000D740D801C95104631381B901A95634E8C
:101BD0003046FFF7E1FD3068802104910843306012
:101BE000B0685F490140B160B069082101910843C4
:101BF000B06112951395149515951695179518952E
:101C00006020119011AF304621463A46FFF722FE80
:101C10000420C1430091B0690840B061B0690399E4
:101C20000843B06113951295102130463A46FFF7EC
:101C300011FEB0694B490840B061F0690199084351
:101C4000F061139512952102019130463A46FFF753
:101C500001FEF06900990840F061F06903990843BA
:101C6000F06113951295210330463A46FFF7F2FDD5
:101C7000F0693C490840F0617068702188437060E9
:101C80000BA9CD812D200873B068049A9043B060F1
:101C9000109560030F900D950C950B953046FFF74E
:101CA0005BFD274660042C4B1968014319601968D5
:101CB00001401E911E98A004029419680143196006
:101CC000196801401E9102240A9409950895079508
:101CD000069405941E98244805AE3146FFF73EFC55
:101CE0000A94099508950795069405971E4831466C
:101CF000FFF734FC0A940995089507950694049813
:101D000005900920C70638463146FFF727FC0A949C
:101D10000995089507950694029880020590384623
:101D20003146FFF71BFC0A94099508950795069420
:101D300002984002059038463146FFF70FFC0A949E
:101D400009950895079506940198059038463146FF
:101D5000FFF704FC1FB0F0BD14100240002C01403E
:101D6000F8BFFFFFFFFBFFFF00040048704770470C
:101D7000F0B581B0364801680127B9430160354CA0
:101D8000A07CA17B01290AD1401CA074C1B2072903
:101D900003D331480773A7743846384009E0411E21
:101DA000A174080603D12C4807730621A174384694
:101DB00088436073EFF3108072B6274DE87B0028EC
:101DC00002D1A07C00F024FA62B600F001FA2348A8
:101DD00040682349884202D9A772002002E0A17A14
:101DE000484248414A21695A4C22AA5A51184A0885
:101DF000216D5218930852082F27F44EF65D2F4696
:101E0000002E01D01F3700E01C373E785643B6093C
:101E10009B1B4427EB530023EB76AB77A37C5B0043
:101E20000E4FDB19D98222656E87002805D1F8682C
:101E30000C49884207D901B0F0BD01F03DF8F868BF
:101E400008498842F7D8401CF86001B0F0BDC04690
:101E50000C200040C0000020000500207C05002070
:101E6000C40900000F27000070477047B0B545490E
:101E70000A68012002430A600968434D296801434A
:101E800029602968890708D42968890705D4296841
:101E9000890702D429688907F3D52B6880210B4371
:101EA000782293432B606B6B03436B636B6B9B07D5
:101EB00008D46B6B9B0705D46B6B9B0702D46B6BD1
:101EC0009B07F3D56B6B0B4393436B63696A0143C9
:101ED0006962696A890708D4696A890705D4696AE9
:101EE000890702D4696A8907F3D53D2109046A6824
:101EF0008A430521C90451186960E96A0F22914398
:101F0000E96201062A680A432A6041062A680A42F1
:101F100008D12A680A4205D12A680A4202D12A68F1
:101F20000A42F3D06968F0229143696007210902EF
:101F30006A688A436A60696802220A4382436A6067
:101F400069680C20014008290BD069680140082904
:101F500007D069680140082903D069680140082951
:101F6000EED10A4C2046FFF757FB2046FFF7EEFB69
:101F7000686B042188436863286B032188432863C6
:101F8000B0BDC0460020024000100240006CDC02E0
:101F90007047000080B50120C04302490860FFF788
:101FA000E7FE80BD102000400220C04307490A68B8
:101FB000920703D40A68D20704D1704708600A6800
:101FC000D207FAD0401C08607047C046104001405C
:101FD000704700000220C04307490A68920703D4F3
:101FE0000A68D20704D1704708600A68D207FAD09D
:101FF000401C08607047C046102C01400220C043BE
:1020000007490A68920703D40A68D20704D17047C7
:1020100008600A68D207FAD0401C08607047C046C2
:102020001004004080B505480168C90704D00121AB
:10203000C943016003F060FC80BDC0461010004041
:102040007047000081B000200090224802682249B9
:102050000A405218183202600268002A08D5026845
:10206000002A05D50268002A02D50268002AF3D4A6
:1020700001220092009B002B17D0009B5B1E009357
:10208000009B002B11D0009B5B1E0093009B002B3C
:102090000BD0009B5B1E0093009B002B05D0009B88
:1020A0005B1E0093009B002BE7D103680B4013439A
:1020B0000360014608390A68D20708D10A68D207C6
:1020C00005D10A68D20702D10968C907F1D001B069
:1020D0007047C04608240140E8FFFF7F70B5F44B0D
:1020E00018680421014308208143196002249C627E
:1020F00003210A050920C00605689543012216053B
:10210000AD190560950285621D681543A5431D60E4
:102110009A628B0404689C439304E318036053029F
:1021200083628B0304689C439303E318036080235A
:102130008362090403688B4311045918016011027A
:10214000816270BD70B5DB490A7DD94C20680C23D3
:102150009843002A03D008221043206004E00422A0
:10216000104320600220A062032213050920C0064C
:1021700005689D4301235E05AD1905600E7D256848
:102180009543002E03D002263543256002E01D430F
:102190002560A36294040568A543DC042C1904603F
:1021A0000C7D95030168A943002C03D0DC03214377
:1021B000016004E09C0321430160802181621104DD
:1021C00002688A4359045118016070BDE00600207E
:1021D0000C4800680009182801D8002000E0012000
:1021E0008000B8490A6804239A431018086006481A
:1021F00001784A424A415105044A1160007840057D
:102200005060704780050020CD0000200804014088
:10221000F0B5411E052900D948E10920C006C04695
:102220007944097949008F4402B95C8A2FE7032376
:10223000990302688A4301218C03121902608022EB
:1022400082621A04046894430A04A21802600A0213
:102250008262974A15680D430224A5431560916177
:102260009B0405689D438B04EB1803604B0283625B
:10227000904B1D7D13680C26B343002D00D1FBE06D
:10228000082423431360FBE089490A6804231343AD
:10229000082293430B6002238B6203242205056806
:1022A000954301221605AD19056095028562A503C7
:1022B0000668AE4395037519056080258561250480
:1022C0000668AE4315047519056015028562794DDF
:1022D0002E7D0D68A543002E00D1BBE01D430D608F
:1022E000BBE0734A1168012319430224A143116022
:1022F000936203218D040668AE439D047519056041
:102300005D028562156804262E430825AE431660DB
:1023100094610A05046894431A05A21802609A029F
:102320008262644A157D890304688C435904644AB7
:10233000002D00D195E0DB031C430460AFE00321D6
:102340008A030468944301239A03A218026080223E
:1023500082620A04046894431A04A21802601A02F2
:102360008262534C22680425154308229543256058
:102370000225A5610A05066896431A05B21802608F
:102380009A0282624B4A177D26688E43D9044B4AD3
:10239000002F6CD02E432660512381E0444A1168FF
:1023A00004230B4308218B4313600224946203210E
:1023B0000B0505689D4301231E05AD1905609D02AF
:1023C000856215681D43A543156093618A040468FE
:1023D00094439A04A21802605A028262354A157D1B
:1023E000890304688C435904354A002D4CD0DB0323
:1023F0001C430460612353E02D4B1A6801210A43FA
:102400000224A2431A609962032295040668AE432F
:102410008D04751905604D02856295030668AE430B
:102420008D03751905608025856112040568954343
:102430000A04AA1802600A0282621E4A167D1D68FA
:102440000C22954349051C4A002E24D0082425431C
:102450001D6024E015430D608A62D1046123174A90
:102460001EE09B031C4304608023836217E01E432D
:102470002660A362512313E004252B43136094626A
:10248000490551230C4A0BE09B031C430460802345
:102490008362612304E0042635431D609C6241236E
:1024A000046814400C43046006480360F0BDC04655
:1024B00000040048E0060020FFFFCFFFFFFFF3FF0E
:1024C000FFFFFCFF1C000140F0B589B0E048026846
:1024D000C16F891ADF4DA9818BB259096981DE4C20
:1024E0002488A34200D823E1DC4C2488A34200D3F3
:1024F0001EE1DB4B00271F8043689A1A92B2012627
:102500008A42324600D83A462A628268C3689A1ADA
:1025100092B28A42324600D83A466A6202694369F8
:102520009A1A92B28A42324600D83A46AA62826920
:10253000C3699A1A92B28A42324600D83A46079242
:10254000EA62026A436A9A1A92B28A42324600D812
:102550003A4606922A63826AC36A9A1A92B28A42F9
:10256000324600D83A4605926A63026B436B9A1A68
:1025700092B28A42324600D83A460492AA63826BEB
:10258000C36B9A1A92B28A42324600D83A460892EF
:10259000EA63026C436C9A1A92B28A42324600D8BD
:1025A0003A4602922A64826CC36C9A1A92B28A42A8
:1025B000324600D83A4601926A64026D436D9A1A17
:1025C00092B28A42324600D83A460092AA64826D9C
:1025D000C36D9A1A92B28A42324600D83A460392A2
:1025E000EA64026E436E9A1A92B28A42334600D867
:1025F0003B462B65826EC46EA21A92B28A42344662
:1026000000D83C466C65026F456FAA1A92B28A42A6
:10261000324600D83A46B54DAA65856FC06F401B5B
:1026200080B2884200D83E46B048C665016A456A15
:10263000806A069F7940029F7940C900059F7D40CE
:10264000019F7D40AD000D430499484000994840EA
:1026500047000898079948400890D800A10008183A
:1026600051004418A2480078A24B1978C9B201431E
:102670000DD100F075FD9F4B002808D09B490879CB
:10268000401C0871C0B2652801D301201870A01940
:102690003D43089A03994A401978002901D00F2137
:1026A0004840FE210D40A91888423BD18F4C226A38
:1026B000636A27462837E1CFA16B0791E16B089148
:1026C00092025B02134302021A43EB011343B2016D
:1026D0001A437B0113430798010119430898C0006E
:1026E0000843216C636CA26CE66C8D0005435900B5
:1026F000294325460020EB4B1880E3895B1CE381CE
:10270000012E02D17C4B01241C701143AA79002AAE
:1027100015D0022A0ED0012A1ED10220A8712982CA
:1027200009B0F0BD002071498871488A401C488278
:1027300009B0F0BD0320A871E97109B0F0BD3029DE
:1027400015DB6A78002A12D06C4800220270DC483F
:102750000180AA7009B0F0BD032AE9D12529E7D18B
:10276000298AEA79D34B5A54A87109B0F0BD4A1EA0
:102770002E2A06D861480170D14800220280C8B2D2
:102780000EE0002902D05D48007809E0297801298F
:1027900001D10021697059490870C9490880A870A1
:1027A0000028C5D0564909780029C1D15049097877
:1027B0000029BDD0E978884202D00021A970E870D4
:1027C000052805D3A978491CA970C9B20629AFD339
:1027D000294600258D70411E232900D980E0C0467E
:1027E0007944097949008F44114E2F6B6F3D52593E
:1027F00078737B1D42277B7B7B7B7B15607B7B7BA0
:102800007B7B7B7B7B7B7B7B7B7B7B663E49012071
:10281000087065E0A748407C0121081A3949087012
:1028200014205DE002F08AFAA248407C401C364940
:1028300008703248007853E02C494D71072040025F
:10284000FF3008810E204BE02F490320087047E03D
:10285000DC05002080040020F0040020400100205E
:1028600046050020294801210170062038E0012199
:102870001E4B59710720400218811A780D20012A39
:102880002ED159702CE020490220087028E01D4804
:102890000121017087484574072021E0194805701F
:1028A00084480121417408201AE08248407C15497F
:1028B0000870152014E001200C49887124200FE0D5
:1028C0001149042008700BE00F490520087007E04B
:1028D0007848012181740A2002E076488574092035
:1028E00006490D700A49087009B0F0BD8004002047
:1028F00017050020100500200E050020DC06002032
:1029000013050020CE0000200B050020220500202A
:1029100034080020F0B581B05E4E03CE081A5E493F
:1029200041185F4A083E91420ED85E4D00242C802B
:102930005D4B5978002909D0D978002966D199785A
:1029400000292DD018892CE0544D8BE01E465949A2
:10295000897C00290DD059490A887D21CB009042FD
:1029600015D9524C248809010091511C5B1C224648
:1029700011E04E490A88504909887D231B012F33F5
:1029800000932F2301F05EFF312806DA06E04A4962
:1029900009880093002301F055FF0446346161E08B
:1029A0001881491C9970414F398880B200F0BCFBF6
:1029B000332803D33C4B5C70394620E0388807212C
:1029C000414305CE101A4018C0083880364B99781C
:1029D000083E3329394612D3193881B2344A89184E
:1029E000CA0F8918490821221F46324B99540121E8
:1029F000F9702E49088002F017F82C493B460888E8
:102A00001881D87800282DD003CE081A19797D2294
:102A1000D200FA3290420DD2491C1F461971264A43
:102A2000138807265E433018C0081080C8B24C28AF
:102A300004D217E01F46C8B24C2813D31E480188A1
:102A400019318AB2144B9A183332D30FD218520864
:102A50002023184EF2547C70018002F06FF93C7113
:102A600001F0BEFF00202880154802880E49096940
:102A70008C1A144B1B689C4201DDD11806E0541AD5
:102A80009C4203DDD11A018001B0F0BD018001B08C
:102A9000F0BDC046DC050020DFFCFFFF3C05002048
:102AA0007605000046050020E4040020DC0000203C
:102AB0002AF9FFFFE0060020DA000020DE000020F7
:102AC00040050020A801002080B265490A680B6813
:102AD0009B1A9BB298420ED90B689B1A9BB29842E4
:102AE00009D90B689B1A9BB2984204D90B689B1AB0
:102AF0009BB29842EBD8704770B500283DD00325B3
:102B000005407D21C900554A554B002D044632D061
:102B10001C681E68361B16408E420ED21E68361B7D
:102B200016408E4209D21E68361B16408E4204D2D1
:102B30001E68361B16408E42EBD3012D03D1441E76
:102B4000042836D219E01C681E68361B16408E42D7
:102B50000ED21E68361B16408E4209D21E68361BE6
:102B600016408E4204D21E68361B16408E42EBD3AE
:102B7000022D03D1841E04281BD270BD1C681D6861
:102B80002D1B15408D420ED21D682D1B15408D4208
:102B900009D21D682D1B15408D4204D21D682D1BC6
:102BA00015408D42EBD3C41E042802D2E5E7241F52
:102BB000E3D018681D682D1A15408D420ED21D688D
:102BC0002D1A15408D4209D21D682D1A15408D42CF
:102BD00004D21D682D1A15408D42EBD318681D686C
:102BE0002D1A15408D420ED21D682D1A15408D42AA
:102BF00009D21D682D1A15408D4204D21D682D1A68
:102C000015408D42EBD318681D682D1A15408D4272
:102C10000ED21D682D1A15408D4209D21D682D1A3D
:102C200015408D4204D21D682D1A15408D42EBD3FC
:102C300018681D682D1A15408D42B8D21D682D1ACE
:102C400015408D42B3D21D682D1A15408D42AED26B
:102C50001D682D1A15408D42EBD3A8E7F8FF000040
:102C600024480140F0B57F4BC9337F4843807F49FA
:102C70000F6800252A4603E052182835782D77D0B2
:102C80007A494E197168CF1B1BD1B768791A21D1C7
:102C9000F168CF1B27D13769791A2DD17169CF1B04
:102CA00033D1B769791A39D1F169CF1B3FD1376A6E
:102CB000791A45D1716ACF1B4BD1B76A791ADCD02A
:102CC00050E09CB2A74201D247803B46D219B76878
:102CD000791ADDD09CB2A14201D241800B46521834
:102CE000F168CF1BD7D09CB2A74201D247803B46A8
:102CF000D2193769791AD1D09CB2A14201D2418050
:102D00000B4652187169CF1BCBD09CB2A74201D29F
:102D100047803B46D219B769791AC5D09CB2A14207
:102D200001D241800B465218F169CF1BBFD09CB233
:102D3000A74201D247803B46D219376A791AB9D0E7
:102D40009CB2A14201D241800B465218716ACF1B3E
:102D5000B3D09CB2A74201D247803B46D219B76A92
:102D6000791A8AD09CB2A14286D241800B4683E771
:102D700051093F4DA9613F4C2178012925D1591EA8
:102D800089B202290AD80F21C9018A4206D200213C
:102D9000A971394E31700E2636490EE0191F89B2DD
:102DA000042912D81921C9018A420ED232490126BA
:102DB0000E7030490E70A91D0726304F3E70012657
:102DC0000E70202101702E490E701F46C93F2D49FB
:102DD000097801290DD1BDB2224EB54209D2264D46
:102DE0002F262E700125274E357002260670244EA0
:102DF000357025780D4300D0F0BD591E89B20229E7
:102E00000AD80F21C9018A4206D20021184A9171BD
:102E1000194A11700E210EE0191F89B20429144BB2
:102E200013D81921C9018A420FD2134901220A700D
:102E300022709C1D0721114A11700121217020214F
:102E40000F4A012313700170F0BDB9B2054A9142D7
:102E5000D2D209492F220A7001210A4A1170022197
:102E6000EEE7C046574D00003C010020DC05002085
:102E7000E404002019050020A4010020E104002042
:102E8000180500201A0500200748084981600849F4
:102E9000C1604168074A0A40D11C416001680122B3
:102EA0000A4302607047C0460800024040240140C7
:102EB000A00500200000FFFF012040057A490A68B4
:102EC00002430A607047C046F0B58DB06B48016898
:102ED000012631430160016810220A430260330277
:102EE000016819430160016804220A430260016815
:102EF00040220A430260B10202680A4302603103C1
:102F000002680A43026064210162014620390A68AE
:102F100032430A60F203416A0292114341620C3863
:102F20000168314301605648016A3143016201681A
:102F30003143016000270B970A9709970897079775
:102F40000697B0044F490A6802430A6009680140C5
:102F50000C910C984C4C019323602020059020602C
:102F6000082004902060079606932546283D06A970
:102F700003912846FEF7F2FA0A97099708970796F1
:102F80000598069028460399FEF7E8FA0A970997EC
:102F9000089707960498069028460399FEF7DEFAEC
:102FA00001982060103C0598206004982060374804
:102FB00001460C390A6832430A60816831438160F6
:102FC0000168314301600168B14301603048016824
:102FD00031430160416931434161B00701683143C8
:102FE00001604169314341612A4801683143016010
:102FF000416931434161C1683143C160FEF75CF909
:10300000FFF742FFFFF71EF8069754480168314367
:103010000160214800682149FEF78CF806214143F0
:1030200006910698002817D00698401E069006982C
:10303000002811D00698401E0690069800280BD054
:103040000698401E06900698002805D00698401E57
:10305000069006980028E7D1FF20000610490A686C
:103060008243F007101808600E48802101600E4866
:103070000168029A114301600DB0F0BD202C01409F
:103080000004004014100240280400480C200040B6
:1030900000480140001000409C010020400D03004A
:1030A00004E400E000E100E00004014070B5194BC9
:1030B00018680421014308208143196002249C619F
:1030C00003210A050920C00605689543012216055B
:1030D000AD190560950285621D681543A5431D6005
:1030E0009A618B0404689C439304E31803605302C1
:1030F00083628B0304689C439303E318036080237B
:103100008361090403688B4311045918016011029B
:10311000816270BD000400480248016801220A4330
:1031200002607047142C0140401AC1174840401AF1
:103130007047000007480068C00007494018012197
:1031400089038140054A12680A400E30C240D0B25D
:103150007047C046A001002020FFF7FF1C0001407F
:1031600002480168102008407047C046100400481B
:10317000F0B5002934D001220A40012933D10021C1
:103180000D46002A2AD0425C6A405100072052B204
:10319000002A00D5C1E04A0049B2002900D5C2E0AA
:1031A000510052B2002A00D5C3E04A0049B20029BA
:1031B00000D5C4E0510052B2002A00D5C5E04A0053
:1031C00049B2002900D5C6E0510052B2002A00D50C
:1031D000C7E04D0049B2002900D54540E8B2F0BD36
:1031E0000025E8B2F0BDFE230B4000210D4602E0B1
:1031F000891C8B42C5D0465C6E407500072476B2B0
:10320000002E40D46E006DB2002D41D4750076B210
:10321000002E42D46E006DB2002D43D4750076B2FC
:10322000002E44D46E006DB2002D45D4770075B2E7
:10323000002D46D47D007EB2002E00D56540461894
:1032400076786E40750076B2002E40D46E006DB276
:10325000002D41D4750076B2002E42D46E006DB2BE
:10326000002D43D4750076B2002E44D46E006DB2AA
:10327000002D45D4770075B2002D46D47D007EB276
:10328000002EB5D547E065406E006DB2002DBDD56E
:103290006640750076B2002EBCD565406E006DB2FA
:1032A000002DBBD56640750076B2002EBAD56540BC
:1032B0006E006DB2002DB9D56640770075B2002D55
:1032C000B8D567407D007EB2002EB7D4B7E7654021
:1032D0006E006DB2002DBDD56640750076B2002E31
:1032E000BCD565406E006DB2002DBBD56640750043
:1032F00076B2002EBAD565406E006DB2002DB9D5FC
:103300006640770075B2002DB8D567407D007EB26B
:10331000002E00D46CE765406AE741404A0049B29C
:10332000002900D43CE74240510052B2002A00D4A8
:103330003BE741404A0049B2002900D43AE7424005
:10334000510052B2002A00D439E741404A0049B244
:10335000002900D438E74240510052B2002A00D47C
:1033600037E741404D0049B2002900D535E735E740
:1033700010B582B047490B680120420713604B68C3
:1033800053608B689360CB68D3600B6913614B69A2
:1033900053618B699361CB69D3610B6A13624B6A8A
:1033A00053628B6A9362CB6AD3620B6B13634B6B72
:1033B00053638B6B9363CB6BD3630B6C13644B6C5A
:1033C00053648B6C9364CB6CD3640B6D13654B6D42
:1033D00053658B6D9365CB6DD3650B6E13664B6E2A
:1033E00053668B6E9366CB6ED3660B6F13674B6F12
:1033F00053678B6F9367C96FD16727490B68274A5B
:1034000013604B6853608B689360CB68D3600B6923
:1034100013614B6953618B699361CB69D3610B6A0B
:1034200013624B6A53628B6A9362CB6AD3620B6BF3
:1034300013634B6B53638B6B9363C96BD1631849F5
:103440000A6802430A600968014001910198154821
:1034500001680324A14301600168214301607D20CC
:10346000C10011480068FDF765FE401E010E00D046
:10347000FEE793490D4A50600D4803680B40A107D1
:1034800059180160002090600720106062B602B0F9
:1034900010BDC04600100008801000088000002009
:1034A00018100240000001409C01002010E000E0E4
:1034B00020ED00E0F0B593B0FEF7D8FC7C4B5868E7
:1034C0000126019630435860586830400C900C98A3
:1034D0003007996801439960996801400C910C98F4
:1034E000744801681022079211430160750418683E
:1034F00028431860186828400C900C98B104089173
:10350000186808431860186808400C900C98092047
:10351000C1060491F0038862186830431860186887
:103520001F4630400C900C98FF200B900004624A1C
:1035300011688143B00508181060B0025F49086047
:1035400010685F4B1840B40700191060F0020A9031
:103550000860FEF70DFBB8683043B860B8683040CB
:103560000C900C98172003900994A0625548E062D3
:103570000024119410940F940E940D940C943868B8
:1035800005952843386038682840129003270D9726
:103590000297022006900C9012980CAE049D2846CB
:1035A0003146FDF7DBFF10940D9720200C90284644
:1035B0003146FDF7D3FF404948680B9A9043486075
:1035C0000D467D204001014660313C4B1960019E53
:1035D0003102374FBA680A43BA60BA680A400C929F
:1035E0000C993949039A8A62C862A868344A104023
:1035F000A860F00418600A68802002430A60B96875
:10360000079D2943B960B96829400C910C990B9921
:103610000902294B9A688A430299890351189960D3
:103620002649059A0A6029492F220A6032234B60F5
:103630007968089B19437960796819400C910C9955
:1036400023498A621F4ACA620A6882430A60119447
:1036500010940F940E940D940C94B8680699084336
:10366000B860B868084012901298386818433860FB
:103670003868184012901298119610940F940E9476
:103680000D910C9513480CA9FDF768FF0A4A1068C4
:103690000B4908400999401810600A9807490860CA
:1036A0000D4804603F21416002F088F813B0F0BD7E
:1036B000141002400020024008E400E000E100E0B5
:1036C000FFFFFF00FFFF0000002000402810004027
:1036D000004801400004004828040040B0B5CE4C2A
:1036E000207B002809D00025FFF724FD617B88425C
:1036F0001ED06D1C207B8542F6D3EFF3108072B68E
:1037000001F0C2F84C20C7490A5A4A23CA52094A52
:1037100013680B5200201060074A90614423C95A75
:10372000491C11625060106801210143116062B6AA
:10373000B0BDC046240000400C200040F0B583B06E
:10374000B54FF96CB54CC022204601F083FA607881
:10375000022808D80020B249A160E0600121E18080
:10376000A02161712074E07D2A2807D8011FC9B209
:10377000052903D9032806D8C00008E0A94910226A
:103780000A770328F8D90A38C1B2202901D8A549F7
:1037900008774B2080000290207E01460839A24A1B
:1037A000A24EA34D88291BD818281DD30299213178
:1037B000009118219022334601F044F87886207E4B
:1037C00001460C390B2913D9FC21014008291BD1D2
:1037D000009507211022984B01F034F8788614E008
:1037E0001046F930388611E001460C390B29EBD828
:1037F00000960C2118228F4B01F024F87886207E49
:10380000FC2101400829E3D0788E86B28B48183815
:103810000660A0790A26421E0021322A01D30846FA
:1038200000E07043B885A27E28256A431432BA822C
:10383000627E1346323B652B00D30A4681183985D8
:103840000299401864307885022001F0ADFF60785D
:10385000002839D0A07F0B2800D9052001F0A4FF53
:1038600027200021019121542320205C78712220FF
:10387000205C73494018F8832520205CFA30388496
:103880002020205C40006F49401878832120205C74
:10389000400065494018B883605D1A381521C94356
:1038A000884201D8052060552921625C0B3AF0431B
:1038B000824200D866542A22A15C0B460A3BDBB246
:1038C000F62B04D8A65418E0BE8A594D8EE0092282
:1038D000D2434A433D3A3A71D1B23A8D52183A85B1
:1038E000BA8D5218BA857A8F52187A877A8D521803
:1038F0007A85524B1A680A431A602B21625C8D3A12
:103900004723DB439A4201D8FF2262542C21615C99
:10391000491E622902D8434901228A71A17A4A4A82
:10392000637A5B00E57A6D0053609160D5602D216C
:10393000625C0B3A824201D8052060542E20225C42
:10394000092A3B4D0DD8042A12D8364801461A31AF
:103950007A441279520097440502090B560001215E
:1039600002E030480199817641763849012008709B
:1039700060792C49092803D84E77387078700EE0AA
:1039800001224A770A21FDF7D5FB397888420CD20B
:103990003870797888420BD3B97888420CD2B870E5
:1039A000BE8A029886420BD30CE079788842F3D223
:1039B0007870B9788842F2D3BE8A0298864201D2E2
:1039C0000198B871E17E2020FDF7B4FB0446214840
:1039D0007043C00C2146FDF7ADFB3887B0081E4987
:1039E0004143480C2146FDF7A5FBF886029908469D
:1039F000C8300090EA1C7D20C300304600F022FF52
:103A0000B88403B0F0BD1149019A0A70104901222F
:103A10000A7019300146A9E7C0000020E006002026
:103A20000A64006400050020D6060000CF070000ED
:103A3000B50B00009E0F00006D170000442C0140E4
:103A40005E050000EE0200004C0100208104002011
:103A500080040020ABAA00007B14000000B591B0E8
:103A6000FFF786FC7F2045012868F649884211D17E
:103A70006868F54988420DD1287B1F2807D02B287C
:103A800003D0352806D1F14802E0F14800E0F148C2
:103A9000F149C864FFF70EFDFFF716FAFFF74EFE77
:103AA000EE4FFA7802200A9042403879C1B21320D2
:103AB000414011434A1E91417A78D2B20123032A30
:103AC0000E931A4600D30022114301290AD13871FE
:103AD0000220F87003207870DF48C26CC02138469D
:103AE00001F038F9DC4A508E1086787C401E411E69
:103AF00088419073387D002801D10020F874262079
:103B00000190385CD649002811D00120788290714C
:103B10000020B875B8820846BE305087908D32308C
:103B20009085D08D3230D085108D3230108501F0E7
:103B300001F8CC4C0026A687FEF704F8CA48CB490A
:103B4000016001F0B1F82078002801D001206071F7
:103B50001F35C74801682940016021670068010FCF
:103B600001D11921CE4320216654000C606701F079
:103B7000FDFDFF20099068300F907D2081000891A5
:103B8000C1000D9100011090B34E27E00220FEF716
:103B90003FFB387B318E0C9148431099FDF7CAFAF0
:103BA0000A2568432D303E46B24F3860307B0C9F6B
:103BB00078431099FDF7BEFA68432D30AD4948604F
:103BC000307B78431099FDF7B5FA6843A24E2D304B
:103BD000A84988600B9D5C202552A04FA648C0686C
:103BE000052801D30A9800E0042070743074A24ABA
:103BF000508B118B0818918B4018D18B4018118C69
:103C00004018518C4018001D400810619648974993
:103C10000160787D012809D1306D718E00914B08CB
:103C20006021C82200F00EFE3086787D022815D172
:103C30009148406801466539942902D805214143DD
:103C40000BE0411E632902D20F998D3105E0F92165
:103C5000C943FA388842894900D831864620205A1B
:103C60008749884209D3E17D002901D000F0AEFCEC
:103C70008449884201D300F0C6FCE08D8249884225
:103C800033D32D20C100258E2804FDF773FAA16FD0
:103C90004018A0677D480078032812D0022808D079
:103CA000012820D12120205C0F9908189930022189
:103CB00015E0E8B229214143C80A03214A028018CD
:103CC0000DE05620205A72494143090C401A400821
:103CD00040180009C0B262490818D63001216B4A69
:103CE00011706C4908800020E0856348C568012197
:103CF0000023642D0A4600D81A46E08E80B2C828F8
:103D000000D31946434243410D9EB5420E9E00D852
:103D10001E46002E01D10A4001D00021A174F97C79
:103D200000294D4E03D09F2801D80021A174217A8B
:103D3000002906D00F992931884208D20020A074AA
:103D400005E0952801D8642000E00A20F0714A4F70
:103D5000386903210C91FDF70DFA78600B2D4E4D5B
:103D600032D30146207B00282ED0434F7869FFF7DD
:103D7000DBF97968109A914222D24A0890421FD901
:103D800000203D4AD060E279521CE271326D0D9BF9
:103D90009A4200D90120314BE28F92B22F2A0E9A1B
:103DA00000D9F1E002469B7C002B00D0F0E0012A14
:103DB00001D10020E0740120B072308D400860868F
:103DC0002D48416100202073326D237C284608383D
:103DD0000168324D2940002B10D0792A0ED30160A2
:103DE0002D4A10682D4908402D49081824381060C4
:103DF000101F016840200843BF210BE0284A5118DA
:103E000024390160244A1068244908401060101FBA
:103E1000006809998843114F111F0860A07B002892
:103E200040D07A20235A5620215A2120205C5C223F
:103E3000A55A228E009500F02BFC25460E350A204F
:103E400039E0C046DAE32559D963B84E00F80008D6
:103E500000F80108007C0008C0000020E0060020F7
:103E60002A0300000005002000300040AAAA00003C
:103E700000580140342C01407C050020E204000081
:103E800011270000419C0000214E00008504002005
:103E9000AF4700008804002010E400E0FFFFFF00AF
:103EA000240000402220205C002808D000F0E0FB25
:103EB00025462235312001F081F800202870607BF2
:103EC000012800D088E0FDF7E3F9CA49088849894C
:103ED000091A5E22A25A121A50205043FDF74AF9DD
:103EE0001E3060216052C44A1168C44B1940091D3C
:103EF00011602121605437465626A05B07254543B3
:103F00006220205ABE494843BE49FDF713F9F98C97
:103F100048436421FDF70EF94019C508A553627C9A
:103F20005300B94EF05A4821615AF152521CD3B293
:103F30000026312B334600D813466374B34FBA685A
:103F4000101A4018B8603221FDF7F4F8208780B2CB
:103F50003860AB494843AE49FDF7ECF8010400D5A1
:103F600030462086A8B22421AA4A515C022914D0E6
:103F70000129A94EA74F1AD1617A328C4A43824255
:103F800010D9A08D401C11E09B7C002B00D10EE7C6
:103F90000246012A00D10CE70DE79E4F397A88428C
:103FA0009D4EEED3E078002801D10020A085207D31
:103FB0009A4948439A494018A18D88420ADA002557
:103FC000E5870120E070FEF789F800F05DFCA58729
:103FD000E574E5750020607300256575207D002877
:103FE0003BD0E08F312870D3E17D00296DD0882847
:103FF00000D925E1A07800280ED08A4A1068012156
:104000008843106000F040FC00258748056045604B
:104010008560FEF797F8A5705227E15B50200C9061
:10402000255A4E20235AB27B002A0B97079000D1C5
:10403000FCE14A1E11B200290F9900D411466A1EF4
:1040400015B2002D0F9800D410465B1E1AB2002A3C
:104050000F9A00D501E21A46FFE16C4801697348E6
:10406000FDF788F8E17C41435C20215288B2704919
:104070004843C00C64216052B1790029109907D0DF
:10408000738F328FF18EB58F009500F0DBFB014608
:10409000B1862B203A5C2120205C904209D9B38F55
:1040A0000121009111460A390A325B0800F0CAFB6F
:1040B000B0865648C068632826D8316D089881427A
:1040C00022D90C2032292BD32BE00B950125A5708A
:1040D000387F022800D159E5012800D027E12920A6
:1040E000385CC8274743368E304678431099FDF731
:1040F00021F8301A5A26A053A78480B2632800D929
:1041000030E2FEF7D3FF35E2404840680C210091D1
:1041100064210323089A00F095FB316D322900D207
:10412000022030732F20385C002809D04220205A0A
:104130001721009164210D23109A00F083FBE07792
:104140003C4800683C49884200D247E5E07C0128B1
:1041500000D043E5A07C401CA07400F095FB3746DE
:1041600001200B90B072E08F2F2803D833483865B8
:104170000020E07400252548C5602E4E30684C2193
:1041800060523560396D0C9A4A4380B21018C108EC
:104190008008227F42439209891A4423E1523865FC
:1041A000628788B21949C968052915D231681D4945
:1041B0000862194A907C917B0129164F00D0BEE01D
:1041C000401C9074C1B207290B9E03D3267312487A
:1041D000867430463040BDE031688142E7D23168B4
:1041E0008142E4D231688142E1D231688142F3D325
:1041F000DDE7C046B8F7FF1F08240140E8FFFF7F56
:10420000E40C0000FF0F0000360800207C050020B1
:1042100001040000E0060020C000002054D9FFFF88
:10422000102700000C200040342C0140C02709005A
:10423000CDCC000024000040C9AF0000881300006E
:1042400001200290A07052200C90205A502106911B
:10425000625A4E27E15BB37B002B0B95059700D18B
:1042600068E1431E18B200280F9800D41846531E68
:104270001AB2002A0F9A00D41A464B1E19B200290E
:104280000F9900D419460C9BE052069D6253E153EE
:104290004027F05B039709B24900F34A515E411889
:1042A000708E48431099FCF765FF2D220492F74960
:1042B000895C48430A210791FCF75CFF80B201F05A
:1042C00061FAF05B615F4900E74A515E4118708E08
:1042D0004843109D2946FCF74DFF049FEB49C95DFB
:1042E00048430799FCF746FF80B201F051FA039862
:1042F000305A0C99615E4900DB4A515E4118708E5C
:1043000048432946FCF736FFE0490D46C95D48435E
:104310000799FCF72FFF80B201F040FAE08FC82820
:1043200057D90B98059FE0530698F08753E0CA4889
:104330000B9D056045608560FDF7D0FE4BE4411E96
:10434000917408060B9E03D126730621BC48817424
:1043500030468843BA494873EFF3108072B6E07B69
:10436000002803D1B648807CFDF752FF62B6FDF706
:104370002FFFBB484068B449884201D9B0488672D3
:10438000E576A577A575B64AD068411CD160AC4EDC
:10439000B07C40008218306DD082019ABA5C531E06
:1043A0009A417B7F002B0E9B00D11346012B07D136
:1043B000142900D212E41099491C884204D30DE458
:1043C0001099884200D309E4B572FEF775FDFFF736
:1043D00005FCF08F059FFEF777FBE05B00282F467A
:1043E00001D0FFF7FBFB029BE3740B9D25759748FB
:1043F0003065B3729A4948614860964A1060E57327
:104400001420C860787F002801D0F08D6086F07A93
:10441000B17B012900D0B0E0401CB074C1B20729C3
:1044200002D32373B37418461840AFE04E1C31B268
:1044300000220F9FB942114600DC31466E1C35B296
:104440000F9FBD42104600DC30465B1C1EB20F9F22
:10445000BE4200DC1A467A4E0B9FE1530C99605223
:10446000079822524027F05B11B249007E4A515E04
:104470004118708E4843109E3146FCF77BFE2D227A
:1044800007928249895C48430A2529460695FCF72C
:1044900071FE80B201F076F96948C05B0C99615EEB
:1044A0004900714A515E41186548408E4843314683
:1044B000FCF760FE079E7549895D48432946FCF775
:1044C00059FE80B201F064F95D48C05B6F4F0B99F3
:1044D000615E4900644A515E41185948408E484324
:1044E0001099FCF747FEB95D48430699FCF742FE78
:1044F00080B201F053F9FD7E52482946FCF71AFEBE
:1045000006465A482946FCF715FE0346E08F0096FA
:104510004B4E3021782200F095F9F08780B2FEF7FB
:10452000D3FA0F98F130F18FFCF704FE5C21605252
:10453000FFF754FB431C18B22F460F9DA842384684
:1045400000DC1846531C1AB20F9DAA420B9A00DCDD
:104550001A464B1C19B20F9DA9420B99059F00DC0E
:1045600090E690E600F044FBA05B3B4908604860A1
:104570008860E573324EFFF72DFB411EB1740806CB
:1045800002D123730621B174184688437073EFF388
:10459000108072B6E07B002802D1B07CFDF738FEB7
:1045A00062B6FDF715FE2E4840682749884201D9BA
:1045B0000298B072E576A577B07C40002849401893
:1045C000316DC182FEF7A8FDFFF708FBFDF786FD00
:1045D0000020E063E07520761F490860486088602D
:1045E00000F0A4FB012001021E48FCF798FDBFF378
:1045F0004F8F174819490860BFF34F8F00BF00BFA6
:1046000000BF00BFFAE7FDF769FD0020E063E07539
:104610002076114908604860886000F087FB01201F
:1046200001021048FCF77BFDBFF34F8F08480B4990
:104630000860BFF34F8F00BF00BF00BF00BFFAE7A5
:10464000C00000202A030000C40900002823000045
:104650000400FA0524000040342C01400CED00E079
:104660007C050020DC050020AC010020581B000068
:10467000B0B5124CD649302520462A46FCF736FD07
:1046800020462946FEF774FD6055B0BDE0060020C7
:10469000B0B50A4C049D2572A3712271A1702070DF
:1046A000280AE071180A6071100AE070080A607048
:1046B00009212046FEF75CFD6072B0BDA805002010
:1046C000F0B583B059490E89002E02D00020088130
:1046D00024E057490978002900D15648C10B0DD173
:1046E000810B0DD1410B0DD1010B0DD1C10A0DD1A3
:1046F000810A0DD1410A4A1E91410AE0072108E0D2
:10470000062106E0052104E0042102E0032100E087
:104710000221464A5161C8404E020643464800788D
:104720008000019045490B1840275F60310A4448DA
:10473000405C009084003846A04398603509694089
:1047400071400F2402948C4331010919374A916159
:104750000099CA003A404240DA60C80302990D400D
:1047600037494D5DA90201433548005D0090029C28
:104770002640334CA45D02946601064334460C4344
:104780002A48C461C80A3840504018618A0A3A4031
:1047900042405A61480A384050409861A900394067
:1047A0004140D961E800384048401862A1093940C9
:1047B00041405962600938404840986221093940B7
:1047C0004140D962029A9000384048401863D100B5
:1047D0003940414059633F20C043014072083A408C
:1047E0004A409A6371003E405640DE633940714052
:1047F00019640022114C019D6251009CA2003A40B4
:104800004A405A64E10039405140996422013A40DB
:104810004A40DA6402406001384050401865E107C0
:10482000490E4140596503B0F0BDC04680040020E8
:1048300013050020FFFF0000E1040020A007002076
:10484000F65F000870B5049D884214DD2C462546AD
:10485000904214DAAB4215D01646EA18541072187A
:10486000521091420CD09042F1DD511C88422346F7
:104870003246EBDC01E016461C46B04200DB2C461B
:10488000204670BD184670BD0120400502490A68E7
:1048900082430A604861704700040140F0B581B06E
:1048A000C14DC2486860EFF3108072B6C04800780E
:1048B000E8602861686179249C4E9D4F3760A41E92
:1048C00014212046FCF736FCC0B2FDF7A1FC6008BD
:1048D0000A3028600A20FEF70FF9022CEED8FDF707
:1048E000FDFB00202860B3490880B3480088686059
:1048F00062B601B0F0BDC046F0B583B00320FDF74D
:1049000087FC00213520AB4EA64A02910B4604E0FD
:104910005B1CA81C313D7E2D4CD205468448834942
:104920000860029830805019401E0778FF2FEFD0A2
:10493000505D00282DD00A219B4E3160F721414364
:104940007D204001091823480193FCF7F3FB04463E
:1049500021482146FCF7EEFB7060954909784843F1
:104960009249FCF7E7FBF060306170610198C0B2DA
:10497000FE214143CE1919482146FCF7DBFB704369
:104980008C4E6421FCF7D6FB80B2FEF7B5F800230D
:104990000BE000248448C46004614461D8B2FE2165
:1049A0004143C819FEF7A8F823467E4AA81C313DAA
:1049B0007E2DB2D3FDF792FB00207B4A10607E492A
:1049C0000988516030805A485849086003B0F0BDEA
:1049D000E0060020C0D8A700003E4900A0860100E4
:1049E000B0B5714D71486860282028607048007823
:1049F000E860286168610220FDF70AFC96242046E1
:104A0000FEF77AF849484A4901605020286020465C
:104A1000FEF772F8FDF762FB002028606549088008
:104A2000654800886860B0BDB0B55F4D5F4868609C
:104A3000322028605E480078E860286168610220C2
:104A4000FDF7E6FB96242046FEF756F8374838492E
:104A500001601E2028602046FEF74EF8FDF73EFB61
:104A60000020286053490880534800886860B0BD22
:104A7000B0B5EFF3108072B64B4D4C4868602B48D0
:104A80002B4901605020286049480078E86028617F
:104A900068610320FDF7BCFB64242046FEF72CF878
:104AA000462028602046FEF727F828202860204668
:104AB000FEF722F8FDF712FB002028603D49088030
:104AC0003D480088686062B6B0BDC046F0B581B0B0
:104AD000354D36486860EFF3108072B6134E144FB0
:104AE00037603C20286032480078E86028616861BF
:104AF0000120FDF78DFB4B242046FDF7FDFF5020E4
:104B000028602046FDF7F8FF5A20286037602046CD
:104B1000FDF7F2FFFDF7E2FA002028602549088042
:104B200025480088686062B601B0F0BD00300040E2
:104B3000AAAA0000B0B5EFF3108072B63020844905
:104B4000085C194DFF2802D0FFF7D6FE25E0174874
:104B5000686017480078E860286168610320FDF705
:104B600057FB37202860C8242046FDF7C5FF0520E5
:104B7000FDF74EFB282028602046FDF7BDFF0620EC
:104B8000FDF746FB192028602046FDF7B5FFFDF72D
:104B9000A5FA08480021018029600748008868605C
:104BA00062B6B0BDE0060020282C0140CF0700000F
:104BB000D905002046050020F200002010B50A4C5F
:104BC0006078022808D0012803D1FDF77DFC002081
:104BD000607000F013FA10BD0448008AFFF770FD02
:104BE0000020607010BDC046000500207C0500203C
:104BF000B0B503210A050920C006036893430122CA
:104C000014051B190360930283628B0404689C43A0
:104C10009304E3180360530283620B0404689C430B
:104C20001304E318036013028362094B1C68082510
:104C300025430424A5431D601C6802252543954394
:104C40001D60890303688B43D10359180160B0BD0F
:104C500000040048F0B5012A23DB03231340042A93
:104C600001D200240FE00F4C224000240D5D0555B9
:104C700005190E1977786F70B778AF70F678EE7007
:104C8000241DA242F2D1002B0BD0625C0255012BF5
:104C900007D0621C555C8554022B02D0A21C515CCB
:104CA0008154F0BDFCFFFF7FB0B5BD480168022212
:104CB00011430160016891430160BA480146083917
:104CC00041220A600A210160134909788160134971
:104CD000C16002460C3A136801210B4313600022A5
:104CE0004260B24B0E4CDC60044614349C600D4CA8
:104CF00024785C600C4C1C604B020446143C256814
:104D00001D43256003680B430360AA4B1A702038CB
:104D100002680A430260B0BDA4010020FFFF00004A
:104D2000DC0500203C0100208B0900000248002126
:104D3000416001607047C0462404004080B50348CC
:104D4000C26C0348C02100F005F880BDC0000020FF
:104D5000E0060020F0B503AF8BB06E46F41D1934A9
:104D600015467161B061C80F0B1801221946F26037
:104D70009143C91D072291436A46501A591085462E
:104D8000F0613161FCF7CBF9706902285ADBB26936
:104D900035607460032031690840B060481E032804
:104DA00001D2002123E048005D49014071610023E8
:104DB0001946D25CB069C01844782402A218F5697B
:104DC000EA528278C4782402A218EC186280027930
:104DD00045792D02AA18A2808279C0790002801834
:104DE000E080B2690833091D70699842E1D1B36867
:104DF000002B7468356825D04900B069405CB26901
:104E00005218527812021018F26971615052012B37
:104E100018D07069801CB1690A5CB1690B185B78A5
:104E20001B029A18F3691A52B169B068022809D0B6
:104E30000A467069001D095C121852781202511856
:104E4000F26911523069A06036480168C90708D07C
:104E50000168C90705D00168C90702D00168C90700
:104E6000F3D14168090606D52F490A680346083B75
:104E70001A6049681960A905F3681DD142680221CA
:104E80000A434260856042684023134343600268DE
:104E9000D20708D00268D20705D00268D20702D034
:104EA0000268D207F3D10268920601D5202202607F
:104EB00042688A434260F3680021616007E041680C
:104EC000994341606168891C61602168491C2160C7
:104ED0002168A26891421AD2416819434160216851
:104EE0004900F269515A626851530168C90708D0F4
:104EF0000168C90705D00168C90702D00168C90760
:104F0000F3D101688906DAD520210160D7E741682D
:104F100080220A434260FE1F053EB546F0BDC046F2
:104F2000F8FFFF7F0C20024044010020B0B51C4870
:104F30000168022211430160016891430160194830
:104F40000146083960220A60032101601649097888
:104F500081603D21C16002460C3A136801210B4378
:104F60001360124B124ADA60024614329A60114AF8
:104F7000547817345C60104C1C604B020446143C9F
:104F800025681D43256003680B430360CB03446A17
:104F90001C4344621170203802680A430260B0BDAD
:104FA0001010024020040040EA04002044000240A7
:104FB000A0070020E00400209B090000F0B50C4988
:104FC0000C680822144304239C430C60094C256898
:104FD0000126B54325606568074F2F40381860608B
:104FE0002068304320600868184390430860F0BD93
:104FF000003801401C0002400000FFFFF0B585B002
:10500000ED4DA87C002806D0EC4E707E002807D01D
:105010004020305A36E14020E849085AC886A5E1C8
:1050200040200390305A7D22D400FA4949794B0040
:10503000049419192C462625655D0127002D19D0E9
:1050400081424AD2F34A927BF14C657CAA4258D104
:105050003C4601250295F5730025F5863779002F2A
:1050600000D1A2E0F573029B9A1AEA4B9A73274685
:10507000049C4AE0814236D2E64B9C7BE44D6B7C3B
:1050800002949C42049C00D09EE0307D431E9841D7
:105090004223F35A9BB2C82B3B4600D30346DD4D57
:1050A000AC8C2D6DA54200D80346012B039D00D08A
:1050B00086E0D9480024C4600120D64A9072029943
:1050C000401A9073FFF7E0FBB472705BD1494979E5
:1050D0004900049C0919CE4D76E0CD4D049CE21A9E
:1050E000824224D84BE0CA4D049CE21A82427AD80C
:1050F0001919814200D2B9E00021824200D8B8E0FB
:10510000B8E0F27B002A049C0DD100223271C34A20
:1051100000922F3A2F23FFF795FBF0860398305A21
:10512000BC4949794B00BA4DE21A824227D902970D
:10513000697C01277D1AB74CA47BA5420BD1F7737C
:105140000025F5863479002C36D0F573B14B997370
:10515000029F049C04E0F17B0029029F049C0DD176
:10516000002131712F230093AC4BFFF76BFBF086CE
:105170000398305AA74949794B00E21AA44D1919EE
:10518000814203D30021824203D903E001218242FC
:1051900000D80F46002F72D10021F186F27B002A41
:1051A0006DD001223271F17369E0994D2746049C5C
:1051B000E21A8242BBD8E2E7954D029F049CDEE7EB
:1051C000D0007053924D049C944A00922F3A2F23A2
:1051D000FFF738FBF0860398305A8E4949794B0027
:1051E000E21A824284D9697C01230291591A894CBE
:1051F000A47BA14223D1307D411E88414221715AB6
:1052000089B2C829394600D30146824DAC8C2D6D38
:10521000A54200D801460129039D12D17D4902987B
:1052200088738B727C480024C460FFF72DFBB47236
:10523000705B784949794900049C621A04E0049C37
:1052400003E0049C74532046714D2F2100910021EE
:10525000724BFFF7F7FAF0860398305A6D49497997
:105260004B00E21A1919814200D345E7012182421D
:1052700000D80F46002F02D10021B172F186717E55
:10528000002973D07D21CC0021462F31884231D9AD
:10529000604FB97B6A7C914226D1B88C3D6D01226A
:1052A00000238542104600D818464225755BADB2F2
:1052B000C82D00D31A461040327DD2B2531E9A41F7
:1052C0000243012A0CD154480025C5600120B87260
:1052D000401AB873FFF7D8FAB5724020305A02E08E
:1052E0004021002070524A4D397A4200511AAE4A8C
:1052F0008918F1860146303989B2A14231D22F4650
:10530000697C0122531A434CA57BAB4223D1A08C6C
:10531000256D00238542104600D818464225755B4E
:10532000ADB2C82D00D31A461040327DD2B2531E02
:105330009A410243012A0BD1A1730120A072364881
:105340000025C560FFF7A0FAB5724020305A02E090
:10535000402100207052217A4200511A3139F186E1
:105360003D462F2802D80020B072F086F54FF8791C
:10537000F34EB17C814216D9A87D002813D0FCF7EA
:10538000ADFEFFF781FA6620B07401200002F249F9
:105390000861202008600020F08708200860307D28
:1053A00000285DD054E1E87C002809D0F08E1D284B
:1053B00029D80021F18741E0E00600200005002007
:1053C0007079002846D03078002870D0796CBB6C9A
:1053D000F08E00912F21DC4C2246FFF733FA014674
:1053E000DB48FBF7C7FEE97E4908FBF7C3FE708583
:1053F000F08E2E2868D800207865F087B066307D62
:1054000000282DD024E11E280AD11E2016E0C04617
:10541000E0060020C00000207C050020FF070000FF
:105420002821695C14224A43824207D9A0210091B5
:105430001E212F23FFF706FAF087F08E28216A5CE1
:1054400014215143814207D8BF4A0092A023FFF79D
:10545000F9F900E0F08EF087307D002800D0F7E009
:10546000F07D002800D1F3E0E97C50242046484339
:105470002F30F28F904200D984E0F07C002869D16F
:10548000FCF72CFEB87A00285FD1F07C00285AD1B6
:10549000B87CB97B012928D1401CB874C1B2072956
:1054A00002D301203073B8740121014027E0B06EAF
:1054B000A849FBF75FFE81B2302900D830210004F3
:1054C000C00E0DD0A0490BE0B06EA249FBF752FE12
:1054D00081B2302900D830210004C00E00D021460E
:1054E000F187307D0028BBD0B2E0401EB8740106C1
:1054F00003D1012030730620B874012181437973F0
:10550000EFF3108072B6F07B002802D1B87CFCF774
:105510007FFE62B6FCF75CFE8C4841688F4A914280
:1055200001D30121B9720021F176B177396D894A31
:105530003A65BA7C8A4B8B4D1D6052001018C182AF
:105540000120F0747D4DFDF7B7FC0120F074388D1B
:105550007086E97CBB8DF08F7B4A002905D011460F
:105560002F3900912833892103E011462F3900910A
:105570002F21FFF767F9B0862620285C002801D18B
:105580000020F073E87C60432F30F18F88425CD9B3
:10559000F07A052815D8C046784400794000874441
:1055A00012050E080B05C046FFF7FFFFFFF73CFA98
:1055B00007E0FFF773F904E0FFF788FA01E0FFF76F
:1055C0000FFA0020F072287D002826D0F07C0028F9
:1055D00071D0B87C3C214143388B421810463C388E
:1055E00003B2FF2168318B4201DD5F4810184E2263
:1055F000B0520246EF3213B28B4201DD0246793AD5
:105600005223F2520246773213B28B4214DC104618
:105610003053E87C012814D015E00020B086F17CDE
:10562000002969D14949C8600120B872287F002843
:105630005DD0FDF73BFD5FE0F1383053E87C012899
:1056400001D1012030750020B086F07B002801D008
:1056500005B0F0BDF08F2E2812D9697F1E22CA40F6
:10566000B48E3A49C96891420BD2398D8C4201D22D
:10567000B1860C46798D8C4203D9B1860C4600E088
:10568000B48EB98E8C4201D9B1860C46B17900290D
:1056900005D02221795E8C4201DD8CB2B48630289F
:1056A000D6D3F06E0128D3DB2A49FBF743FD20183F
:1056B000B08605B0F0BD25480021C1600122BA7254
:1056C000B175287F00280FD0012882D1E87C0028FE
:1056D00000D07EE72920285CC8214143B1840A28F4
:1056E00025D3FDF7E3FC74E7FCF7F8FC71E7F07BEA
:1056F000002801D1FCF7F2FC2620295CF07B002970
:10570000A4D00028A2D04020315A7D20C4002046D9
:10571000FDF70AFD0019B08480B20B493139884287
:1057200002D9FDF7C3FC90E7FFF762FA8DE7049218
:10573000FFF75EFA0498F0734BE7C046E0060020DE
:1057400000050020C0000020FF0700007C050020AD
:10575000008793031027000018040048C5090000C3
:1057600024000040881300005CFEFFFF03200002BD
:1057700003490A688243012000021018086070473C
:105780000C040048014908607047C046342C0140B1
:10579000014908607047C046382C01400149086043
:1057A0007047C0463C2C01400B2800D30B20400022
:1057B000014908707047C046D9050020F0B591B086
:1057C00000240F940E940D940C940B940A94099455
:1057D000089407940694059404940394012082038A
:1057E0000292034600903D48416811434160416880
:1057F000114010911099990402680A4302600068F0
:105800000840109010980894079306940220049082
:105810004026039603250595314803A9FBF79EFE14
:10582000304F3868304901401031396028033968F9
:105830008143396038682021884338603868B04334
:10584000386038688021019108433860280239683F
:1058500081433960A8023968814339600F940E94FE
:105860000C940B940A94E1204002099008260D96AE
:105870001E4D2C46083C09A92046FCF7FFF8009B6A
:1058800098022968814329600920C002291F0A68FB
:1058900082430A6028682A218843286020681843C8
:1058A000206002981030396801400C20102902460F
:1058B00000D032460E4BD351102900D00646284660
:1058C0002030F05178680B49014031317960286807
:1058D00001990843286011B0F0BDC0461410024081
:1058E000000400481C000240EFBFFFFF08380140E1
:1058F000A80500200000FFFFF0B583B0FE4DA88E84
:105900004226A853E88D401CE885E88C401CE884BA
:10591000288D401C2885E87D00284DD1687A002814
:105920004AD1287E002847D0E88E002803D0542092
:105930000021295240E05420295A491C295289B299
:10594000EE4A914238D3A98F1F2927D3029601200E
:10595000E875EB4908220A6100020860202008600F
:105960002420E849085C01281CD156202C5AB92073
:1059700041002046FBF7DEFB68726008B92813D3AC
:105980000024E14FE14EFFF773F86420FDF7B4F80F
:105990003E60641C687A8442F5D305E000212952F8
:1059A000297609E0FFF764F8A87E0028029E03D15B
:1059B00026200021D34A1154D24CE17F002910D077
:1059C00058202A5A521C2A5292B2D14BDB78C9185D
:1059D00014234B43143B934203D20021295201204C
:1059E000A873287D002800D07FE1C948807A00286C
:1059F00040D0E87C00283DD0FEF746FFFDF79AFB3B
:105A0000C3494A7B002A0DD000280DD0A87D401C38
:105A1000A875CB7BC0B2984214D8E87E002829D163
:105A2000A87F16E0002806D0A87F401CA877EB7E50
:105A3000002B1FD10BE0A87D401CA875CB7BC0B20A
:105A400098420BD90020A877EB7E002B12D1002AB8
:105A500008D0097CC0B2884208D80BE0E87E002854
:105A600008D1A87F497CC0B2884203D90120E876DA
:105A700000F01CFA288D152800D2BCE0002001900F
:105A8000288501206873EF7CA879002802963FD012
:105A9000002F3DD03020285E2C21615CC722D243EC
:105AA0004A4310189B4908608A69831A8E68CA683D
:105AB0000C695A434A618861464333190E6AB342FE
:105AC00000DB33467642B34200DC33460B61D2182A
:105AD0004B68584310184A6A9042F14C00DB10465C
:105AE00052429042029E00DC1046C8618A49FBF790
:105AF00041FB87494A8C101803B28A8D934200DB20
:105B0000024610B27D221201904200DB104648840A
:105B1000607F002832D0002F30D07D48C18A006DD0
:105B2000411A7C488162026C8B1A046B426B866B53
:105B30005A43C26301644C43A319866CB34200DB31
:105B400033467642B34200DC33468363D218C36ADD
:105B500059435118C26C9142D14C00DB114652425C
:105B60009142029E00DC11464164E86E08186B49C0
:105B7000884200DB0846C1178843E8666879002838
:105B800039D0002F37D03146688D654A1269121A14
:105B90005F484265C36ED41AC66D036E476E634399
:105BA0008366C2665643F619476FBE4200DB3E4627
:105BB0007F42BE4200DC3E4646669B19846D6243CE
:105BC0009A18836F9A4200DB1A465B429A420E464D
:105BD000FA4C00DC1A460267AB6ED218514B9A425F
:105BE00000DB1A46D3179A43AA66F149C9686329AC
:105BF00001D801994166E88D697FFBF79BFA00297E
:105C000001D06F8E27E0EA49486801221302F4337D
:105C1000984200D80222688E9628E44F3B4600D373
:105C2000BB18C9689629394600D319460978797294
:105C3000AA5B131A8B42174606DC821A8A4209DCD9
:105C4000E87D00280BD11AE04718AF53BAB2821A88
:105C50008A42F5DD471AAF53E87D00280FD0E97C72
:105C600000290CD0E98F302909D3B8B2CF490C8E66
:105C700060437D210901FBF75DFA401C2CE0E97BC4
:105C8000002909D0C948048EA88C60437D210901F0
:105C9000FBF750FA201A1FE0002815D0207F0228B9
:105CA00012D10220FCF7B4FA207BC0490C8E60436D
:105CB0007D210901FBF73EFA01460A2048432D30B9
:105CC0005A216852AF5B09E0B8B2B8490C8E604304
:105CD0007D210901FBF72EFA5A21685212490C6006
:105CE00080B28860C8606F8608614620295A491CC6
:105CF000295203B0F0BDC04600050020214E00002F
:105D000018040048E006002000300040AAAA000065
:105D1000C00000204C010020F0D8FFFF60E3160017
:105D20007C050020F05838012C2C014070B55048FB
:105D30000078504C217800290BD0002809D04F481A
:105D40000078002810D0FEF7AFFF574802210170FD
:105D500070BD4949097801290CD0002924D1FCF7EC
:105D600081FFFEF7A1FF70BDFFF7E0F84E4801216B
:105D7000017070BD00280CD040480078002814D075
:105D80003F480088FEF79CFCFCF79EFBFEF78CFF6B
:105D900070BD3C4D287801280AD03B480078012886
:105DA0000ED0207800281DD070BDFFF7BFF870BD61
:105DB000FCF78AFBFEF778FF334800780128F0D122
:105DC000FDF7CEF9002803D030480321017004E02C
:105DD0002E4802210170FCF79DFDFEF765FF20783B
:105DE0000028E1D12A490A882A4C2878002816D0B0
:105DF0006079072813D8062A11D3431C63712648FB
:105E00000568C06F401B656940196061082B06D1A9
:105E1000C309C008C51AA581C0181C4B98801F4D26
:105E20002888002805D16378002B02D1501C0880F7
:105E300070BD624AD279002AB6D100260E80194977
:105E40008842B1D36189FDF76FF9322801D82078F3
:105E5000461C2670F0B2332807D3E078002804D11E
:105E6000FEF71CFD0120000220802888608170BDA3
:105E7000100500201705002018050020E004002070
:105E80008C050020190500201A0500203C01002087
:105E90003C050020E4040020DC050020360500203D
:105EA000E0060020DD05000001050020F0B581B00E
:105EB0003C4801684C223C4EB152002404603B4DEA
:105EC0002A6D0323534389B25918CA088908337FBE
:105ED0004B439B09D21A4427F2532965738791B229
:105EE000334FFA68052A11D2006832480160A87C55
:105EF000A97B012917D1401CA874C1B2072902D37C
:105F000001203073A8740121014016E002688A4222
:105F1000EBD202688A42E8D202688A42E5D202687D
:105F20008A42F3D3E1E7401EA874010603D10120A1
:105F300030730620A874012181436973EFF3108048
:105F400072B6F07B002802D1A87CFCF761F962B63A
:105F5000FCF73EF978681849884201D30120A872FD
:105F6000F476B477B475F868411CF960A87C4000F9
:105F7000C219286DD0822622104B9A5CD2B25B7F68
:105F800013437D221201002B05D0142908D3511C84
:105F9000884202D304E0904202D2AC72FCF78CFF3C
:105FA00001B0F0BD2400004000050020C00000202A
:105FB0007C0500202C200040C5090000E0060020E0
:105FC00002E008C8121F08C1002AFAD170477047C2
:105FD000002001E001C1121F002AFBD17047000020
:105FE0000000000000000102030406070809000089
:105FF000000001020304191B12131D1516171A09BC
:106000000A0B1E0D0E0F000028600008C0000020C3
:10601000C0030000F4110008106300088004002091
:1060200020080000D05F000810140206101E2D6426
:10603000010A010201050501010202020116D00751
:106040002823B4180A4C046C07DC054A01D0061258
:106050006E127812C81A2D021008CF07CF07D0078A
:106060001412461A901A1A64122123102733E803D7
:10607000127C6408D430720A02136429302350C39E
:1060800012202B204E08400923016745AB89EFCD34
:106090006390013950F123204E4BA08621592711DE
:1060A0000A1932601113127A121C3401400832FAB4
:1060B00012B412B712BA12BD12C112C412C712CA58
:1060C00012CD12D012D312D612D912DC12E012E382
:1060D00012E612E912EC12EF12F212F51AF7321A66
:1060E000FD6718660301060109010B010E0111018C
:1060F0001301160119011B011E01200123012501B5
:1061000028012A012C012F01310133013501380109
:106110003A013C013E014001420144014601470170
:1061200049014B014D014E015001510153015401F0
:106130005601570158015A015B015C015D015E0186
:106140005F0160016101620163021C640165021A62
:1061500066023A6702FA680249182922292A3A6433
:10616000361A62401A60481A5E501A5C581A5A6011
:106170001A57681A54701A51781A4E801A4B881A96
:1061800047901A44981A40A01A3CA81A38B01A33FB
:10619000B81A2FC01A2AC81A25D01A20D81A1BE0FC
:1061A0001A16E81A11F01A0BF8150601030113016B
:1061B000FD12FA12F712F512F212EF12EC12E912B6
:1061C000E612E312E012DC12D912D612D312D01268
:1061D000CD12CA12C712C412C112BD12BA12B7121E
:1061E000B412B112AE12AB12A712A412A1129E12D7
:1061F0009B129812951292128F128C12881285128D
:1062000082127F127C1279127612731271126E1240
:106210006B126812651262125F125D125A125712E7
:10622000551252124F124D124A1248124512431281
:1062300040123E123C12391237123512331230120C
:106240002E122C122A122812261224122212211285
:106250001F121D121B121A121812171215121412E5
:106260001212111210120E120D120C120B120A122F
:10627000091208120712061A050212041A03021A5A
:10628000020219D91902011249182922292A3A04AD
:10629000361A06401A08481A0A501A0C581A0E6084
:1062A0001A11681A14701A17781A1A801A1D881A87
:1062B00021901A24981A28A01A2CA81A30B01A353E
:1062C000B81A39C01A3EC81A43D01A48D81A4DE035
:1062D0001A52E81A57F01A5DF81262126512681223
:1062E0006B126E1271127312761279127C127F1277
:1062F0008212851288128C128F12921295129812A5
:106300009B129E12A112A412A712AB12AE52B100A0
:020000040800F2
:107BE0004342544543484E4F4C4F47595F4630350A
:107BF0003100000000000000000000000000000054
:04000005080010BD22
:00000001FF
