:020000040800F2
:10100000000D0020D11000086D1D0008F914000823
:1010100000000000000000000000000000000000D0
:101020000000000000000000000000005D1E00083D
:1010300000000000000000006F1D00085F1E000897
:10104000E3100008E3100008E3100008E3100008B4
:10105000E3100008E3100008E3100008E51400089E
:10106000E31000080D140008E3100008391400080C
:101070004D120008C91F0008E3100008E310000823
:10108000F11F00081920000800000000891F000857
:101090009D1F0008C51F0008E3100008E3100008AA
:1010A000E3100008E3100008E310000835200008F2
:1010B000E310000800000000E31000080348854624
:1010C00000F080F800480047013A0008000D0020B9
:1010D0000448804704480047FEE7FEE7FEE7FEE7D6
:1010E000FEE7FEE7851F0008BD10000803460B431E
:1010F0009B0703D009E008C9121F08C0042AFAD2CE
:1011000003E00B780370401C491C521EF9D2704753
:10111000D2B201E00270401C491EFBD2704700228F
:10112000F6E710B513460A4604461946FFF7F0FFE6
:10113000204610BD70B50446002903D000202022AF
:10114000012310E0002801D00020C043C046C04663
:101150000DE02546D5408D4205D30D469540641BD4
:101160001D46954040191546521E002DF1DC2146C2
:1011700070BD000070B5002504462E46002911D030
:10118000002C01DA01254442002901DA01264942F6
:101190002046FFF7CFFFB54200D04042002D00D0DF
:1011A000494270BD002C02DA0121C90702E0002C7F
:1011B00000DD03490846C046C046214670BD000018
:1011C000FFFFFF7F1CB509480090094801900546C4
:1011D0000126009C05E0E36807CC33430C3C9847AC
:1011E0001034AC42F7D3FFF76DFF0000285F000812
:1011F000485F000870B58C180578401C6B075B0FC2
:1012000001D10378401C2A1106D10278401C03E06A
:1012100006780E70401C491C5B1EF9D12B0705D4C3
:101220000023521E0DD40B70491CFAE70378401CB2
:10123000CB1A921C03E01D780D70491C5B1C521EDA
:10124000F9D5A142D8D3002070BD0000B0B5A94C9B
:101250002068800200D4B0BD01204505094800681F
:10126000094909684908884203D9256002F030FA23
:10127000B0BD01F059FF054909788842EBD12560DE
:10128000B0BDC046240000407C050020CE000020F8
:1012900005488188054A11800188054A11804088E7
:1012A000044908807047C0469C0500205C0500206A
:1012B0006005002046050020F0B593B00027119787
:1012C00010970F970E970D970C970B970A97099702
:1012D00008970797069705970497039701214802F7
:1012E0000B46019144494A6802434A604A680240F9
:1012F0001292129858040A6802430A600968014071
:1013000012911298079703260496402000900390AC
:101310000920C40603AD2046294600F01FF90797AF
:1013200004960820029003902046294600F016F902
:1013300032480168324A0A400260310302688A4337
:101340000260016820220A4302600168009CA143F8
:101350000160016880220A430260310202688A4308
:10136000019B190251180160B10202688A43990277
:101370001E4651180160234D2868029908432860D1
:101380002868204328601804296801432960072041
:1013900080051D490A688243D80510180860D807DF
:1013A0000E90119710970F972C46283C0EA92046B7
:1013B00000F0A4F80D970C960B970A97099709A9C6
:1013C000204600F0B5F80420C04329461C390A68BD
:1013D00002400A60294614390A6806231343B343BE
:1013E0000B60243D296801402960286802998843E0
:1013F000286013B0F0BDC04614100240080002403F
:10140000EFBFFFFF282401400827014010B5094C19
:101410002068800703D42068000707D410BD01208E
:101420006060FFF735FF20680007F7D5082060608F
:1014300010BDC04600000240F0B581B00125EC03AC
:10144000214801782148002911D01E490978002936
:101450000DD0290302680A430260002101641F487D
:101460000078002824D003F0D7FB022522E0011FDA
:101470000A6852040CD5164A1278002A08D0AA032A
:10148000144B1E68022737430826B7431F600260CB
:101490000A68920404D40968214211D029030EE09D
:1014A00029030160016CA943016404F0D3FB03E04C
:1014B00003F0F6FC0A480570074801682143016003
:1014C00001B0F0BD10050020170500200400024007
:1014D0001A0500202004004010040140E004002010
:1014E0000105002080B50120C0030249086003F017
:1014F0001DFB80BD14040140FEE700008268D20796
:1015000012D1C268094B13404A681A438B681343CF
:10151000CA681A43C26003229207036993430968A9
:10152000194301610020704701207047C73FFFFF4A
:1015300070B58268D2070CD1C268074B134074C9DA
:1015400009681A4322432A4332430A43C2600020F7
:1015500070BD012070BDC0463CC2FEFFF0B584B036
:101560000B68002B49D000250191009010E07F43CB
:101570007F433B460F2159438E435D4335430098DB
:1015800005510199039D6D1C0B681C46EC4035D03C
:101590000122AA401A40F6D00395144654434B68E2
:1015A00026465E43032767430568BD433543056010
:1015B000FE4302935D1E2346012D05D88D685D43D1
:1015C000876837402F4387600D695D43C7683740A0
:1015D0002F43C760029D022D039DD4D1170A05D069
:1015E00024244D690659002FC1D104E020244D69FF
:1015F0000659002FBBD15B43BCE700234A68521E4B
:10160000012A05D8C968594342689A430A4342608F
:10161000002004B0F0BD000080B57D21C900FFF7B7
:1016200089FD401E0349486000208860052008604D
:1016300080BDC04610E000E0B0B504463E4D2868CD
:101640000C2101403D4808290FD12968C90300D465
:101650003B48A96A0F220A40511CFFF76BFD014667
:1016600028688002000F801C484320602968090612
:10167000090F354A515CC840606029684905490F27
:10168000304A515CC840A060B0BDC04610B50028CB
:1016900001D0002010BD284CE16A03200840C0465C
:1016A00078440079400087440130242920680C21C7
:1016B0000140224808290FD12168C90300D42048DD
:1016C000A16A0F220A40511CFFF734FD0146206831
:1016D0008002000F801C4843216822685205520F87
:1016E000184B9A5C0906090F174B595CC840D0404B
:1016F00010BDE06902210140880310BD201F006871
:101700008007C1170D48084010BD20680C2101401A
:101710000A480829ECD12168C90300D40848A16A05
:101720000F220A40511CFFF705FD01462068800288
:10173000000F801C484310BD0410024000127A00C4
:1017400000093D000E5F0008FE5E000801490860C8
:101750007047C0469C010020B0B51F22D30234C997
:101760009C433F239B029D430B782B4323430F2431
:101770002403A2431A4303239B034C688D689C43B4
:1017800014434988034A0A4022432A434264002002
:10179000B0BDC046FF1F0000B0B505680122940728
:1017A000A04205D0234B984202D0234B984217D138
:1017B00070239D434B682B43204DA84214DD204CE1
:1017C000A04206DC1B4CA04216D0204CA04213D0F5
:1017D0002EE01C4CA0420FD01B4CA0420CD027E0A6
:1017E0002B46164DA842EADCA04205D0124CA0427E
:1017F00002D0174CA0421BD103242402A343CC687F
:101800001C4304608B68C3620B888362974BC318C8
:101810000A24E341072B06D814469C40E1231C42CE
:1018200001D0097C01634169114341610020B0BDD1
:101830001C46E6E7002C014000040040FF2B01405D
:10184000FF43014000480140004401400040014086
:1018500000200040F0B584B00123FF2944DC0129B9
:101860007FD0102900D0FBE0016A10239943016268
:10187000016A3023994313695B085C010C431768C4
:10188000516809012143794C06190A24E64145684B
:101890008469072E1ED803970127B740E1263742F7
:1018A00017D00326B602B543536902939769D369EB
:1018B000BF002646704C3C402C43DD002543344697
:1018C000C0239943029B5B08DB010B4391688901AC
:1018D0001943039F456073231B029C433B02234330
:1018E0008361D268826376E001273D02A94274D009
:1018F0003D03A94200D0B3E0016AA94301625B49FC
:1019000045180A21CD41016A43681468029454685D
:10191000019414690394C669072D00D9A3E03C46DD
:10192000AC40E1252C4200D19DE0BC03A343946967
:10193000A4011C43019D446073231B029E43029B30
:101940001B023343C361D268026403221203914332
:10195000474A1032039B1B0313400B4329031943CF
:1019600039E00127F943036A0B40036213690B4016
:10197000046A032102918C431C4316685168214379
:101980003A4BC3180A24E34145688469072B1BD8E6
:1019900003963E469E40E1231E4214D0029B1B024A
:1019A0009D437B02566902969769D6699F432F43F0
:1019B00075003D430C239943029B5B08DB000B43FE
:1019C000916889001943039E456073239C43344307
:1019D0008461D2684263016241E0016AA943016205
:1019E0002449491C13691B020B400321029109027F
:1019F000056A8D431D431168039151680B022B4307
:101A00001A4941180A25E9414668C56907291DD8C0
:101A10008F40E1210F4219D0029C21038E4351696E
:101A200001919169D76900970901114F0F40374320
:101A300000994E013E43A1028B430F49091D019CB1
:101A4000A4020C401C4391688B022343466073211F
:101A50008D4303990D43C561D168C16303620023BF
:101A6000184604B0F0BD1C4664E7C04600D4FEBF73
:101A7000F0DFFFFFFFFDFFFFFCF7FFFF70B584B055
:101A8000024603680120DB0728D11368294C1C405B
:101A90004B682343CC681C430B6923438C691C436C
:101AA000146003231C035568A5438C682C435460C1
:101AB0001B0294689C434B69234393601E4B9A42DC
:101AC0000ED01E4B9A4209D10E4605461446002000
:101AD000FFF7DCFD0246002A28460BD104B070BD9A
:101AE0000E460546144601A8FFF7A6FD039A002AF4
:101AF0002846F3D031680029F0D00120C003B36933
:101B000083420DD150004A081018FFF713FB0C490F
:101B100001400007400F4018E060002004B070BD95
:101B200048088018FFF706FB80B2E060002004B090
:101B300070BDC046F369FFFF00440040003801401B
:101B4000F0FF0000064807490160074901600221D3
:101B500041607D2149018160044901607047C046B0
:101B600000300040CCCC000055550000AAAA00006F
:101B7000F0B59FB000251D951C951B951A951995DC
:101B80001895179516951595149513951295119509
:101B900010950F950E950D950C950B950A95099539
:101BA00008950795069505950124E20203926A4976
:101BB000486810434860486810401E901E9819A954
:101BC0000D740D801C95104631381B901A95634E8C
:101BD0003046FFF7E1FD3068802104910843306012
:101BE000B0685F490140B160B069082101910843C4
:101BF000B06112951395149515951695179518952E
:101C00006020119011AF304621463A46FFF722FE80
:101C10000420C1430091B0690840B061B0690399E4
:101C20000843B06113951295102130463A46FFF7EC
:101C300011FEB0694B490840B061F0690199084351
:101C4000F061139512952102019130463A46FFF753
:101C500001FEF06900990840F061F06903990843BA
:101C6000F06113951295210330463A46FFF7F2FDD5
:101C7000F0693C490840F0617068702188437060E9
:101C80000BA9CD812D200873B068049A9043B060F1
:101C9000109560030F900D950C950B953046FFF74E
:101CA0005BFD274660042C4B1968014319601968D5
:101CB00001401E911E98A004029419680143196006
:101CC000196801401E9102240A9409950895079508
:101CD000069405941E98244805AE3146FFF73EFC55
:101CE0000A94099508950795069405971E4831466C
:101CF000FFF734FC0A940995089507950694049813
:101D000005900920C70638463146FFF727FC0A949C
:101D10000995089507950694029880020590384623
:101D20003146FFF71BFC0A94099508950795069420
:101D300002984002059038463146FFF70FFC0A949E
:101D400009950895079506940198059038463146FF
:101D5000FFF704FC1FB0F0BD14100240002C01403E
:101D6000F8BFFFFFFFFBFFFF00040048704770470C
:101D7000F0B581B0334801680125A9430160324CB8
:101D8000E07CE17B01290AD1401CE074C1B2072943
:101D900003D32E480573E5742846284009E0411E08
:101DA000E174080603D1294805730621E174284629
:101DB0008843A073EFF3108072B6244FF87B00289D
:101DC00002D1E07C00F01EFA62B600F0FBF9204E72
:101DD00030682049884200D3E5720020F8763877D1
:101DE000E07C40008019216D41824820385A4A2207
:101DF000BA5A101840084018410821652F22F04BAC
:101E00009A5C002A03D07A7F4A43910902E0A278C3
:101E1000010951438008401A4222B8523987E07ABA
:101E2000002805D0B0680C49884207D901B0F0BD40
:101E300001F03CF8B06808498842F7D8401CB0600F
:101E400001B0F0BD0C200040C000002000050020C3
:101E50007C050020C50900000F270000704770476F
:101E6000B0B545490A68012002430A600968434D3C
:101E70002968014329602968890708D429688907E6
:101E800005D42968890702D429688907F3D52B6806
:101E900080210B43782293432B606B6B03436B636E
:101EA0006B6B9B0708D46B6B9B0705D46B6B9B0715
:101EB00002D46B6B9B07F3D56B6B0B4393436B6344
:101EC000696A01436962696A890708D4696A89078E
:101ED00005D4696A890702D4696A8907F3D53D2167
:101EE00009046A688A430521C90451186960E96ACE
:101EF0000F229143E96201062A680A432A604106DB
:101F00002A680A4208D12A680A4205D12A680A4288
:101F100002D12A680A42F3D06968F02291436960CD
:101F2000072109026A688A436A60696802220A43D3
:101F300082436A6069680C20014008290BD06968F7
:101F40000140082907D069680140082903D0696861
:101F500001400829EED10A4C2046FFF75DFB2046E0
:101F6000FFF7F4FB686B042188436863286B032147
:101F700088432863B0BDC0460020024000100240E4
:101F8000006CDC027047000080B50120C0430249AC
:101F90000860FFF7EDFE80BD102000400220C04326
:101FA00007490A68920703D40A68D20704D1704728
:101FB00008600A68D207FAD0401C08607047C04623
:101FC00010400140704700000220C04307490A68E2
:101FD000920703D40A68D20704D1704708600A68E0
:101FE000D207FAD0401C08607047C046102C014050
:101FF0000220C04307490A68920703D40A68D2073F
:1020000004D1704708600A68D207FAD0401C086003
:102010007047C0461004004080B505480168C907F4
:1020200004D00121C943016003F008FC80BDC04613
:10203000101000407047000081B00020009022483E
:10204000026822490A405218183202600268002AC7
:1020500008D50268002A05D50268002A02D5026860
:10206000002AF3D401220092009B002B17D0009B82
:102070005B1E0093009B002B11D0009B5B1E009306
:10208000009B002B0BD0009B5B1E0093009B002B42
:1020900005D0009B5B1E0093009B002BE7D10368DB
:1020A0000B4013430360014608390A68D20708D180
:1020B0000A68D20705D10A68D20702D10968C907A0
:1020C000F1D001B07047C04608240140E8FFFF7F0F
:1020D00070B5F44B1868042101430820814319604E
:1020E00002249C6203210A050920C0060568954365
:1020F00001221605AD190560950285621D6815431C
:10210000A5431D609A628B0404689C439304E31802
:102110000360530283628B0304689C439303E318B8
:10212000036080238362090403688B4311045918F8
:1021300001601102816270BD70B5DB490A7DD94C26
:1021400020680C239843002A03D008221043206003
:1021500004E00422104320600220A0620322130541
:102160000920C00605689D4301235E05AD19056081
:102170000E7D25689543002E03D002263543256049
:1021800002E01D432560A36294040568A543DC04B6
:102190002C1904600C7D95030168A943002C03D021
:1021A000DC032143016004E09C03214301608021A2
:1021B0008162110402688A4359045118016070BD9C
:1021C000D90600200C4800680009182801D8002012
:1021D00000E001208000B8490A6804239A431018DF
:1021E0000860064801784A424A415105044A116094
:1021F00000784005506070477C050020CE0000202C
:1022000008040140F0B5411E052900D948E1092024
:10221000C006C0467944097949008F4402B95C8AF6
:102220002FE70323990302688A4301218C031219C3
:102230000260802282621A04046894430A04A2188D
:1022400002600A028262974A15680D430224A54380
:10225000156091619B0405689D438B04EB18036036
:102260004B028362904B1D7D13680C26B343002DF7
:1022700000D1FBE0082423431360FBE089490A688E
:1022800004231343082293430B6002238B6203242D
:1022900022050568954301221605AD1905609502D2
:1022A0008562A5030668AE43950375190560802510
:1022B000856125040668AE4315047519056015028D
:1022C0008562794D2E7D0D68A543002E00D1BBE0BF
:1022D0001D430D60BBE0734A1168012319430224BA
:1022E000A1431160936203218D040668AE439D04EF
:1022F000751905605D028562156804262E43082560
:10230000AE43166094610A05046894431A05A21846
:1023100002609A028262644A157D890304688C43D4
:102320005904644A002D00D195E0DB031C4304608E
:10233000AFE003218A030468944301239A03A2189F
:102340000260802282620A04046894431A04A2187C
:1023500002601A028262534C226804251543082247
:10236000954325600225A5610A05066896431A056E
:10237000B21802609A0282624B4A177D26688E4329
:10238000D9044B4A002F6CD02E432660512381E0A4
:10239000444A116804230B4308218B431360022431
:1023A000946203210B0505689D4301231E05AD19A9
:1023B00005609D02856215681D43A5431560936104
:1023C0008A04046894439A04A21802605A02826242
:1023D000354A157D890304688C435904354A002D1C
:1023E0004CD0DB031C430460612353E02D4B1A687F
:1023F00001210A430224A2431A6099620322950430
:102400000668AE438D04751905604D02856295031B
:102410000668AE438D037519056080258561120439
:10242000056895430A04AA1802600A0282621E4ADD
:10243000167D1D680C22954349051C4A002E24D0A8
:10244000082425431D6024E015430D608A62D104F1
:102450006123174A1EE09B031C43046080238362B0
:1024600017E01E432660A362512313E004252B438B
:1024700013609462490551230C4A0BE09B031C43F3
:10248000046080238362612304E0042635431D60D9
:102490009C624123046814400C43046006480360B6
:1024A000F0BDC04600040048D9060020FFFFCFFF62
:1024B000FFFFF3FFFFFFFCFF1C000140F0B589B0F8
:1024C000E0480268C16F891ADF4DA9818BB25909B2
:1024D0006981DE4C2488A34200D823E1DC4C2488A7
:1024E000A34200D31EE1DB4B00271F8043689A1AEA
:1024F00092B201268A42324600D83A462A6282685F
:10250000C3689A1A92B28A42324600D83A466A6240
:10251000026943699A1A92B28A42324600D83A4610
:10252000AA628269C3699A1A92B28A42324600D874
:102530003A460792EA62026A436A9A1A92B28A4259
:10254000324600D83A4606922A63826AC36A9A1AC9
:1025500092B28A42324600D83A4605926A63026BCA
:10256000436B9A1A92B28A42324600D83A46049293
:10257000AA63826BC36B9A1A92B28A42324600D81F
:102580003A460892EA63026C436C9A1A92B28A4203
:10259000324600D83A4602922A64826CC36C9A1A78
:1025A00092B28A42324600D83A4601926A64026D7B
:1025B000436D9A1A92B28A42324600D83A46009245
:1025C000AA64826DC36D9A1A92B28A42324600D8CA
:1025D0003A460392EA64026E436E9A1A92B28A42B3
:1025E000334600D83B462B65826EC46EA21A92B267
:1025F0008A42344600D83C466C65026F456FAA1A81
:1026000092B28A42324600D83A46B54DAA65856FE5
:10261000C06F401B80B2884200D83E46B048C665B5
:10262000016A456A806A069F7940029F7940C90025
:10263000059F7D40019F7D40AD000D4304994840BA
:102640000099484047000898079948400890D800EA
:10265000A100081851004418A2480078A24B19782C
:10266000C9B201430DD100F075FD9F4B002808D081
:102670009B490879401C0871C0B2652801D301202C
:102680001870A0193D43089A03994A401978002907
:1026900001D00F214840FE210D40A91888423BD1AE
:1026A0008F4C226A636A27462837E1CFA16B0791D6
:1026B000E16B089192025B02134302021A43EB01A1
:1026C0001343B2011A437B011343079801011943D5
:1026D0000898C0000843216C636CA26CE66C8D0006
:1026E00005435900294325460020EB4B1880E38918
:1026F0005B1CE381012E02D17C4B01241C70114331
:10270000AA79002A15D0022A0ED0012A1ED1022051
:10271000A871298209B0F0BD002071498871488AEA
:10272000401C488209B0F0BD0320A871E97109B0CE
:10273000F0BD302915DB6A78002A12D06C480022DF
:102740000270DC480180AA7009B0F0BD032AE9D10B
:102750002529E7D1298AEA79D34B5A54A87109B0BF
:10276000F0BD4A1E2E2A06D861480170D1480022C9
:102770000280C8B20EE0002902D05D48007809E06E
:102780002978012901D10021697059490870C94986
:102790000880A8700028C5D0564909780029C1D101
:1027A000504909780029BDD0E978884202D000213B
:1027B000A970E870052805D3A978491CA970C9B289
:1027C0000629AFD3294600258D70411E232900D943
:1027D00080E0C0467944097949008F44114E2F6B3F
:1027E0006F3D525978737B1D42277B7B7B7B7B152A
:1027F000607B7B7B7B7B7B7B7B7B7B7B7B7B7B6659
:102800003E490120087065E0A748407C0121081A74
:102810003949087014205DE002F048FAA248407C73
:10282000401C364908703248007853E02C494D71FD
:1028300007204002FF3008810E204BE02F49032083
:10284000087047E0D805002080040020F004002034
:102850004001002044050020294801210170062084
:1028600038E001211E4B59710720400218811A7867
:102870000D20012A2ED159702CE020490220087029
:1028800028E01D480121017087484574072021E098
:102890001948057084480121417408201AE08248D3
:1028A000407C15490870152014E001200C498871FE
:1028B00024200FE01149042008700BE00F49052087
:1028C000087007E07848012181740A2002E0764808
:1028D0008574092006490D700A49087009B0F0BDD9
:1028E0008004002017050020100500200E050020A0
:1028F000D806002013050020CF0000200B05002083
:102900002005002030080020F0B581B05E4E03CED7
:10291000081A5E4941185F4A083E91420ED85E4D42
:1029200000242C805D4B5978002909D0D9780029E2
:1029300066D1997800292DD018892CE0544D8BE070
:102940001E465949897C00290DD059490A887D21A4
:10295000CB00904215D9524C248809010091511C9A
:102960005B1C224611E04E490A88504909887D23A4
:102970001B012F3300932F2301F01CFF312806DAAF
:1029800006E04A4909880093002301F013FF04463A
:10299000346161E01881491C9970414F398880B2D7
:1029A00000F0BCFB332803D33C4B5C70394620E07D
:1029B00038880721414305CE101A4018C0083880D6
:1029C000364B9978083E3329394612D3193881B2EB
:1029D000344A8918CA0F8918490821221F46324BE8
:1029E00099540121F9702E49088001F0D5FF2C4936
:1029F0003B4608881881D87800282DD003CE081AC5
:102A000019797D22D200FA3290420DD2491C1F461C
:102A10001971264A138807265E433018C0081080B3
:102A2000C8B24C2804D217E01F46C8B24C2813D3B2
:102A30001E48018819318AB2144B9A183332D30FC9
:102A4000D21852082023184EF2547C70018002F0F4
:102A50002DF93C7101F07CFF002028801548028888
:102A60000E4909698C1A144B1B689C4201DDD11870
:102A700006E0541A9C4203DDD11A018001B0F0BD7A
:102A8000018001B0F0BDC046D8050020DFFCFFFF8B
:102A90003A0500207605000044050020E4040020EB
:102AA000DC0000202AF9FFFFD9060020DA00002010
:102AB000DE0000203E050020A801002080B265490C
:102AC0000A680B689B1A9BB298420ED90B689B1A36
:102AD0009BB2984209D90B689B1A9BB2984204D9C1
:102AE0000B689B1A9BB29842EBD8704770B50028D0
:102AF0003DD0032505407D21C900554A554B002D89
:102B0000044632D01C681E68361B16408E420ED218
:102B10001E68361B16408E4209D21E68361B1640B0
:102B20008E4204D21E68361B16408E42EBD3012D16
:102B300003D1441E042836D219E01C681E68361BD7
:102B400016408E420ED21E68361B16408E4209D2A7
:102B50001E68361B16408E4204D21E68361B164075
:102B60008E42EBD3022D03D1841E04281BD270BDEC
:102B70001C681D682D1B15408D420ED21D682D1B33
:102B800015408D4209D21D682D1B15408D4204D27F
:102B90001D682D1B15408D42EBD3C41E042802D2A4
:102BA000E5E7241FE3D018681D682D1A15408D42F3
:102BB0000ED21D682D1A15408D4209D21D682D1A9E
:102BC00015408D4204D21D682D1A15408D42EBD35D
:102BD00018681D682D1A15408D420ED21D682D1AD9
:102BE00015408D4209D21D682D1A15408D4204D220
:102BF0001D682D1A15408D42EBD318681D682D1ADB
:102C000015408D420ED21D682D1A15408D4209D2F5
:102C10001D682D1A15408D4204D21D682D1A1540CD
:102C20008D42EBD318681D682D1A15408D42B8D21D
:102C30001D682D1A15408D42B3D21D682D1A1540FE
:102C40008D42AED21D682D1A15408D42EBD3A8E7F8
:102C5000F8FF000024480140F0B57F4BC9337F489E
:102C600043807F490F6800252A4603E05218283523
:102C7000782D77D07A494E197168CF1B1BD1B76870
:102C8000791A21D1F168CF1B27D13769791A2DD153
:102C90007169CF1B33D1B769791A39D1F169CF1B6B
:102CA0003FD1376A791A45D1716ACF1B4BD1B76AC8
:102CB000791ADCD050E09CB2A74201D247803B4653
:102CC000D219B768791ADDD09CB2A14201D24180F5
:102CD0000B465218F168CF1BD7D09CB2A74201D245
:102CE00047803B46D2193769791AD1D09CB2A142AC
:102CF00001D241800B4652187169CF1BCBD09CB2D8
:102D0000A74201D247803B46D219B769791AC5D08C
:102D10009CB2A14201D241800B465218F169CF1BEF
:102D2000BFD09CB2A74201D247803B46D219376A36
:102D3000791AB9D09CB2A14201D241800B465218F7
:102D4000716ACF1BB3D09CB2A74201D247803B46E9
:102D5000D219B76A791A8AD09CB2A14286D2418030
:102D60000B4683E751093F4DA9613F4C217801296A
:102D700025D1591E89B202290AD80F21C9018A42D8
:102D800006D20021A971394E31700E2636490EE067
:102D9000191F89B2042912D81921C9018A420ED2F9
:102DA000324901260E7030490E70A91D0726304F9A
:102DB0003E7001260E70202101702E490E701F46B4
:102DC000C93F2D49097801290DD1BDB2224EB54226
:102DD00009D2264D2F262E700125274E357002264A
:102DE0000670244E357025780D4300D0F0BD591E75
:102DF00089B202290AD80F21C9018A4206D20021CC
:102E0000184A9171194A11700E210EE0191F89B2EA
:102E10000429144B13D81921C9018A420FD213492E
:102E200001220A7022709C1D0721114A1170012194
:102E3000217020210F4A012313700170F0BDB9B237
:102E4000054A9142D2D209492F220A7001210A4A29
:102E500011700221EEE7C046574D00003C010020F2
:102E6000D8050020E404002019050020A40100205A
:102E7000E1040020180500201A0500200748084931
:102E800081600849C1604168074A0A40D11C41601D
:102E9000016801220A4302607047C04608000240F0
:102EA000402401409C0500200000FFFF0120400558
:102EB0007A490A6802430A607047C046F0B58DB08F
:102EC0006B480168012631430160016810220A4302
:102ED00002603302016819430160016804220A4359
:102EE0000260016840220A430260B10202680A439C
:102EF0000260310302680A430260642101620146F4
:102F000020390A6832430A60F203416A029211438F
:102F100041620C380168314301605648016A31430F
:102F2000016201683143016000270B970A970997F6
:102F3000089707970697B0044F490A6802430A604A
:102F4000096801400C910C984C4C0193236020209F
:102F5000059020600820049020600796069325467F
:102F6000283D06A903912846FEF7F8FA0A97099723
:102F7000089707960598069028460399FEF7EEFAFB
:102F80000A97099708970796049806902846039988
:102F9000FEF7E4FA01982060103C05982060049840
:102FA0002060374801460C390A6832430A6081685C
:102FB000314381600168314301600168B1430160C0
:102FC0003048016831430160416931434161B007D4
:102FD0000168314301604169314341612A48016818
:102FE00031430160416931434161C1683143C1608E
:102FF000FEF762F9FFF742FFFFF71EF80697544805
:10300000016831430160214800682149FEF792F8C8
:103010000621414306910698002817D00698401EC5
:1030200006900698002811D00698401E0690069833
:1030300000280BD00698401E06900698002805D060
:103040000698401E069006980028E7D1FF2000064B
:1030500010490A688243F007101808600E48802162
:1030600001600E480168029A114301600DB0F0BD85
:10307000202C0140000400401410024028040048A5
:103080000C20004000480140001000409C0100203E
:10309000400D030004E400E000E100E00004014012
:1030A00070B5194B18680421014308208143196049
:1030B00002249C6103210A050920C0060568954386
:1030C00001221605AD190560950285621D6815433C
:1030D000A5431D609A618B0404689C439304E31824
:1030E0000360530283628B0304689C439303E318D9
:1030F000036080238361090403688B43110459181A
:1031000001601102816270BD00040048024801683C
:1031100001220A4302607047142C0140401AC11773
:103120004840401A7047000007480068C00007493F
:103130004018012189038140054A12680A400E3077
:10314000C240D0B27047C046A001002020FFF7FF68
:103150001C00014002480168102008407047C0462A
:1031600010040048F0B5002934D001220A4001299A
:1031700033D100210D46002A2AD0425C6A4051001A
:10318000072052B2002A00D5C1E04A0049B2002906
:1031900000D5C2E0510052B2002A00D5C3E04A0077
:1031A00049B2002900D5C4E0510052B2002A00D52E
:1031B000C5E04A0049B2002900D5C6E0510052B22C
:1031C000002A00D5C7E04D0049B2002900D545408E
:1031D000E8B2F0BD0025E8B2F0BDFE230B400021AF
:1031E0000D4602E0891C8B42C5D0465C6E407500DE
:1031F000072476B2002E40D46E006DB2002D41D46B
:10320000750076B2002E42D46E006DB2002D43D40C
:10321000750076B2002E44D46E006DB2002D45D4F8
:10322000770075B2002D46D47D007EB2002E00D509
:103230006540461876786E40750076B2002E40D410
:103240006E006DB2002D41D4750076B2002E42D4CE
:103250006E006DB2002D43D4750076B2002E44D4BA
:103260006E006DB2002D45D4770075B2002D46D4A6
:103270007D007EB2002EB5D547E065406E006DB290
:10328000002DBDD56640750076B2002EBCD56540D8
:103290006E006DB2002DBBD56640750076B2002E73
:1032A000BAD565406E006DB2002DB9D56640770085
:1032B00075B2002DB8D567407D007EB2002EB7D420
:1032C000B7E765406E006DB2002DBDD56640750054
:1032D00076B2002EBCD565406E006DB2002DBBD518
:1032E0006640750076B2002EBAD565406E006DB2AC
:1032F000002DB9D56640770075B2002DB8D567406E
:103300007D007EB2002E00D46CE765406AE7414044
:103310004A0049B2002900D43CE74240510052B271
:10332000002A00D43BE741404A0049B2002900D4BA
:103330003AE74240510052B2002A00D439E74140F6
:103340004A0049B2002900D438E74240510052B245
:10335000002A00D437E741404D0049B2002900D58A
:1033600035E735E710B582B047490B6801204207C1
:1033700013604B6853608B689360CB68D3600B69B4
:1033800013614B6953618B699361CB69D3610B6A9C
:1033900013624B6A53628B6A9362CB6AD3620B6B84
:1033A00013634B6B53638B6B9363CB6BD3630B6C6C
:1033B00013644B6C53648B6C9364CB6CD3640B6D54
:1033C00013654B6D53658B6D9365CB6DD3650B6E3C
:1033D00013664B6E53668B6E9366CB6ED3660B6F24
:1033E00013674B6F53678B6F9367C96FD16727491B
:1033F0000B68274A13604B6853608B689360CB68F7
:10340000D3600B6913614B6953618B699361CB691D
:10341000D3610B6A13624B6A53628B6A9362CB6A05
:10342000D3620B6B13634B6B53638B6B9363C96BEF
:10343000D16318490A6802430A6009680140019192
:103440000198154801680324A143016001682143E4
:1034500001607D20C10011480068FDF76BFE401E31
:10346000010E00D0FEE793490D4A50600D480368F5
:103470000B40A107591801600020906007201060E0
:1034800062B602B010BDC0460010000880100008EF
:103490008000002018100240000001409C01002024
:1034A00010E000E020ED00E0F0B593B0FEF7D8FCAE
:1034B0007C4B58680126019630435860586830406C
:1034C0000C900C9830079968014399609968014005
:1034D0000C910C9874480168102207921143016006
:1034E0007504186828431860186828400C900C98D8
:1034F000B1040891186808431860186808400C90D7
:103500000C980920C1060491F003886218683043C2
:10351000186018681F4630400C900C98FF200B90E4
:103520000004624A11688143B00508181060B002B7
:103530005F49086010685F4B1840B40700191060BD
:10354000F0020A900860FEF713FBB8683043B860D9
:10355000B86830400C900C98172003900994A06232
:103560005548E0620024119410940F940E940D9429
:103570000C943868059528433860386828401290C4
:1035800003270D970297022006900C9012980CAE1C
:10359000049D28463146FDF7E1FF10940D97202049
:1035A0000C9028463146FDF7D9FF404948680B9AF0
:1035B000904348600D467D204001014660313C4B00
:1035C0001960019E3102374FBA680A43BA60BA687F
:1035D0000A400C920C993949039A8A62C862A86819
:1035E000344A1040A860F00418600A688020024342
:1035F0000A60B968079D2943B960B96829400C91F0
:103600000C990B990902294B9A688A4302998903FC
:10361000511899602649059A0A6029492F220A60A3
:1036200032234B607968089B1943796079681940A7
:103630000C910C9923498A621F4ACA620A68824324
:103640000A60119410940F940E940D940C94B86821
:1036500006990843B860B868084012901298386814
:1036600018433860386818401290129811961094D8
:103670000F940E940D910C9513480CA9FDF76EFF55
:103680000A4A10680B4908400999401810600A98C6
:10369000074908600D4804603F21416002F030F89E
:1036A00013B0F0BD141002400020024008E400E016
:1036B00000E100E0FFFFFF00FFFF000000200040EE
:1036C0002810004000480140000400482804004041
:1036D000B0B5244C20687E2819D323480168C5481A
:1036E0007C2909D84021415AC9084A2904D8A1682F
:1036F00089087D2900D2B0BD417D491C4175C8B201
:10370000652804D301F078F80020A060B0BDAE4C6D
:10371000607B002809D00025FFF706FDA17B8842C9
:10372000E9D06D1C607B8542F6D3EFF3108072B652
:1037300001F062F84A20AF490A5A4823CA520A4A9D
:1037400013680B5200201060084A90614223C95A46
:10375000491C11625060106801210143116062B67A
:10376000B0BDC0467C050020240000400C20004075
:10377000F0B583B0944EF16C944CC022204601F019
:1037800021FAE07D042801D30220E075207E014665
:1037900008398F4A8F4F904D28291AD818281CD3E2
:1037A0000097182130222B4601F004F87086207E05
:1037B00001460C390B2914D9FC21014008291CD1E0
:1037C0008649009107211022864B00F0F3FF708696
:1037D00014E01046F930308611E001460C390B290F
:1037E000EAD800950C2118227D4B00F0E3FF70868B
:1037F000207EFC2101400829E2D0708E85B27A48F3
:1038000018380560607E0146323964290AD8217D66
:1038100000290CD030850321FDF78CFCB0850A30DF
:10382000F0850AE05520B0859620308505E04108F6
:10383000B185400030850A31F185A07E2825684396
:103840001430B082022001F051FF6078002841D08E
:10385000A07F0B2800D9052001F048FF2721002078
:10386000029060542321615C31712221615C5F4AC6
:103870008918F1832521615CFA3131842021615C52
:1038800049005B4A891871832121615C49005048D5
:103890000918B1832421615C491E4A424A415549B5
:1038A000CA70625D1A3A1523DB439A4201D8052299
:1038B00062552925675D0B3F0A23DA43974200D8FA
:1038C00063552A27E05D05460A3DEDB2F62D03D883
:1038D000E35517E0B58A5DE00923DB4343433D3BF5
:1038E000F370D8B2338D1B183385B38D1B18B38595
:1038F000738F1B187387738D1B1873853A4D2B6854
:1039000003432B60334F2B23E05C8D384725ED4379
:10391000A84201D8FF20E0542C20205C401E6228E1
:1039200001D8012088712D23E05C0B38904201D82A
:103930000520E0542E20235C092B0AD8042B0ED836
:103940000A461A327B441B795B009F440231060809
:103950003300029888764876274A01201070B58A8D
:10396000A8084A2801D80298B071E17E2020FDF70E
:10397000E1FB04460C212846FDF7DCFB2146FDF760
:10398000D9FB308764212846FDF7D4FB2146FDF79B
:10399000D1FBF0864B2081000846C83000900F48CC
:1039A000C21C7B1C284600F005FFB08403B0F0BDAC
:1039B0000120D0E71048029A0270104801220270DC
:1039C00019310A46C9E7C046C0000020D9060020C8
:1039D000D6060000E7030000CF070000B50B00008B
:1039E0009E0F00006D170000442C01405E05000092
:1039F000EE02000000050020810400208004002069
:103A000000B58FB0FFF7AEFC7F2045012868ED4977
:103A1000884211D16868EC4988420DD1287B1F2863
:103A200007D02B2803D0352806D1E84802E0E84823
:103A300000E0E848E849C864FFF736FDFFF73EFAC2
:103A4000FFF796FEE54CE17802200890414020798E
:103A5000C2B2122042400A4304D16178DE4A127891
:103A60008A421FD93121E1733521A173302161735D
:103A7000462121732021E1724821A1724321617204
:103A8000452222725422E2714222A2716171207198
:103A90000220E070D04801786170C26CC0212046DD
:103AA00001F012F9CC4A508E1086607C401E411EF7
:103AB0008841D073207D002801D10020E0742620A9
:103AC0000290205CC64B002813D00020E074012136
:103AD000A17491716075A07520751846BE3050872D
:103AE000908D32309085D08D3230D085108D32302F
:103AF000108500F0D7FFBB4F00267E87FEF722F827
:103B0000B948BA49016001F087F83878002801D037
:103B1000012078711F35B648016829400160F966B7
:103B20000068010C3967000FAB4C394601D11920F0
:103B3000C64301200C908E7701F0BAFDFF2007905C
:103B400068300E907D2081000691C1000B9100012C
:103B50000D90A44D07E0A748076047608760FEF717
:103B6000B7FA5A202F52A4488068052801D3089834
:103B700000E00420A07460749F4AD08A918A0818DB
:103B8000118B4018518B4018918B4018D18B4018E5
:103B9000001D4008D0609448944901608F4F787DA3
:103BA000012809D1206D618E00914B086021C82247
:103BB00000F000FE2086787D022815D18E4800682E
:103BC00001466539942902D8052141430BE0411E85
:103BD000632902D20E998D3105E0F921C943FA38E3
:103BE0008842864900D821864420285A8449884240
:103BF00009D3E97D002901D000F09CFC814988426D
:103C000001D300F0B5FCA88D7F49884232D32D2026
:103C1000C100EC8D2004FDF7ADFA696F40186867AC
:103C20007A480078032811D0022807D001281FD134
:103C3000E87F0E9908189930022115E0E0B2292199
:103C40004143C80A03214A0280180DE05420285A33
:103C50006F494143090C401A400840180009C0B29E
:103C60005F490818D6300121684A117069490880F7
:103C70000020A8856048866801210023642E0A463A
:103C800000D81A46A88E80B2C82800D319464342ED
:103C900043410B9CA6420C9C00D81C46002C01D131
:103CA0000A4001D00021A974F97C00294A4C03D0B4
:103CB0009F2801D80021A974297A002906D00E99DD
:103CC0002931884208D20020A87405E0952801D83F
:103CD000642000E00A20E071474FF86803210A9150
:103CE000FDF748FA38600B2E3C4F30D30146287B55
:103CF00000282CD0404E3069FFF710FA31680D9A39
:103D0000914220D24A0890421DD900203A4A906040
:103D1000EA79521CEA71226D0B9B9A4200D901206C
:103D2000AA8F92B22F2A0C9A00D8BFE2BB7C002B3C
:103D300000D0C0E2012A01D10020E8740120E07225
:103D4000208D400828862C48016100202873226DB0
:103D50002B7C314808380168304E3140002B10D0A0
:103D6000792A0ED301602C4A10682C4908402C494E
:103D7000081824381060101F016840200843BF2134
:103D80000BE0274A511824390160234A106823495F
:103D900008401060101F006807998843111F0860D1
:103DA000A87B00283ED076202B5A5420295A5A202E
:103DB0002C5AEA8DE87F009400F022FC2C460E3449
:103DC0000A2038E0DAE32559D963B84E00F8000834
:103DD00000F80108007C0008C0000020D90600207F
:103DE0002A0300000005002000300040AAAA0000BD
:103DF00000580140342C01407C050020E204000002
:103E000011270000419C0000214E00008504002085
:103E1000AF4700008804002010E400E0FFFFFF002F
:103E2000240000402020285C002809D000F0D8FBA6
:103E30002C462034312001F07BF800202070C84C43
:103E4000687B401C6873C0B2C92875D3FDF720FA9F
:103E5000C44908884989091A5C22AA5A121A5020B2
:103E60005043FDF787F906461E365E202E52542435
:103E7000285B072747436020285ABB494843BB4972
:103E8000FDF758F9B649C98C484364210991FDF7FB
:103E900051F9C019C7082F53B5490868B54A1040F1
:103EA000001D08606A7C5300B34CE05A4621695AF1
:103EB000E152EE77521CD3B20026632B334600D872
:103EC0001346AE4C6374AE4B5A68101A40185860D3
:103ED0000999FDF72FF9E08680B2A067A24948430F
:103EE000A849FDF727F9010400D53046A34DE88520
:103EF000E87800289A4C1DD0687A218C4143B8B2EA
:103F0000814215D9688D401C6885297D9E4A5143A0
:103F10009E4A891880B281420CDA0024AC87FEF7F1
:103F2000D7F800F069FC6C87EC74EC758C4C01E000
:103F3000002068850020687300276F75287D0028A1
:103F40003CD0A88F312874D3E97D002971D088280E
:103F500000D92FE1A87800280FD08D4A10680121E0
:103F60008843106000F048FC00248A4804604460E4
:103F70008460FEF7E1F8AC70794C5027E95B4E267F
:103F80002A46AD5B4C20135AE27B002A0A9600D1E8
:103F90000BE24A1E11B200290E9900D411466A1E86
:103FA00014B2002C0E9D00D415465B1E1AB2002AD6
:103FB0000E9A6B4C00D50FE21A460DE27048C168AC
:103FC0007548FDF7D7F8E97C41435A20295288B259
:103FD00072494843C00C62216852A17900290D99A9
:103FE00009D0638F228FE18E5D4CA48F00945C4CCE
:103FF00000F0E0FB0146A1862B20694F3A5CE87F88
:104000009042684E09D9A38F0121009111460A39C7
:104010000A325B0800F0CEFBA0865948806863280E
:104020002CD8216D0698814228D90C20322931D311
:1040300031E00126AE705A49087F002800D18AE598
:104040002920085C4000658E2818133840214B4A0F
:10405000505281B2208E48432946FDF76BF8281A4A
:10406000464D401C5824285300F07AFD285B3C4CF8
:104070004849086048608860EE7372E5404800680F
:104080000C21009164210323069A00F093FB216D1B
:10409000322900D2022060732F20385C002809D01A
:1040A0004020285A1721009164210D230D9A00F019
:1040B00081FB687730683C49884200D253E5E87C50
:1040C000012800D04FE5A87C401CA87400F094FBA8
:1040D00001200990E072A88F2F2803D8334820656B
:1040E0000020E8740026264886602E4F38684A2152
:1040F00068523E60216D0A9A4A4380B21018010945
:104100002B4A1140C208521A4223EA528008206505
:10411000298790B21A498968052913D239681C4940
:104120000862E07CE17B012900D0C9E0401CE0741A
:10413000C1B207291A4F02D309982873E07409996C
:104140000840C8E039688142E9D239688142E6D244
:1041500039688142E3D239688142F3D3DFE7C04650
:10416000C0000020B8F7FF1FE40C0000FF0F0000A4
:1041700008240140E8FFFF7F3208002000050020EE
:104180007C050020010400007CFCFFFF204E0000A5
:104190000C200040342C0140C0270900CDCC000089
:1041A000D906002024000040C9AF00008813000099
:1041B000FEFF00000126AE7050200990285A4E21C3
:1041C00005916A5A4C210A91695AE37B002B0196AA
:1041D000039700D170E1431E18B200280E9800D456
:1041E0001846531E1AB2002A0E9A00D41A464B1EC5
:1041F00019B200290E9900D419460A9B099EA853AA
:1042000005982A52E95240200490205A09B24900E8
:10421000F14A515E4118608E48430D99FCF7AAFFA0
:104220002D262746F54CA15D48430A242146FCF77C
:10423000A1FF80B201F048FA0498385A0599695EE6
:104240004900E54A515E4118788E48430D99FCF7C4
:1042500091FFEA49895D484321462546FCF78AFFDC
:1042600080B201F037FA0498385A0999D14C615E4E
:104270004900D94A515E4118788E48430D99FCF7A0
:1042800079FFDE49895D264648432946FCF772FFDF
:1042900080B201F025FAA08FC82857D90A9803994F
:1042A00031520998F8873C460F4652E00246BB7CE3
:1042B000002B00D13EE50246012A00D13CE53DE558
:1042C000411EE1740806CD4F03D1099828730621D9
:1042D000E17409988843A073EFF3108072B6E87B0D
:1042E000002802D1E07CFDF78DFF62B6FDF76AFF82
:1042F000B7480068B049884201D90998E072EE7663
:104300002E77AE75B24A9068411C9160E07C400007
:104310008218206D5082029ABA5C531E9A417B7FAC
:10432000002B0C9B00D11346012B07D1142900D27E
:1043300019E40D99491C884204D314E40D9988426C
:1043400000D310E4E672FEF7B1FD0CE4F88F3C46B2
:10435000039FFEF7B3FB0A98305A0028354601D078
:10436000FFF701FC019EEE742F7594482065E672FC
:10437000974A1061106093490860EF7314209060B1
:104380009E48407F002801D0E08D2886207BE17B7D
:10439000012900D0A6E0401CE074C1B2072902D375
:1043A0002E73E67430463040A5E04C1C21B200224A
:1043B0000E9EB142114600DC21466C1C25B20E9EB9
:1043C000B542154600DC25465B1C1CB20E9EB4426D
:1043D00000DC1A46754C0A9E764BD9539D531A52EF
:1043E00040200590205A11B249007B4A515E411885
:1043F000608E48430D9E3146FCF7BCFE09972D2781
:104400007E4CE15D48430A252946FCF7B3FE80B2A5
:1044100001F05AF96548059C005B66490A9A895E75
:1044200049006D4A515E41186048408E484331460C
:10443000FCF7A0FE7149C95D48432946FCF79AFE86
:1044400080B201F047F95948005B0999594A515E19
:104450004900614A515E41185448408E48433146F4
:10446000FCF788FE654AD15D144648432946FCF7AF
:1044700081FE80B201F034F9E57E4D482946FCF713
:1044800059FE0646554829464A4D484CFCF752FE0F
:104490000346A88F00963021782200F08BF9E08740
:1044A00080B2FEF70BFB0E98F130E18FFCF742FE75
:1044B0005A216852FFF757FB431C18B20E9EB042B8
:1044C000384600DC1846531C1AB20E9EB2423A46D9
:1044D00000DC1A464B1C19B20E9EB142394600DC74
:1044E0008AE68AE6411EE174080602D12E7306218F
:1044F000E17430468843A073EFF3108072B6E87B16
:10450000002802D1E07CFDF77DFE62B6FDF75AFE81
:104510002F4800682849884200D9E672EF762F7745
:10452000E07C40002A494018216D4182FEF7EEFDF3
:10453000FFF719FBFDF7CCFD0020E875287622492E
:1045400008604860A8876887886000F0A7FB0120A2
:1045500001022048FCF7E3FDBFF34F8F18481B49C9
:104560000860BFF34F8F00BF00BF00BF00BFFAE776
:10457000FDF7AEFD0020E875287613490860486015
:10458000A8876887886000F089FB01200102114834
:10459000FCF7C5FDBFF34F8F09480C490860BFF316
:1045A0004F8F00BF00BF00BF00BFFAE7C000002070
:1045B0002A03000000050020C40900002823000091
:1045C0000400FA0524000040342C01400CED00E00A
:1045D0007C050020D8050020AC010020581B0000FD
:1045E000B0B5124CD649302520462A46FCF77EFD50
:1045F00020462946FEF7B6FD6055B0BDD90600201D
:10460000B0B50A4C049D2572A3712271A17020706F
:10461000280AE071180A6071100AE070080A6070D8
:1046200009212046FEF79EFD6072B0BDA405002062
:10463000F0B583B059490E89002E02D000200881C0
:1046400024E057490978002900D15648C10B0DD103
:10465000810B0DD1410B0DD1010B0DD1C10A0DD133
:10466000810A0DD1410A4A1E91410AE0072108E062
:10467000062106E0052104E0042102E0032100E018
:104680000221464A5161C8404E020643464800781E
:104690008000019045490B1840275F60310A44486B
:1046A000405C009084003846A0439860350969401A
:1046B00071400F2402948C4331010919374A9161EA
:1046C0000099CA003A404240DA60C80302990D409E
:1046D00037494D5DA90201433548005D0090029CB9
:1046E0002640334CA45D02946601064334460C43D5
:1046F0002A48C461C80A3840504018618A0A3A40C2
:1047000042405A61480A384050409861A9003940F7
:104710004140D961E800384048401862A109394059
:104720004140596260093840484098622109394047
:104730004140D962029A9000384048401863D10045
:104740003940414059633F20C043014072083A401C
:104750004A409A6371003E405640DE6339407140E2
:1047600019640022114C019D6251009CA2003A4044
:104770004A405A64E10039405140996422013A406C
:104780004A40DA6402406001384050401865E10751
:10479000490E4140596503B0F0BDC0468004002079
:1047A00013050020FFFF0000E10400209C0700200B
:1047B000165F000870B5049D884214DD2C4625461E
:1047C000904214DAAB4215D01646EA18541072180B
:1047D000521091420CD09042F1DD511C8842234688
:1047E0003246EBDC01E016461C46B04200DB2C46AC
:1047F000204670BD184670BD0120400502490A6878
:1048000082430A604861704700040140F0B581B0FE
:10481000C14DC2486860EFF3108072B6C04800789E
:10482000E8602861686179249C4E9D4F3760A41E22
:1048300014212046FCF77EFCC0B2FDF7E3FC6008C3
:104840000A3028600A20FEF751F9022CEED8FDF755
:104850003FFC00202860B3490880B34800886860A6
:1048600062B601B0F0BDC046F0B583B00320FDF7DD
:10487000C9FC00213520AB4EA64A02910B4604E04C
:104880005B1CA81C313D7E2D4CD2054684488349D3
:104890000860029830805019401E0778FF2FEFD033
:1048A000505D00282DD00A219B4E3160F7214143F5
:1048B0007D204001091823480193FCF73BFC044686
:1048C00021482146FCF736FC706095490978484339
:1048D0009249FCF72FFCF060306170610198C0B222
:1048E000FE214143CE1919482146FCF723FC7043B1
:1048F0008C4E6421FCF71EFC80B2FEF7F7F8002313
:104900000BE000248448C46004614461D8B2FE21F5
:104910004143C819FEF7EAF823467E4AA81C313DF8
:104920007E2DB2D3FDF7D4FB00207B4A10607E4978
:104930000988516030805A485849086003B0F0BD7A
:10494000D9060020C0D8A700003E4900A08601007B
:10495000B0B5714D714868602820286070480078B3
:10496000E860286168610220FDF74CFC962420462F
:10497000FEF7BCF849484A490160502028602046AB
:10498000FEF7B4F8FDF7A4FB002028606549088015
:10499000654800886860B0BDB0B55F4D5F4868602D
:1049A000322028605E480078E86028616861022053
:1049B000FDF728FC96242046FEF798F8374838493A
:1049C00001601E2028602046FEF790F8FDF780FB6E
:1049D0000020286053490880534800886860B0BDB3
:1049E000B0B5EFF3108072B64B4D4C4868602B4861
:1049F0002B4901605020286049480078E860286110
:104A000068610320FDF7FEFB64242046FEF76EF884
:104A1000462028602046FEF769F8282028602046B6
:104A2000FEF764F8FDF754FB002028603D4908803C
:104A30003D480088686062B6B0BDC046F0B581B040
:104A4000354D36486860EFF3108072B6134E144F40
:104A500037603C20286032480078E860286168614F
:104A60000120FDF7CFFB4B242046FEF73FF85020F6
:104A700028602046FEF73AF85A2028603760204622
:104A8000FEF734F8FDF724FB002028602549088054
:104A900025480088686062B601B0F0BD0030004073
:104AA000AAAA0000B0B5EFF3108072B63020854995
:104AB000085C194DFF2802D0FFF7D6FE25E0174805
:104AC000686017480078E860286168610320FDF796
:104AD00099FB37202860C8242046FEF707F80520F8
:104AE000FDF790FB282028602046FDF7FFFF0620F9
:104AF000FDF788FB192028602046FDF7F7FFFDF73A
:104B0000E7FA0848002101802960074800886860AA
:104B100062B6B0BDD9060020282C0140CF070000A6
:104B2000D505002044050020F200002010B50A4CF5
:104B30006078022808D0012803D1FDF7BFFC0020CF
:104B4000607000F015FA10BD04488089FFF770FD11
:104B50000020607010BDC046000500207C050020CC
:104B6000B0B503210A050920C0060368934301225A
:104B700014051B190360930283628B0404689C4331
:104B80009304E3180360530283620B0404689C439C
:104B90001304E318036013028362094B1C680825A1
:104BA00025430424A5431D601C6802252543954325
:104BB0001D60890303688B43D10359180160B0BDA0
:104BC00000040048F0B5012A23DB03231340042A24
:104BD00001D200240FE00F4C224000240D5D05554A
:104BE00005190E1977786F70B778AF70F678EE7098
:104BF000241DA242F2D1002B0BD0625C0255012B86
:104C000007D0621C555C8554022B02D0A21C515C5B
:104C10008154F0BDFCFFFF7FB0B5BE4801680222A1
:104C200011430160016891430160BB4801460839A6
:104C300041220A600A210160134909788160134901
:104C4000C16002460C3A136801210B431360002235
:104C50004260B34B0E4CDC60044614349C600D4C37
:104C600024785C600C4C1C604B020446143C2568A4
:104C70001D43256003680B430360AB4B1A7020385B
:104C800002680A430260B0BDA4010020FFFF0000DB
:104C9000D80500203C0100208B09000002480021BB
:104CA000416001607047C0462404004080B504495B
:104CB0000A7804484270CA6CC02100F005F880BD33
:104CC000C0000020D9060020F0B503AF8BB06E46BF
:104CD000F41D193415467161B061C80F0B1801221B
:104CE0001946F2609143C91D072291436A46501A42
:104CF00059108546F0613161FCF711FA706902289C
:104D00005ADBB26935607460032031690840B060D5
:104D1000481E032801D2002123E048005D490140DC
:104D2000716100231946D25CB069C018447824022E
:104D3000A218F569EA528278C4782402A218EC1805
:104D40006280027945792D02AA18A2808279C07901
:104D500000028018E080B2690833091D706998422A
:104D6000E1D1B368002B7468356825D04900B0697B
:104D7000405CB2695218527812021018F2697161DF
:104D80005052012B18D07069801CB1690A5CB1695E
:104D90000B185B781B029A18F3691A52B169B06854
:104DA000022809D00A467069001D095C1218527861
:104DB00012025118F26911523069A0603648016838
:104DC000C90708D00168C90705D00168C90702D022
:104DD0000168C907F3D14168090606D52F490A6859
:104DE0000346083B1A6049681960A905F3681DD19C
:104DF000426802210A4342608560426840231343AF
:104E000043600268D20708D00268D20705D0026862
:104E1000D20702D00268D207F3D10268920601D508
:104E20002022026042688A434260F3680021616088
:104E300007E04168994341606168891C61602168AD
:104E4000491C21602168A26891421AD24168194325
:104E5000416021684900F269515A62685153016802
:104E6000C90708D00168C90705D00168C90702D081
:104E70000168C907F3D101688906DAD520210160EC
:104E8000D7E7416880220A434260FE1F053EB546CF
:104E9000F0BDC046F8FFFF7F0C2002404401002017
:104EA000B0B51C48016802221143016001689143BA
:104EB000016019480146083960220A600321016037
:104EC0001649097881603D21C16002460C3A136899
:104ED00001210B431360124B124ADA60024614326E
:104EE0009A60114A547817345C60104C1C604B0275
:104EF0000446143C25681D43256003680B4303608A
:104F0000CB03446A1C4344621170203802680A4390
:104F10000260B0BD1010024020040040EA040020EE
:104F2000440002409C070020E00400209B09000090
:104F3000F0B50C490C680822144304239C430C6010
:104F4000094C25680126B54325606568074F2F4049
:104F50003818606020683043206008681843904328
:104F60000860F0BD003801401C0002400000FFFF57
:104F7000F0B585B0FB4DA87C002805D0FA4E707EB8
:104F8000002805D0F08F2FE1F748C18F81869BE183
:104F90007D22D400F54800794300191926202D5CA4
:104FA000F08F0127002D049418D0814248D2EF4A97
:104FB000D27BEC4C657CAA425AD13C460125039534
:104FC000F5730025B5863779002F00D1A0E0F57381
:104FD000039B9A1AE54BDA7327464CE081423AD29A
:104FE0000397E24BDF7BDF4D6B7C02979F4200D043
:104FF0008CE0307D431E98414023F35A9BB2C82B6E
:10500000039F3B4600D30346D84DAC8C2D6DA54283
:1050100000D80346012B00D088E0D54800248460E6
:105020000120D24DE8720299401AE873FFF7E4FBC1
:10503000B47228794000049C0119F08FC94D79E0C1
:10504000C84DE21A824228D8191981424FD3002153
:1050500082424FD94FE0C34DE21A824278D81919E3
:10506000814200D2B4E00021824200D8B3E0B3E034
:10507000F27B002A0CD100223271BE4A00922F3AF4
:105080002F23FFF797FBB086F08FB84909794B00C3
:10509000B44D049CE21A8242D6D90397697C012759
:1050A0007D1AB24CE47BA5420BD1F7730025B5867F
:1050B0003479002C33D0F573AC4BD973039F049C27
:1050C00004E0F17B0029039F049C0CD10021317185
:1050D0002F230093A74BFFF76DFBB086A348007901
:1050E0004300E21AF08F9F4D19198142AFD201217E
:1050F000824200D80F46002F73D10021B186F27B87
:10510000002A6ED001223271F1736AE0039F11E030
:10511000944D2746049CE21A824295D9BDE7914DF1
:10512000039F049C1919814291D2E0E7D000F087D7
:105130008C4D049C8F4A00922F3A2F23FFF73AFBA5
:10514000B086F08F894909794B00E21A824286D9EC
:10515000697C01235C1A854DED7BAC4221D1307D09
:10516000441EA0414024345BA4B2C82C039700D352
:1051700007467E4DAC8C2D6DA54200D80746012F09
:10518000784D11D1794FF973FB727948002484600E
:10519000FFF732FBB47238794000049C221AF08F7A
:1051A00005E0704D049C03E0049CF4872046039FB7
:1051B0002F21009100216F4BFFF7FCFAB0866B485E
:1051C00000794300E21AF08F1919814200D34AE7AF
:1051D0000121824200D80F46002F02D10021B17276
:1051E000B186717E00296FD07D21CC0021462F3100
:1051F00088422FD95D4FF97B6A7C914224D1B88CCB
:105200003D6D012200238542104600D818464025F6
:10521000755BADB2C82D00D31A461040327DD2B2B4
:10522000531E9A410243012A0BD151480025856043
:105230000120F872401AF873FFF7DEFAB572F08FAA
:1052400001E00020F087474D397A4200511AAD4AFB
:105250008918B1860146303989B2A1422FD22F4632
:10526000697C0122531A414CE57BAB4221D1A08CD1
:10527000256D00238542104600D818464025755BF1
:10528000ADB2C82D00D31A461040327DD2B2531EA3
:105290009A410243012A0AD1E1730120E0723448A5
:1052A00000258560FFF7A8FAB572F08F01E00020B5
:1052B000F087217A4200511A3139B1863D462F28B4
:1052C00002D80020B072B086EF4FF879ED4EB17C75
:1052D000814216D9A87D002813D0FCF7F9FEFFF70C
:1052E0008BFA6620B07401200002EC49086120208E
:1052F00008600020B08708200860307D00285BD05F
:1053000050E1E87C002805D0B08E1D2825D800216A
:10531000B1873FE07079002848D03078002872D0FB
:10532000796CBB6CB08E00912F21D84C2246FFF7D0
:1053300041FA0146D748FBF71DFFE97E4908FBF714
:1053400019FF3085B08E2E286AD800207865B08786
:105350007066307D00282FD024E11E280CD11E203D
:1053600018E0C046D906002000050020C00000203B
:105370007C050020FF0700002821695C14224A43B5
:10538000824207D9A02100911E212F23FFF712FA94
:10539000B087B08E28216A5C14215143814207D81E
:1053A000BA4A0092A023FFF705FA00E0B08EB0875A
:1053B000307D002800D0F5E0F07D002800D1F1E03C
:1053C000E97C5024204648432F30B28F904200D9C8
:1053D00086E0F07C00286BD1FCF77AFEF87A002892
:1053E00061D1F07C00285CD1F87CF97B012928D1BF
:1053F000401CF874C1B2072902D301203073F8743D
:105400000121014027E0706EA349FBF7B3FE81B292
:10541000302900D830210004C00E0DD09B490BE08C
:10542000706E9D49FBF7A6FE81B2302900D830216D
:105430000004C00E00D02146B187307D0028BBD0CB
:10544000B0E0401EF874010603D10120307306203D
:10545000F87401218143B973EFF3108072B6F07BC9
:10546000002802D1F87CFCF7CDFE62B6FCF7AAFE5C
:10547000874801688A4A914202D30121824AD17247
:105480000021F1763177804F396D834A3A65FA7C95
:10549000844B854D1D605200101841820120F0742C
:1054A000774DFDF703FD0120F074388D3086E97CDF
:1054B000BB8DB08F754A002905D011462F39009158
:1054C0002833892103E011462F3900912F21FFF75E
:1054D00071F970862620285C002801D10020F07325
:1054E000E87C60432F30B18F884258D9F07A052884
:1054F00015D8C046784400794000874412050E084C
:105500000B05C046FFF7FFFFFFF746FA07E0FFF77E
:105510007DF904E0FFF792FA01E0FFF719FA0020A5
:10552000F072287D002821D0F07C00286DD0F87C16
:105530003C214143388B421810463C3803B2FF21CE
:1055400068318B4201DD594810184C22B052024696
:10555000EF3213B28B4201DD0246793A32530246F2
:10556000773213B28B4210DC10460FE000207086B9
:10557000F17C00296AD1464988600120F872287FB1
:1055800000285ED0FDF78CFD60E0F1384E217052AE
:10559000E87C012801D10120307500207086F07B65
:1055A000002801D005B0F0BDB08F2E2812D9697F38
:1055B0001E22CA40748E3649896891420BD2398DB9
:1055C0008C4201D271860C46798D8C4203D971864A
:1055D0000C4600E0748EB98E8C4201D971860C465F
:1055E000B179002905D02221795E8C4201DD8CB28F
:1055F00074863028D6D3B06E0128D3DB2649FBF75A
:1056000099FD2018708605B0F0BD21480021816009
:105610000122FA72B175287F00280FD0E87C00289B
:1056200085D12920285C40001849401843387084EF
:105630000492FFF795FA0498F07378E7FCF748FDB9
:1056400075E7F07B002801D1FCF742FD2620295C9C
:10565000F07B0029A4D00028A2D0F18F7D20C400C7
:105660002046FDF75BFD0019708480B2798E491EDB
:10567000814202DDFFF774FA91E7FDF711FD8EE735
:10568000D906002000050020C0000020FF07000010
:105690007C050020008793031027000018040048B1
:1056A000C509000024000040881300005CFEFFFFD5
:1056B0000320000203490A688243012000021018F7
:1056C000086070470C040048014908607047C046F4
:1056D000342C0140014908607047C046382C014015
:1056E000014908607047C0463C2C01400B2800D39C
:1056F0000B204000014908707047C046D5050020C6
:10570000F0B591B000240F940E940D940C940B946A
:105710000A940994089407940694059404940394B5
:10572000012082030292034600903D4841681143E4
:1057300041604168114010911099990402680A4330
:10574000026000680840109010980894079306942F
:10575000022004904026039603250595314803A9AD
:10576000FBF7FCFE304F386830490140103139609A
:1057700028033968814339603868202188433860BC
:105780003868B04338603868802101910843386038
:105790002802396881433960A80239688143396039
:1057A0000F940E940C940B940A94E12040020990FB
:1057B00008260D961E4D2C46083C09A92046FCF7EC
:1057C0005DF9009B98022968814329600920C00285
:1057D000291F0A6882430A6028682A2188432860B2
:1057E00020681843206002981030396801400C206E
:1057F0001029024600D032460E4BD351102900D05A
:10580000064628462030F05178680B490140313176
:105810007960286801990843286011B0F0BDC0463E
:1058200014100240000400481C000240EFBFFFFFBC
:1058300008380140A40500200000FFFFF0B583B048
:10584000F74D688E4027E853A88D401CA885A88C8A
:10585000401CA884E88C401CE884E87D00284DD1D9
:10586000687A00284AD1287E002847D0A88E0028D0
:1058700003D052200021295240E05220295A491CCD
:10588000295289B2E74A914238D3698F1F2927D319
:1058900002970120E875E448082101617D21890013
:1058A000F439016020210160E87800281CD05420E0
:1058B0002C5AB92041002046FBF73CFC6872600876
:1058C000B92813D30024D94FD94EFFF789F86420A3
:1058D000FDF70CF93E60641C687A8442F5D305E05C
:1058E00000212952297609E0FFF77AF8A87E0028DE
:1058F000029F03D12620CF4900220A54CD4EF17FCA
:10590000002910D056202A5A521C2A5292B2CA4B51
:105910005B78C91814234B43143B934203D20021F4
:1059200029520120A873287D002800D071E1C24CC3
:10593000E07A00283FD0E87C00283CD0FEF75CFFEE
:10594000FDF7F2FBA17B00290DD000280DD0A87D2A
:10595000401CA875227CC0B2904214D8E87E002872
:1059600029D1287F16E0002806D0287F401C287700
:10597000EA7E002A1FD10BE0A87D401CA875227C7E
:10598000C0B290420BD900202877EA7E002A12D1BB
:10599000002908D0617CC0B2884208D80BE0E87EBC
:1059A000002808D1287FA17CC0B2884203D90120F9
:1059B000E87600F009FAE88C152800D2B8E000205B
:1059C0000090E884E97CA8790028029701913FD0F3
:1059D00000293DD02E20285E2C21715CC722D243A5
:1059E0004A431018954908608A69831A8E68CA6804
:1059F0000F695A434A6188614643F3190E6AB342FC
:105A000000DB33467642B34200DC33460B61D218EA
:105A10004B68584310184A6A9042029F00DB1046B8
:105A200052429042834E00DC1046C8618449FBF725
:105A3000A1FB618C081802B2A18D8A4200DB0146ED
:105A400008B27D210901884200DB08466084019983
:105A5000707F002831D000292FD0E08A216D091AEB
:105A600076488162026C8B1A066B426B876B5A43D5
:105A7000C26301644E43F319866CB34200DB3346C4
:105A80007642B34200DC33468363D218C36A59437B
:105A90005118C26C9142029F00DB11465242914262
:105AA00000DC11464164A86E08186649884200DB94
:105AB0000846C1178843A86601996879002837D03D
:105AC000002935D03846298D5F4AD268511A616560
:105AD000E26E8B1AE66D226E676E5A43A266E1662D
:105AE0004E43F319666FB34200DB33467642B3424E
:105AF00000DC33466366D218A36D59435118A26F78
:105B00009142074600DB11465242914200DC1146A9
:105B100021676A6E89184D4A914200DB1146CA1707
:105B200091436966EA488068632801D800986066F6
:105B30006079002831D07D208000E54B1968019004
:105B4000814202D83846102601E038460626298EC2
:105B500002229629174600D337469B68962B00D31E
:105B60003A46D94C627207462B5A5E1A96420ADDB3
:105B70008918E953216D01988142D84920D9012023
:105B8000A072C87D08E0C81A9042D44B01DD881A83
:105B9000E8530020A072D87DA070E87D002814D0C2
:105BA000E87C002811D0A88F30280ED3EE5B278E1A
:105BB000304678437D210901FBF7BCFA401C1FE009
:105BC0000020A072E87D0028EAD1E87B00280FD0F1
:105BD000688C26463C46378E78437D210901FBF7C9
:105BE000A9FA718E081A401C582168522E5B09E0F0
:105BF000EE5B278E304678437D210901FBF79AFA48
:105C00005821685212490F6080B28860C8602E86A1
:105C100008614420295A491C295203B0F0BDC046EE
:105C200000050020214E000018040048003000400C
:105C3000AAAA0000D9060020C00000204C010020C4
:105C4000F0D8FFFF60E316007C050020F058380113
:105C50002C2C014070B54E4800784E4C217800291C
:105C60000BD0002809D04D480078002810D0FEF74E
:105C7000D3FF54480221017070BD474909780129BA
:105C80000CD0002924D1FCF7E7FFFEF7C5FF70BD5B
:105C9000FFF706F94B480121017070BD00280CD0B8
:105CA0003E480078002814D03D480088FEF7C0FC2C
:105CB000FCF704FCFEF7B0FF70BD3A4D28780128D0
:105CC0000AD03948007801280ED0207800281DD04D
:105CD00070BDFFF7E5F870BDFCF7F0FBFEF79CFF29
:105CE000314800780128F0D1FDF734FA002803D0BC
:105CF0002E480321017004E02C4802210170FCF7BA
:105D000003FEFEF789FF20780028E1D128490A88A0
:105D1000284C2878002816D06079072813D8062A3E
:105D200011D3431C637124480568C06F401B65692B
:105D300040196061082B06D1C309C008C51AA581A6
:105D4000C0181A4B98801D4D2888002805D163780B
:105D5000002B02D1501C088070BD00260E8018490F
:105D60008842B5D36189FDF7D9F9322801D8207866
:105D7000461C2670F0B2332807D3E078002804D1FF
:105D8000FEF744FD0120000220802888608170BD5C
:105D9000100500201705002018050020E004002051
:105DA00088050020190500201A0500203C0100206C
:105DB0003A050020E4040020D80500203405002026
:105DC000DD05000001050020F0B581B03C48016808
:105DD0004A223C4EB152002404603B4D2A6D0323FD
:105DE000534389B259180A09384B1340CA08D21ACA
:105DF0004227F25389082965338791B2344FBA6834
:105E0000052A11D2006833480160E87CE97B01294A
:105E100017D1401CE874C1B2072902D301203073A6
:105E2000E8740121014016E002688A42EBD2026860
:105E30008A42E8D202688A42E5D202688A42F3D3F3
:105E4000E1E7401EE874010603D10120307306200B
:105E5000E87401218143A973EFF3108072B6F07BDF
:105E6000002802D1E87CFCF7CDF962B6FCF7AAF96C
:105E700038681949884201D30120E872F4763477F2
:105E8000B475B868411CB960E87C4000C219286D3F
:105E900050822622114B9A5CD2B25B7F13437D2243
:105EA0001201002B05D0142908D3511C884202D3BB
:105EB00004E0904202D2EC72FCF7F8FF01B0F0BDB2
:105EC0002400004000050020C0000020FEFF00006C
:105ED0007C0500202C200040C5090000D9060020C8
:105EE00002E008C8121F08C1002AFAD170477047A3
:105EF000002001E001C1121F002AFBD17047000001
:105F00000000000000000102030406070809000069
:105F1000000001020304191B12131D1516171A099C
:105F20000A0B1E0D0E0F0000485F0008C000002085
:105F3000C0030000F4110008306200088004002053
:105F400080080000F05E0008101A021E012D640196
:105F5000010A010201010505010102020201D00747
:105F60006419B418084C046C07DC054A0E14DC05EF
:105F70006E127812C81A2D021008CF07CF07D0076B
:105F80001412462A902819122123102733E80312ED
:105F90007C6408D430720A02136429302350C3127F
:105FA000202B204E08400923016745AB89EFCD63C4
:105FB00090013950F123204E4BA086215927110A18
:105FC0001932601113127A121C3401400832FA128D
:105FD000B412B712BA12BD12C112C412C712CA1239
:105FE000CD12D012D312D612D912DC12E012E31263
:105FF000E612E912EC12EF12F212F51AF7321AFD5C
:106000006718660301060109010B010E0111011356
:1060100001160119011B011E012001230125012880
:10602000012A012C012F0131013301350138013AD8
:10603000013C013E01400142014401460147014942
:10604000014B014D014E01500151015301540156C4
:1060500001570158015A015B015C015D015E015F5E
:106060000160016101620163021C640165021A663C
:10607000023A6702FA680249182922292A3A643644
:106080001A62401A60481A5E501A5C581A5A601A0E
:1060900057681A54701A51781A4E801A4B881A474A
:1060A000901A44981A40A01A3CA81A38B01A33B86B
:1060B0001A2FC01A2AC81A25D01A20D81A1BE01A7B
:1060C00016E81A11F01A0BF815060103011301FD69
:1060D00012FA12F712F512F212EF12EC12E912E6AE
:1060E00012E312E012DC12D912D612D312D012CD62
:1060F00012CA12C712C412C112BD12BA12B712B418
:1061000012B112AE12AB12A712A412A1129E129BD0
:10611000129812951292128F128C12881285128286
:10612000127F127C1279127612731271126E126B38
:10613000126812651262125F125D125A12571255DE
:106140001252124F124D124A124812451243124077
:10615000123E123C12391237123512331230122EFF
:10616000122C122A12281226122412221221121F75
:10617000121D121B121A12181217121512141212D3
:1061800012111210120E120D120C120B120A120919
:106190001208120712061A050212041A03021A0242
:1061A0000219D91902011249182922292A3A04365A
:1061B0001A06401A08481A0A501A0C581A0E601A81
:1061C00011681A14701A17781A1A801A1D881A2161
:1061D000901A24981A28A01A2CA81A30B01A35B888
:1061E0001A39C01A3EC81A43D01A48D81A4DE01AB4
:1061F00052E81A57F01A5DF8126212651268126BB3
:10620000126E1271127312761279127C127F128240
:1062100012851288128C128F129212951298129B6C
:10622000129E12A112A412A712AB12AE52B100001C
:020000040800F2
:107BE0004342544543484E4F4C4F47595F4630350A
:107BF0003100000000000000000000000000000054
:04000005080010BD22
:00000001FF
